{
  "_format": "hh-sol-artifact-1",
  "contractName": "LnbgLondonCoinBridgeBase",
  "sourceName": "contracts/LnbgBridgeBase.sol",
  "abi": [
    {
      "inputs": [
        {
          "internalType": "address",
          "name": "_token",
          "type": "address"
        }
      ],
      "stateMutability": "nonpayable",
      "type": "constructor"
    },
    {
      "anonymous": false,
      "inputs": [
        {
          "indexed": false,
          "internalType": "address",
          "name": "from",
          "type": "address"
        },
        {
          "indexed": false,
          "internalType": "address",
          "name": "to",
          "type": "address"
        },
        {
          "indexed": false,
          "internalType": "address",
          "name": "vault",
          "type": "address"
        },
        {
          "indexed": false,
          "internalType": "uint256",
          "name": "amount",
          "type": "uint256"
        },
        {
          "indexed": false,
          "internalType": "uint256",
          "name": "date",
          "type": "uint256"
        },
        {
          "indexed": false,
          "internalType": "uint256",
          "name": "nonce",
          "type": "uint256"
        },
        {
          "indexed": false,
          "internalType": "uint256",
          "name": "chainId",
          "type": "uint256"
        }
      ],
      "name": "LockDeposits",
      "type": "event"
    },
    {
      "anonymous": false,
      "inputs": [
        {
          "indexed": true,
          "internalType": "address",
          "name": "previousOwner",
          "type": "address"
        },
        {
          "indexed": true,
          "internalType": "address",
          "name": "newOwner",
          "type": "address"
        }
      ],
      "name": "OwnershipTransferred",
      "type": "event"
    },
    {
      "anonymous": false,
      "inputs": [
        {
          "indexed": false,
          "internalType": "address",
          "name": "from",
          "type": "address"
        },
        {
          "indexed": false,
          "internalType": "address",
          "name": "to",
          "type": "address"
        },
        {
          "indexed": false,
          "internalType": "uint256",
          "name": "amount",
          "type": "uint256"
        },
        {
          "indexed": false,
          "internalType": "uint256",
          "name": "date",
          "type": "uint256"
        },
        {
          "indexed": false,
          "internalType": "uint256",
          "name": "nonce",
          "type": "uint256"
        },
        {
          "indexed": false,
          "internalType": "uint256",
          "name": "chainId",
          "type": "uint256"
        }
      ],
      "name": "unLockDeposits",
      "type": "event"
    },
    {
      "inputs": [],
      "name": "admin",
      "outputs": [
        {
          "internalType": "address",
          "name": "",
          "type": "address"
        }
      ],
      "stateMutability": "view",
      "type": "function"
    },
    {
      "inputs": [
        {
          "internalType": "address",
          "name": "_from",
          "type": "address"
        },
        {
          "internalType": "address",
          "name": "_to",
          "type": "address"
        },
        {
          "internalType": "uint256",
          "name": "_amount",
          "type": "uint256"
        },
        {
          "internalType": "uint256",
          "name": "_chainId",
          "type": "uint256"
        }
      ],
      "name": "depositTokenFor",
      "outputs": [],
      "stateMutability": "nonpayable",
      "type": "function"
    },
    {
      "inputs": [],
      "name": "nonce",
      "outputs": [
        {
          "internalType": "uint256",
          "name": "",
          "type": "uint256"
        }
      ],
      "stateMutability": "view",
      "type": "function"
    },
    {
      "inputs": [],
      "name": "owner",
      "outputs": [
        {
          "internalType": "address",
          "name": "",
          "type": "address"
        }
      ],
      "stateMutability": "view",
      "type": "function"
    },
    {
      "inputs": [
        {
          "internalType": "uint256",
          "name": "",
          "type": "uint256"
        },
        {
          "internalType": "uint256",
          "name": "",
          "type": "uint256"
        }
      ],
      "name": "processedNonces",
      "outputs": [
        {
          "internalType": "bool",
          "name": "",
          "type": "bool"
        }
      ],
      "stateMutability": "view",
      "type": "function"
    },
    {
      "inputs": [],
      "name": "renounceOwnership",
      "outputs": [],
      "stateMutability": "nonpayable",
      "type": "function"
    },
    {
      "inputs": [
        {
          "internalType": "address",
          "name": "_to",
          "type": "address"
        },
        {
          "internalType": "uint256",
          "name": "_amount",
          "type": "uint256"
        },
        {
          "internalType": "uint256",
          "name": "_nonce",
          "type": "uint256"
        },
        {
          "internalType": "uint256",
          "name": "chainId",
          "type": "uint256"
        }
      ],
      "name": "requestedTokensFor",
      "outputs": [],
      "stateMutability": "nonpayable",
      "type": "function"
    },
    {
      "inputs": [],
      "name": "token",
      "outputs": [
        {
          "internalType": "contract IERC20",
          "name": "",
          "type": "address"
        }
      ],
      "stateMutability": "view",
      "type": "function"
    },
    {
      "inputs": [
        {
          "internalType": "address",
          "name": "newOwner",
          "type": "address"
        }
      ],
      "name": "transferOwnership",
      "outputs": [],
      "stateMutability": "nonpayable",
      "type": "function"
    },
    {
      "inputs": [
        {
          "internalType": "address",
          "name": "_newAdmin",
          "type": "address"
        }
      ],
      "name": "updateAdmin",
      "outputs": [],
      "stateMutability": "nonpayable",
      "type": "function"
    },
    {
      "inputs": [],
      "name": "vault",
      "outputs": [
        {
          "internalType": "address",
          "name": "",
          "type": "address"
        }
      ],
      "stateMutability": "view",
      "type": "function"
    },
    {
      "inputs": [
        {
          "internalType": "uint256",
          "name": "_amount",
          "type": "uint256"
        }
      ],
      "name": "withdrawTokens",
      "outputs": [],
      "stateMutability": "nonpayable",
      "type": "function"
    }
  ],
  "bytecode": "0x60806040523480156200001157600080fd5b506040516200131938038062001319833981810160405281019062000037919062000257565b620000576200004b6200012160201b60201c565b6200012960201b60201c565b80600460006101000a81548173ffffffffffffffffffffffffffffffffffffffff021916908373ffffffffffffffffffffffffffffffffffffffff16021790555030600260006101000a81548173ffffffffffffffffffffffffffffffffffffffff021916908373ffffffffffffffffffffffffffffffffffffffff16021790555033600160006101000a81548173ffffffffffffffffffffffffffffffffffffffff021916908373ffffffffffffffffffffffffffffffffffffffff1602179055505062000289565b600033905090565b60008060009054906101000a900473ffffffffffffffffffffffffffffffffffffffff169050816000806101000a81548173ffffffffffffffffffffffffffffffffffffffff021916908373ffffffffffffffffffffffffffffffffffffffff1602179055508173ffffffffffffffffffffffffffffffffffffffff168173ffffffffffffffffffffffffffffffffffffffff167f8be0079c531659141344cd1fd0a4f28419497f9722a3daafe3b4186f6b6457e060405160405180910390a35050565b600080fd5b600073ffffffffffffffffffffffffffffffffffffffff82169050919050565b60006200021f82620001f2565b9050919050565b620002318162000212565b81146200023d57600080fd5b50565b600081519050620002518162000226565b92915050565b60006020828403121562000270576200026f620001ed565b5b6000620002808482850162000240565b91505092915050565b61108080620002996000396000f3fe608060405234801561001057600080fd5b50600436106100b45760003560e01c8063d3838ba011610071578063d3838ba014610153578063e2f273bd14610183578063f2fde38b1461019f578063f851a440146101bb578063fbfa77cf146101d9578063fc0c546a146101f7576100b4565b80631baad4b0146100b9578063315a095d146100d55780634ae8aa74146100f1578063715018a61461010d5780638da5cb5b14610117578063affed0e014610135575b600080fd5b6100d360048036038101906100ce91906109f7565b610215565b005b6100ef60048036038101906100ea9190610a5e565b61035f565b005b61010b60048036038101906101069190610a8b565b610412565b005b610115610661565b005b61011f610675565b60405161012c9190610b01565b60405180910390f35b61013d61069e565b60405161014a9190610b2b565b60405180910390f35b61016d60048036038101906101689190610b46565b6106a4565b60405161017a9190610ba1565b60405180910390f35b61019d60048036038101906101989190610bbc565b6106d3565b005b6101b960048036038101906101b49190610bbc565b61071f565b005b6101c36107a2565b6040516101d09190610b01565b60405180910390f35b6101e16107c8565b6040516101ee9190610b01565b60405180910390f35b6101ff6107ee565b60405161020c9190610c48565b60405180910390f35b600460009054906101000a900473ffffffffffffffffffffffffffffffffffffffff1673ffffffffffffffffffffffffffffffffffffffff166323b872dd85600260009054906101000a900473ffffffffffffffffffffffffffffffffffffffff16856040518463ffffffff1660e01b815260040161029693929190610c63565b6020604051808303816000875af11580156102b5573d6000803e3d6000fd5b505050506040513d601f19601f820116820180604052508101906102d99190610cc6565b507f6b0dda1b3bcf3a6f96b58c35dcab70783aadccfcf64b1755e6699d68d24e91dc8484600260009054906101000a900473ffffffffffffffffffffffffffffffffffffffff168542600354876040516103399796959493929190610cf3565b60405180910390a16003600081548092919061035490610d91565b919050555050505050565b610367610814565b600460009054906101000a900473ffffffffffffffffffffffffffffffffffffffff1673ffffffffffffffffffffffffffffffffffffffff1663a9059cbb6103ad610675565b836040518363ffffffff1660e01b81526004016103cb929190610dd9565b6020604051808303816000875af11580156103ea573d6000803e3d6000fd5b505050506040513d601f19601f8201168201806040525081019061040e9190610cc6565b5050565b600160009054906101000a900473ffffffffffffffffffffffffffffffffffffffff1673ffffffffffffffffffffffffffffffffffffffff163373ffffffffffffffffffffffffffffffffffffffff16146104a2576040517f08c379a000000000000000000000000000000000000000000000000000000000815260040161049990610e5f565b60405180910390fd5b6000151560056000838152602001908152602001600020600084815260200190815260200160002060009054906101000a900460ff1615151461051a576040517f08c379a000000000000000000000000000000000000000000000000000000000815260040161051190610ecb565b60405180910390fd5b600160056000838152602001908152602001600020600084815260200190815260200160002060006101000a81548160ff021916908315150217905550600460009054906101000a900473ffffffffffffffffffffffffffffffffffffffff1673ffffffffffffffffffffffffffffffffffffffff1663a9059cbb85856040518363ffffffff1660e01b81526004016105b4929190610dd9565b6020604051808303816000875af11580156105d3573d6000803e3d6000fd5b505050506040513d601f19601f820116820180604052508101906105f79190610cc6565b507fc34c40ecce15b70051adecafbfb7eaf58d54dc3ea7898bf0bb6be20223cc024c600260009054906101000a900473ffffffffffffffffffffffffffffffffffffffff16858542868660405161065396959493929190610eeb565b60405180910390a150505050565b610669610814565b6106736000610892565b565b60008060009054906101000a900473ffffffffffffffffffffffffffffffffffffffff16905090565b60035481565b60056020528160005260406000206020528060005260406000206000915091509054906101000a900460ff1681565b6106db610814565b80600160006101000a81548173ffffffffffffffffffffffffffffffffffffffff021916908373ffffffffffffffffffffffffffffffffffffffff16021790555050565b610727610814565b600073ffffffffffffffffffffffffffffffffffffffff168173ffffffffffffffffffffffffffffffffffffffff1603610796576040517f08c379a000000000000000000000000000000000000000000000000000000000815260040161078d90610fbe565b60405180910390fd5b61079f81610892565b50565b600160009054906101000a900473ffffffffffffffffffffffffffffffffffffffff1681565b600260009054906101000a900473ffffffffffffffffffffffffffffffffffffffff1681565b600460009054906101000a900473ffffffffffffffffffffffffffffffffffffffff1681565b61081c610956565b73ffffffffffffffffffffffffffffffffffffffff1661083a610675565b73ffffffffffffffffffffffffffffffffffffffff1614610890576040517f08c379a00000000000000000000000000000000000000000000000000000000081526004016108879061102a565b60405180910390fd5b565b60008060009054906101000a900473ffffffffffffffffffffffffffffffffffffffff169050816000806101000a81548173ffffffffffffffffffffffffffffffffffffffff021916908373ffffffffffffffffffffffffffffffffffffffff1602179055508173ffffffffffffffffffffffffffffffffffffffff168173ffffffffffffffffffffffffffffffffffffffff167f8be0079c531659141344cd1fd0a4f28419497f9722a3daafe3b4186f6b6457e060405160405180910390a35050565b600033905090565b600080fd5b600073ffffffffffffffffffffffffffffffffffffffff82169050919050565b600061098e82610963565b9050919050565b61099e81610983565b81146109a957600080fd5b50565b6000813590506109bb81610995565b92915050565b6000819050919050565b6109d4816109c1565b81146109df57600080fd5b50565b6000813590506109f1816109cb565b92915050565b60008060008060808587031215610a1157610a1061095e565b5b6000610a1f878288016109ac565b9450506020610a30878288016109ac565b9350506040610a41878288016109e2565b9250506060610a52878288016109e2565b91505092959194509250565b600060208284031215610a7457610a7361095e565b5b6000610a82848285016109e2565b91505092915050565b60008060008060808587031215610aa557610aa461095e565b5b6000610ab3878288016109ac565b9450506020610ac4878288016109e2565b9350506040610ad5878288016109e2565b9250506060610ae6878288016109e2565b91505092959194509250565b610afb81610983565b82525050565b6000602082019050610b166000830184610af2565b92915050565b610b25816109c1565b82525050565b6000602082019050610b406000830184610b1c565b92915050565b60008060408385031215610b5d57610b5c61095e565b5b6000610b6b858286016109e2565b9250506020610b7c858286016109e2565b9150509250929050565b60008115159050919050565b610b9b81610b86565b82525050565b6000602082019050610bb66000830184610b92565b92915050565b600060208284031215610bd257610bd161095e565b5b6000610be0848285016109ac565b91505092915050565b6000819050919050565b6000610c0e610c09610c0484610963565b610be9565b610963565b9050919050565b6000610c2082610bf3565b9050919050565b6000610c3282610c15565b9050919050565b610c4281610c27565b82525050565b6000602082019050610c5d6000830184610c39565b92915050565b6000606082019050610c786000830186610af2565b610c856020830185610af2565b610c926040830184610b1c565b949350505050565b610ca381610b86565b8114610cae57600080fd5b50565b600081519050610cc081610c9a565b92915050565b600060208284031215610cdc57610cdb61095e565b5b6000610cea84828501610cb1565b91505092915050565b600060e082019050610d08600083018a610af2565b610d156020830189610af2565b610d226040830188610af2565b610d2f6060830187610b1c565b610d3c6080830186610b1c565b610d4960a0830185610b1c565b610d5660c0830184610b1c565b98975050505050505050565b7f4e487b7100000000000000000000000000000000000000000000000000000000600052601160045260246000fd5b6000610d9c826109c1565b91507fffffffffffffffffffffffffffffffffffffffffffffffffffffffffffffffff8203610dce57610dcd610d62565b5b600182019050919050565b6000604082019050610dee6000830185610af2565b610dfb6020830184610b1c565b9392505050565b600082825260208201905092915050565b7f6f6e6c792041646d696e00000000000000000000000000000000000000000000600082015250565b6000610e49600a83610e02565b9150610e5482610e13565b602082019050919050565b60006020820190508181036000830152610e7881610e3c565b9050919050565b7f7472616e7366657220616c72656164792070726f636573736564000000000000600082015250565b6000610eb5601a83610e02565b9150610ec082610e7f565b602082019050919050565b60006020820190508181036000830152610ee481610ea8565b9050919050565b600060c082019050610f006000830189610af2565b610f0d6020830188610af2565b610f1a6040830187610b1c565b610f276060830186610b1c565b610f346080830185610b1c565b610f4160a0830184610b1c565b979650505050505050565b7f4f776e61626c653a206e6577206f776e657220697320746865207a65726f206160008201527f6464726573730000000000000000000000000000000000000000000000000000602082015250565b6000610fa8602683610e02565b9150610fb382610f4c565b604082019050919050565b60006020820190508181036000830152610fd781610f9b565b9050919050565b7f4f776e61626c653a2063616c6c6572206973206e6f7420746865206f776e6572600082015250565b6000611014602083610e02565b915061101f82610fde565b602082019050919050565b6000602082019050818103600083015261104381611007565b905091905056fea26469706673582212201ffe0aea4c9b92be1fbe757dbdc3fb2577679e8de28bf04a5c63c02cbe9bc19764736f6c63430008140033",
  "linkReferences": {},
  "deployedLinkReferences": {}
}