{
  "_format": "hh-sol-artifact-1",
  "contractName": "LnbgLondonCoinMasterContract",
  "sourceName": "contracts/LnbgLondonCoinMasterContract.sol",
  "abi": [
    {
      "inputs": [
        {
          "internalType": "address",
          "name": "_creedToken",
          "type": "address"
        }
      ],
      "stateMutability": "nonpayable",
      "type": "constructor"
    },
    {
      "inputs": [],
      "name": "InsufficientBalance",
      "type": "error"
    },
    {
      "inputs": [
        {
          "internalType": "address",
          "name": "owner",
          "type": "address"
        }
      ],
      "name": "OwnableInvalidOwner",
      "type": "error"
    },
    {
      "inputs": [
        {
          "internalType": "address",
          "name": "account",
          "type": "address"
        }
      ],
      "name": "OwnableUnauthorizedAccount",
      "type": "error"
    },
    {
      "anonymous": false,
      "inputs": [
        {
          "indexed": false,
          "internalType": "address",
          "name": "by",
          "type": "address"
        },
        {
          "indexed": false,
          "internalType": "uint256",
          "name": "amount",
          "type": "uint256"
        }
      ],
      "name": "GamePointsToTokens",
      "type": "event"
    },
    {
      "anonymous": false,
      "inputs": [
        {
          "indexed": true,
          "internalType": "address",
          "name": "previousOwner",
          "type": "address"
        },
        {
          "indexed": true,
          "internalType": "address",
          "name": "newOwner",
          "type": "address"
        }
      ],
      "name": "OwnershipTransferred",
      "type": "event"
    },
    {
      "anonymous": false,
      "inputs": [
        {
          "indexed": false,
          "internalType": "address",
          "name": "by",
          "type": "address"
        },
        {
          "indexed": false,
          "internalType": "uint256",
          "name": "amount",
          "type": "uint256"
        }
      ],
      "name": "Staked",
      "type": "event"
    },
    {
      "anonymous": false,
      "inputs": [
        {
          "indexed": false,
          "internalType": "address",
          "name": "by",
          "type": "address"
        },
        {
          "indexed": false,
          "internalType": "uint256",
          "name": "amount",
          "type": "uint256"
        }
      ],
      "name": "Withdrawn",
      "type": "event"
    },
    {
      "anonymous": false,
      "inputs": [
        {
          "indexed": false,
          "internalType": "address",
          "name": "by",
          "type": "address"
        },
        {
          "indexed": false,
          "internalType": "uint256",
          "name": "amount",
          "type": "uint256"
        }
      ],
      "name": "withRequest",
      "type": "event"
    },
    {
      "inputs": [
        {
          "internalType": "address[]",
          "name": "_stakers",
          "type": "address[]"
        }
      ],
      "name": "acceptWithdrawTokenRequest",
      "outputs": [],
      "stateMutability": "nonpayable",
      "type": "function"
    },
    {
      "inputs": [
        {
          "internalType": "address",
          "name": "_addr",
          "type": "address"
        }
      ],
      "name": "changeTokenAddress",
      "outputs": [],
      "stateMutability": "nonpayable",
      "type": "function"
    },
    {
      "inputs": [
        {
          "internalType": "uint256",
          "name": "_tokens",
          "type": "uint256"
        }
      ],
      "name": "changeVotingAmount",
      "outputs": [],
      "stateMutability": "nonpayable",
      "type": "function"
    },
    {
      "inputs": [],
      "name": "creedToken",
      "outputs": [
        {
          "internalType": "contract IERC20",
          "name": "",
          "type": "address"
        }
      ],
      "stateMutability": "view",
      "type": "function"
    },
    {
      "inputs": [
        {
          "internalType": "uint256",
          "name": "_proposalId",
          "type": "uint256"
        }
      ],
      "name": "executeProposal",
      "outputs": [],
      "stateMutability": "nonpayable",
      "type": "function"
    },
    {
      "inputs": [],
      "name": "getTokensInvesters",
      "outputs": [
        {
          "internalType": "address[]",
          "name": "",
          "type": "address[]"
        }
      ],
      "stateMutability": "view",
      "type": "function"
    },
    {
      "inputs": [],
      "name": "getWithdrawRequesters",
      "outputs": [
        {
          "internalType": "address[]",
          "name": "",
          "type": "address[]"
        }
      ],
      "stateMutability": "view",
      "type": "function"
    },
    {
      "inputs": [
        {
          "internalType": "uint256",
          "name": "",
          "type": "uint256"
        }
      ],
      "name": "investedUsers",
      "outputs": [
        {
          "internalType": "address",
          "name": "",
          "type": "address"
        }
      ],
      "stateMutability": "view",
      "type": "function"
    },
    {
      "inputs": [
        {
          "internalType": "uint256",
          "name": "",
          "type": "uint256"
        }
      ],
      "name": "investedWithdrawRequesters",
      "outputs": [
        {
          "internalType": "address",
          "name": "",
          "type": "address"
        }
      ],
      "stateMutability": "view",
      "type": "function"
    },
    {
      "inputs": [
        {
          "internalType": "address",
          "name": "",
          "type": "address"
        }
      ],
      "name": "invester",
      "outputs": [
        {
          "internalType": "bool",
          "name": "",
          "type": "bool"
        }
      ],
      "stateMutability": "view",
      "type": "function"
    },
    {
      "inputs": [
        {
          "internalType": "address",
          "name": "",
          "type": "address"
        }
      ],
      "name": "invetedTokenWithdrawRequest",
      "outputs": [
        {
          "internalType": "uint256",
          "name": "",
          "type": "uint256"
        }
      ],
      "stateMutability": "view",
      "type": "function"
    },
    {
      "inputs": [],
      "name": "owner",
      "outputs": [
        {
          "internalType": "address",
          "name": "",
          "type": "address"
        }
      ],
      "stateMutability": "view",
      "type": "function"
    },
    {
      "inputs": [],
      "name": "proposalCount",
      "outputs": [
        {
          "internalType": "uint256",
          "name": "",
          "type": "uint256"
        }
      ],
      "stateMutability": "view",
      "type": "function"
    },
    {
      "inputs": [
        {
          "internalType": "uint256",
          "name": "",
          "type": "uint256"
        }
      ],
      "name": "proposals",
      "outputs": [
        {
          "internalType": "address",
          "name": "proposer",
          "type": "address"
        },
        {
          "internalType": "string",
          "name": "description",
          "type": "string"
        },
        {
          "internalType": "uint256",
          "name": "startTime",
          "type": "uint256"
        },
        {
          "internalType": "uint256",
          "name": "endTime",
          "type": "uint256"
        },
        {
          "internalType": "uint256",
          "name": "yesVotes",
          "type": "uint256"
        },
        {
          "internalType": "uint256",
          "name": "noVotes",
          "type": "uint256"
        },
        {
          "internalType": "bool",
          "name": "executed",
          "type": "bool"
        }
      ],
      "stateMutability": "view",
      "type": "function"
    },
    {
      "inputs": [],
      "name": "renounceOwnership",
      "outputs": [],
      "stateMutability": "nonpayable",
      "type": "function"
    },
    {
      "inputs": [],
      "name": "reward",
      "outputs": [
        {
          "internalType": "uint256",
          "name": "",
          "type": "uint256"
        }
      ],
      "stateMutability": "view",
      "type": "function"
    },
    {
      "inputs": [
        {
          "internalType": "address",
          "name": "_addr",
          "type": "address"
        }
      ],
      "name": "rewardRateInSeconds",
      "outputs": [
        {
          "internalType": "uint256",
          "name": "",
          "type": "uint256"
        }
      ],
      "stateMutability": "view",
      "type": "function"
    },
    {
      "inputs": [
        {
          "internalType": "address",
          "name": "_addr",
          "type": "address"
        }
      ],
      "name": "rewardedTokens",
      "outputs": [
        {
          "internalType": "uint256",
          "name": "",
          "type": "uint256"
        }
      ],
      "stateMutability": "view",
      "type": "function"
    },
    {
      "inputs": [
        {
          "internalType": "uint256",
          "name": "_persontage",
          "type": "uint256"
        }
      ],
      "name": "setAnnualRewardPersontage",
      "outputs": [],
      "stateMutability": "nonpayable",
      "type": "function"
    },
    {
      "inputs": [
        {
          "internalType": "uint256",
          "name": "_tokens",
          "type": "uint256"
        },
        {
          "internalType": "uint256",
          "name": "_duration",
          "type": "uint256"
        }
      ],
      "name": "stakeTokens",
      "outputs": [],
      "stateMutability": "nonpayable",
      "type": "function"
    },
    {
      "inputs": [
        {
          "internalType": "address",
          "name": "",
          "type": "address"
        }
      ],
      "name": "stakingInfo",
      "outputs": [
        {
          "internalType": "uint256",
          "name": "stakedTokens",
          "type": "uint256"
        },
        {
          "internalType": "uint256",
          "name": "startTime",
          "type": "uint256"
        },
        {
          "internalType": "uint256",
          "name": "duration",
          "type": "uint256"
        },
        {
          "internalType": "uint256",
          "name": "rewardEarned",
          "type": "uint256"
        }
      ],
      "stateMutability": "view",
      "type": "function"
    },
    {
      "inputs": [
        {
          "internalType": "string",
          "name": "_description",
          "type": "string"
        }
      ],
      "name": "submitProposal",
      "outputs": [],
      "stateMutability": "nonpayable",
      "type": "function"
    },
    {
      "inputs": [],
      "name": "tokenForVote",
      "outputs": [
        {
          "internalType": "uint256",
          "name": "",
          "type": "uint256"
        }
      ],
      "stateMutability": "view",
      "type": "function"
    },
    {
      "inputs": [],
      "name": "totalInvesters",
      "outputs": [
        {
          "internalType": "uint256",
          "name": "",
          "type": "uint256"
        }
      ],
      "stateMutability": "view",
      "type": "function"
    },
    {
      "inputs": [],
      "name": "totalStakedTokens",
      "outputs": [
        {
          "internalType": "uint256",
          "name": "",
          "type": "uint256"
        }
      ],
      "stateMutability": "view",
      "type": "function"
    },
    {
      "inputs": [
        {
          "internalType": "address",
          "name": "newOwner",
          "type": "address"
        }
      ],
      "name": "transferOwnership",
      "outputs": [],
      "stateMutability": "nonpayable",
      "type": "function"
    },
    {
      "inputs": [],
      "name": "unstakeTokensRequest",
      "outputs": [],
      "stateMutability": "nonpayable",
      "type": "function"
    },
    {
      "inputs": [
        {
          "internalType": "uint256",
          "name": "_proposalId",
          "type": "uint256"
        },
        {
          "internalType": "bool",
          "name": "_supportsProposal",
          "type": "bool"
        }
      ],
      "name": "vote",
      "outputs": [],
      "stateMutability": "nonpayable",
      "type": "function"
    },
    {
      "inputs": [
        {
          "internalType": "uint256",
          "name": "_amount",
          "type": "uint256"
        }
      ],
      "name": "withdrawTokens",
      "outputs": [],
      "stateMutability": "nonpayable",
      "type": "function"
    }
  ],
  "bytecode": "0x60806040523480156200001157600080fd5b506040516200347e3803806200347e833981810160405281019062000037919062000253565b33600073ffffffffffffffffffffffffffffffffffffffff168173ffffffffffffffffffffffffffffffffffffffff1603620000ad5760006040517f1e4fbdf7000000000000000000000000000000000000000000000000000000008152600401620000a4919062000296565b60405180910390fd5b620000be816200012560201b60201c565b506001808190555080600760006101000a81548173ffffffffffffffffffffffffffffffffffffffff021916908373ffffffffffffffffffffffffffffffffffffffff160217905550600a600581905550670de0b6b3a764000060068190555050620002b3565b60008060009054906101000a900473ffffffffffffffffffffffffffffffffffffffff169050816000806101000a81548173ffffffffffffffffffffffffffffffffffffffff021916908373ffffffffffffffffffffffffffffffffffffffff1602179055508173ffffffffffffffffffffffffffffffffffffffff168173ffffffffffffffffffffffffffffffffffffffff167f8be0079c531659141344cd1fd0a4f28419497f9722a3daafe3b4186f6b6457e060405160405180910390a35050565b600080fd5b600073ffffffffffffffffffffffffffffffffffffffff82169050919050565b60006200021b82620001ee565b9050919050565b6200022d816200020e565b81146200023957600080fd5b50565b6000815190506200024d8162000222565b92915050565b6000602082840312156200026c576200026b620001e9565b5b60006200027c848285016200023c565b91505092915050565b62000290816200020e565b82525050565b6000602082019050620002ad600083018462000285565b92915050565b6131bb80620002c36000396000f3fe608060405234801561001057600080fd5b50600436106101cf5760003560e01c8063744cc76d11610104578063af0afec9116100a2578063d2e9bb2411610071578063d2e9bb2414610523578063da35c6641461053f578063f2fde38b1461055d578063f60cd3d814610579576101cf565b8063af0afec9146104c3578063c9cda91f146104e1578063c9d27afe146104fd578063cadc40c014610519576101cf565b806389354385116100de57806389354385146104385780638da5cb5b146104565780638f67fc061461047457806394eecb5014610490576101cf565b8063744cc76d146103a8578063771bc1e2146103d8578063863f823714610408576101cf565b8063373d6d5e116101715780633f467d141161014b5780633f467d14146103225780634027c1301461035257806359df0d0914610382578063715018a61461039e576101cf565b8063373d6d5e146102cc5780633ae73259146102e85780633b7b618814610306576101cf565b80630d61b519116101ad5780630d61b51914610246578063228cb73314610262578063315a095d146102805780633611185c1461029c576101cf565b8063013cf08b146101d457806305a147141461020a5780630a10f76714610228575b600080fd5b6101ee60048036038101906101e99190611f6d565b610597565b6040516102019796959493929190612095565b60405180910390f35b61021261068e565b60405161021f91906121c9565b60405180910390f35b61023061071c565b60405161023d91906121c9565b60405180910390f35b610260600480360381019061025b9190611f6d565b6107aa565b005b61026a61088c565b60405161027791906121eb565b60405180910390f35b61029a60048036038101906102959190611f6d565b610892565b005b6102b660048036038101906102b19190611f6d565b610945565b6040516102c39190612206565b60405180910390f35b6102e660048036038101906102e19190612356565b610984565b005b6102f0610a8f565b6040516102fd91906121eb565b60405180910390f35b610320600480360381019061031b919061239f565b610a95565b005b61033c6004803603810190610337919061240b565b610e63565b60405161034991906121eb565b60405180910390f35b61036c6004803603810190610367919061240b565b610ed7565b60405161037991906121eb565b60405180910390f35b61039c60048036038101906103979190612500565b610eef565b005b6103a661129d565b005b6103c260048036038101906103bd919061240b565b6112b1565b6040516103cf9190612549565b60405180910390f35b6103f260048036038101906103ed919061240b565b6112d1565b6040516103ff91906121eb565b60405180910390f35b610422600480360381019061041d9190611f6d565b61137f565b60405161042f9190612206565b60405180910390f35b6104406113be565b60405161044d91906121eb565b60405180910390f35b61045e6113c4565b60405161046b9190612206565b60405180910390f35b61048e60048036038101906104899190611f6d565b6113ed565b005b6104aa60048036038101906104a5919061240b565b6113ff565b6040516104ba9493929190612564565b60405180910390f35b6104cb61142f565b6040516104d891906121eb565b60405180910390f35b6104fb60048036038101906104f6919061240b565b611435565b005b610517600480360381019061051291906125d5565b6114f0565b005b610521611752565b005b61053d60048036038101906105389190611f6d565b611c06565b005b610547611c18565b60405161055491906121eb565b60405180910390f35b6105776004803603810190610572919061240b565b611c1e565b005b610581611ca4565b60405161058e9190612674565b60405180910390f35b600b6020528060005260406000206000915090508060000160009054906101000a900473ffffffffffffffffffffffffffffffffffffffff16908060010180546105e0906126be565b80601f016020809104026020016040519081016040528092919081815260200182805461060c906126be565b80156106595780601f1061062e57610100808354040283529160200191610659565b820191906000526020600020905b81548152906001019060200180831161063c57829003601f168201915b5050505050908060020154908060030154908060050154908060060154908060070160009054906101000a900460ff16905087565b6060600980548060200260200160405190810160405280929190818152602001828054801561071257602002820191906000526020600020905b8160009054906101000a900473ffffffffffffffffffffffffffffffffffffffff1673ffffffffffffffffffffffffffffffffffffffff16815260200190600101908083116106c8575b5050505050905090565b606060088054806020026020016040519081016040528092919081815260200182805480156107a057602002820191906000526020600020905b8160009054906101000a900473ffffffffffffffffffffffffffffffffffffffff1673ffffffffffffffffffffffffffffffffffffffff1681526020019060010190808311610756575b5050505050905090565b6000600b600083815260200190815260200160002090508060030154421015610808576040517f08c379a00000000000000000000000000000000000000000000000000000000081526004016107ff9061273b565b60405180910390fd5b8060070160009054906101000a900460ff161561085a576040517f08c379a0000000000000000000000000000000000000000000000000000000008152600401610851906127a7565b60405180910390fd5b8060060154816005015411156108885760018160070160006101000a81548160ff0219169083151502179055505b5050565b60055481565b61089a611cca565b600760009054906101000a900473ffffffffffffffffffffffffffffffffffffffff1673ffffffffffffffffffffffffffffffffffffffff1663a9059cbb6108e06113c4565b836040518363ffffffff1660e01b81526004016108fe9291906127c7565b6020604051808303816000875af115801561091d573d6000803e3d6000fd5b505050506040513d601f19601f820116820180604052508101906109419190612805565b5050565b6009818154811061095557600080fd5b906000526020600020016000915054906101000a900473ffffffffffffffffffffffffffffffffffffffff1681565b60008151116109c8576040517f08c379a00000000000000000000000000000000000000000000000000000000081526004016109bf9061287e565b60405180910390fd5b600260008154809291906109db906128cd565b91905055506000600b600060025481526020019081526020016000209050338160000160006101000a81548173ffffffffffffffffffffffffffffffffffffffff021916908373ffffffffffffffffffffffffffffffffffffffff16021790555081816001019081610a4d9190612ab7565b5042816002018190555062278d0042610a669190612b89565b816003018190555060008160070160006101000a81548160ff0219169083151502179055505050565b60035481565b610a9d611d51565b60008211610ae0576040517f08c379a0000000000000000000000000000000000000000000000000000000008152600401610ad790612c09565b60405180910390fd5b6275558042610aef9190612b89565b8111610b30576040517f08c379a0000000000000000000000000000000000000000000000000000000008152600401610b2790612c9b565b60405180910390fd5b81600760009054906101000a900473ffffffffffffffffffffffffffffffffffffffff1673ffffffffffffffffffffffffffffffffffffffff166370a08231336040518263ffffffff1660e01b8152600401610b8c9190612206565b602060405180830381865afa158015610ba9573d6000803e3d6000fd5b505050506040513d601f19601f82011682018060405250810190610bcd9190612cd0565b1015610c05576040517ff4d678b800000000000000000000000000000000000000000000000000000000815260040160405180910390fd5b6000600a60003373ffffffffffffffffffffffffffffffffffffffff1673ffffffffffffffffffffffffffffffffffffffff1681526020019081526020016000209050600760009054906101000a900473ffffffffffffffffffffffffffffffffffffffff1673ffffffffffffffffffffffffffffffffffffffff166323b872dd3330866040518463ffffffff1660e01b8152600401610ca793929190612cfd565b6020604051808303816000875af1158015610cc6573d6000803e3d6000fd5b505050506040513d601f19601f82011682018060405250810190610cea9190612805565b5082816000016000828254610cff9190612b89565b92505081905550818160020181905550428160010181905550600d60003373ffffffffffffffffffffffffffffffffffffffff1673ffffffffffffffffffffffffffffffffffffffff16815260200190815260200160002060009054906101000a900460ff16610e3d576009339080600181540180825580915050600190039060005260206000200160009091909190916101000a81548173ffffffffffffffffffffffffffffffffffffffff021916908373ffffffffffffffffffffffffffffffffffffffff1602179055506001600d60003373ffffffffffffffffffffffffffffffffffffffff1673ffffffffffffffffffffffffffffffffffffffff16815260200190815260200160002060006101000a81548160ff02191690831515021790555060046000815480929190610e37906128cd565b91905055505b8260036000828254610e4f9190612b89565b9250508190555050610e5f611da0565b5050565b60006301e133806064600554600a60008673ffffffffffffffffffffffffffffffffffffffff1673ffffffffffffffffffffffffffffffffffffffff16815260200190815260200160002060000154610ebc9190612d34565b610ec69190612da5565b610ed09190612da5565b9050919050565b600c6020528060005260406000206000915090505481565b610ef7611cca565b60005b8151811015611299576000828281518110610f1857610f17612dd6565b5b60200260200101519050600073ffffffffffffffffffffffffffffffffffffffff168173ffffffffffffffffffffffffffffffffffffffff1603610f91576040517f08c379a0000000000000000000000000000000000000000000000000000000008152600401610f8890612e51565b60405180910390fd5b6000600c60008373ffffffffffffffffffffffffffffffffffffffff1673ffffffffffffffffffffffffffffffffffffffff1681526020019081526020016000205490506000600c60008473ffffffffffffffffffffffffffffffffffffffff1673ffffffffffffffffffffffffffffffffffffffff1681526020019081526020016000208190555060006008905060005b81805490508110156111a6578373ffffffffffffffffffffffffffffffffffffffff1682828154811061105957611058612dd6565b5b9060005260206000200160009054906101000a900473ffffffffffffffffffffffffffffffffffffffff1673ffffffffffffffffffffffffffffffffffffffff16036111935781600183805490506110b19190612e71565b815481106110c2576110c1612dd6565b5b9060005260206000200160009054906101000a900473ffffffffffffffffffffffffffffffffffffffff16828281548110611100576110ff612dd6565b5b9060005260206000200160006101000a81548173ffffffffffffffffffffffffffffffffffffffff021916908373ffffffffffffffffffffffffffffffffffffffff1602179055508180548061115957611158612ea5565b5b6001900381819060005260206000200160006101000a81549073ffffffffffffffffffffffffffffffffffffffff021916905590556111a6565b808061119e906128cd565b915050611023565b50600760009054906101000a900473ffffffffffffffffffffffffffffffffffffffff1673ffffffffffffffffffffffffffffffffffffffff166323b872dd3385856040518463ffffffff1660e01b815260040161120693929190612cfd565b6020604051808303816000875af1158015611225573d6000803e3d6000fd5b505050506040513d601f19601f820116820180604052508101906112499190612805565b507f7084f5476618d8e60b11ef0d7d3f06914655adb8793e28ff7f018d4c76d505d5838360405161127b9291906127c7565b60405180910390a15050508080611291906128cd565b915050610efa565b5050565b6112a5611cca565b6112af6000611da9565b565b600d6020528060005260406000206000915054906101000a900460ff1681565b600080600a60008473ffffffffffffffffffffffffffffffffffffffff1673ffffffffffffffffffffffffffffffffffffffff1681526020019081526020016000206040518060800160405290816000820154815260200160018201548152602001600282015481526020016003820154815250509050600081602001514261135a9190612e71565b905060008161136886610e63565b6113729190612d34565b9050809350505050919050565b6008818154811061138f57600080fd5b906000526020600020016000915054906101000a900473ffffffffffffffffffffffffffffffffffffffff1681565b60065481565b60008060009054906101000a900473ffffffffffffffffffffffffffffffffffffffff16905090565b6113f5611cca565b8060058190555050565b600a6020528060005260406000206000915090508060000154908060010154908060020154908060030154905084565b60045481565b61143d611cca565b8073ffffffffffffffffffffffffffffffffffffffff16600073ffffffffffffffffffffffffffffffffffffffff16036114ac576040517f08c379a00000000000000000000000000000000000000000000000000000000081526004016114a390612f20565b60405180910390fd5b80600760006101000a81548173ffffffffffffffffffffffffffffffffffffffff021916908373ffffffffffffffffffffffffffffffffffffffff16021790555050565b6000600b600084815260200190815260200160002090508060030154421061154d576040517f08c379a000000000000000000000000000000000000000000000000000000000815260040161154490612f8c565b60405180910390fd5b8060040160003373ffffffffffffffffffffffffffffffffffffffff1673ffffffffffffffffffffffffffffffffffffffff16815260200190815260200160002060009054906101000a900460ff16156115dc576040517f08c379a00000000000000000000000000000000000000000000000000000000081526004016115d390612ff8565b60405180910390fd5b600654600760009054906101000a900473ffffffffffffffffffffffffffffffffffffffff1673ffffffffffffffffffffffffffffffffffffffff166370a08231336040518263ffffffff1660e01b815260040161163a9190612206565b602060405180830381865afa158015611657573d6000803e3d6000fd5b505050506040513d601f19601f8201168201806040525081019061167b9190612cd0565b10156116b3576040517ff4d678b800000000000000000000000000000000000000000000000000000000815260040160405180910390fd5b81156116d8578060050160008154809291906116ce906128cd565b91905055506116f3565b8060060160008154809291906116ed906128cd565b91905055505b60018160040160003373ffffffffffffffffffffffffffffffffffffffff1673ffffffffffffffffffffffffffffffffffffffff16815260200190815260200160002060006101000a81548160ff021916908315150217905550505050565b61175a611d51565b6000600a60003373ffffffffffffffffffffffffffffffffffffffff1673ffffffffffffffffffffffffffffffffffffffff168152602001908152602001600020905060008160000154116117e4576040517f08c379a00000000000000000000000000000000000000000000000000000000081526004016117db90613064565b60405180910390fd5b8060020154421161182a576040517f08c379a0000000000000000000000000000000000000000000000000000000008152600401611821906130d0565b60405180910390fd5b600081600001549050600061183e336112d1565b9050600d60003373ffffffffffffffffffffffffffffffffffffffff1673ffffffffffffffffffffffffffffffffffffffff16815260200190815260200160002060009054906101000a900460ff1615611a79576000600d60003373ffffffffffffffffffffffffffffffffffffffff1673ffffffffffffffffffffffffffffffffffffffff16815260200190815260200160002060006101000a81548160ff02191690831515021790555060006009905060005b8180549050811015611a76573373ffffffffffffffffffffffffffffffffffffffff1682828154811061192957611928612dd6565b5b9060005260206000200160009054906101000a900473ffffffffffffffffffffffffffffffffffffffff1673ffffffffffffffffffffffffffffffffffffffff1603611a635781600183805490506119819190612e71565b8154811061199257611991612dd6565b5b9060005260206000200160009054906101000a900473ffffffffffffffffffffffffffffffffffffffff168282815481106119d0576119cf612dd6565b5b9060005260206000200160006101000a81548173ffffffffffffffffffffffffffffffffffffffff021916908373ffffffffffffffffffffffffffffffffffffffff16021790555081805480611a2957611a28612ea5565b5b6001900381819060005260206000200160006101000a81549073ffffffffffffffffffffffffffffffffffffffff02191690559055611a76565b8080611a6e906128cd565b9150506118f3565b50505b6000836000018190555080836003016000828254611a979190612b89565b9250508190555060008360010181905550600083600201819055508160036000828254611ac49190612e71565b9250508190555060046000815480929190611ade906130f0565b91905055508181611aef9190612b89565b600c60003373ffffffffffffffffffffffffffffffffffffffff1673ffffffffffffffffffffffffffffffffffffffff1681526020019081526020016000206000828254611b3d9190612b89565b92505081905550611b4d33611e6d565b611bb5576008339080600181540180825580915050600190039060005260206000200160009091909190916101000a81548173ffffffffffffffffffffffffffffffffffffffff021916908373ffffffffffffffffffffffffffffffffffffffff1602179055505b7fdfe44fde29c34c5f5612770bb6073e39390fba69929d84879afd0e475e5eca68338383611be39190612b89565b604051611bf19291906127c7565b60405180910390a1505050611c04611da0565b565b611c0e611cca565b8060068190555050565b60025481565b611c26611cca565b600073ffffffffffffffffffffffffffffffffffffffff168173ffffffffffffffffffffffffffffffffffffffff1603611c985760006040517f1e4fbdf7000000000000000000000000000000000000000000000000000000008152600401611c8f9190612206565b60405180910390fd5b611ca181611da9565b50565b600760009054906101000a900473ffffffffffffffffffffffffffffffffffffffff1681565b611cd2611f1b565b73ffffffffffffffffffffffffffffffffffffffff16611cf06113c4565b73ffffffffffffffffffffffffffffffffffffffff1614611d4f57611d13611f1b565b6040517f118cdaa7000000000000000000000000000000000000000000000000000000008152600401611d469190612206565b60405180910390fd5b565b600260015403611d96576040517f08c379a0000000000000000000000000000000000000000000000000000000008152600401611d8d90613165565b60405180910390fd5b6002600181905550565b60018081905550565b60008060009054906101000a900473ffffffffffffffffffffffffffffffffffffffff169050816000806101000a81548173ffffffffffffffffffffffffffffffffffffffff021916908373ffffffffffffffffffffffffffffffffffffffff1602179055508173ffffffffffffffffffffffffffffffffffffffff168173ffffffffffffffffffffffffffffffffffffffff167f8be0079c531659141344cd1fd0a4f28419497f9722a3daafe3b4186f6b6457e060405160405180910390a35050565b600080600090505b600880549050811015611f10578273ffffffffffffffffffffffffffffffffffffffff1660088281548110611ead57611eac612dd6565b5b9060005260206000200160009054906101000a900473ffffffffffffffffffffffffffffffffffffffff1673ffffffffffffffffffffffffffffffffffffffff1603611efd576001915050611f16565b8080611f08906128cd565b915050611e75565b50600090505b919050565b600033905090565b6000604051905090565b600080fd5b600080fd5b6000819050919050565b611f4a81611f37565b8114611f5557600080fd5b50565b600081359050611f6781611f41565b92915050565b600060208284031215611f8357611f82611f2d565b5b6000611f9184828501611f58565b91505092915050565b600073ffffffffffffffffffffffffffffffffffffffff82169050919050565b6000611fc582611f9a565b9050919050565b611fd581611fba565b82525050565b600081519050919050565b600082825260208201905092915050565b60005b83811015612015578082015181840152602081019050611ffa565b60008484015250505050565b6000601f19601f8301169050919050565b600061203d82611fdb565b6120478185611fe6565b9350612057818560208601611ff7565b61206081612021565b840191505092915050565b61207481611f37565b82525050565b60008115159050919050565b61208f8161207a565b82525050565b600060e0820190506120aa600083018a611fcc565b81810360208301526120bc8189612032565b90506120cb604083018861206b565b6120d8606083018761206b565b6120e5608083018661206b565b6120f260a083018561206b565b6120ff60c0830184612086565b98975050505050505050565b600081519050919050565b600082825260208201905092915050565b6000819050602082019050919050565b61214081611fba565b82525050565b60006121528383612137565b60208301905092915050565b6000602082019050919050565b60006121768261210b565b6121808185612116565b935061218b83612127565b8060005b838110156121bc5781516121a38882612146565b97506121ae8361215e565b92505060018101905061218f565b5085935050505092915050565b600060208201905081810360008301526121e3818461216b565b905092915050565b6000602082019050612200600083018461206b565b92915050565b600060208201905061221b6000830184611fcc565b92915050565b600080fd5b600080fd5b7f4e487b7100000000000000000000000000000000000000000000000000000000600052604160045260246000fd5b61226382612021565b810181811067ffffffffffffffff821117156122825761228161222b565b5b80604052505050565b6000612295611f23565b90506122a1828261225a565b919050565b600067ffffffffffffffff8211156122c1576122c061222b565b5b6122ca82612021565b9050602081019050919050565b82818337600083830152505050565b60006122f96122f4846122a6565b61228b565b90508281526020810184848401111561231557612314612226565b5b6123208482856122d7565b509392505050565b600082601f83011261233d5761233c612221565b5b813561234d8482602086016122e6565b91505092915050565b60006020828403121561236c5761236b611f2d565b5b600082013567ffffffffffffffff81111561238a57612389611f32565b5b61239684828501612328565b91505092915050565b600080604083850312156123b6576123b5611f2d565b5b60006123c485828601611f58565b92505060206123d585828601611f58565b9150509250929050565b6123e881611fba565b81146123f357600080fd5b50565b600081359050612405816123df565b92915050565b60006020828403121561242157612420611f2d565b5b600061242f848285016123f6565b91505092915050565b600067ffffffffffffffff8211156124535761245261222b565b5b602082029050602081019050919050565b600080fd5b600061247c61247784612438565b61228b565b9050808382526020820190506020840283018581111561249f5761249e612464565b5b835b818110156124c857806124b488826123f6565b8452602084019350506020810190506124a1565b5050509392505050565b600082601f8301126124e7576124e6612221565b5b81356124f7848260208601612469565b91505092915050565b60006020828403121561251657612515611f2d565b5b600082013567ffffffffffffffff81111561253457612533611f32565b5b612540848285016124d2565b91505092915050565b600060208201905061255e6000830184612086565b92915050565b6000608082019050612579600083018761206b565b612586602083018661206b565b612593604083018561206b565b6125a0606083018461206b565b95945050505050565b6125b28161207a565b81146125bd57600080fd5b50565b6000813590506125cf816125a9565b92915050565b600080604083850312156125ec576125eb611f2d565b5b60006125fa85828601611f58565b925050602061260b858286016125c0565b9150509250929050565b6000819050919050565b600061263a61263561263084611f9a565b612615565b611f9a565b9050919050565b600061264c8261261f565b9050919050565b600061265e82612641565b9050919050565b61266e81612653565b82525050565b60006020820190506126896000830184612665565b92915050565b7f4e487b7100000000000000000000000000000000000000000000000000000000600052602260045260246000fd5b600060028204905060018216806126d657607f821691505b6020821081036126e9576126e861268f565b5b50919050565b7f566f74696e6720706572696f64206e6f7420656e646564000000000000000000600082015250565b6000612725601783611fe6565b9150612730826126ef565b602082019050919050565b6000602082019050818103600083015261275481612718565b9050919050565b7f50726f706f73616c20616c726561647920657865637574656400000000000000600082015250565b6000612791601983611fe6565b915061279c8261275b565b602082019050919050565b600060208201905081810360008301526127c081612784565b9050919050565b60006040820190506127dc6000830185611fcc565b6127e9602083018461206b565b9392505050565b6000815190506127ff816125a9565b92915050565b60006020828403121561281b5761281a611f2d565b5b6000612829848285016127f0565b91505092915050565b7f4465736372697074696f6e206d757374206e6f7420626520656d707479000000600082015250565b6000612868601d83611fe6565b915061287382612832565b602082019050919050565b600060208201905081810360008301526128978161285b565b9050919050565b7f4e487b7100000000000000000000000000000000000000000000000000000000600052601160045260246000fd5b60006128d882611f37565b91507fffffffffffffffffffffffffffffffffffffffffffffffffffffffffffffffff820361290a5761290961289e565b5b600182019050919050565b60008190508160005260206000209050919050565b60006020601f8301049050919050565b600082821b905092915050565b6000600883026129777fffffffffffffffffffffffffffffffffffffffffffffffffffffffffffffffff8261293a565b612981868361293a565b95508019841693508086168417925050509392505050565b60006129b46129af6129aa84611f37565b612615565b611f37565b9050919050565b6000819050919050565b6129ce83612999565b6129e26129da826129bb565b848454612947565b825550505050565b600090565b6129f76129ea565b612a028184846129c5565b505050565b5b81811015612a2657612a1b6000826129ef565b600181019050612a08565b5050565b601f821115612a6b57612a3c81612915565b612a458461292a565b81016020851015612a54578190505b612a68612a608561292a565b830182612a07565b50505b505050565b600082821c905092915050565b6000612a8e60001984600802612a70565b1980831691505092915050565b6000612aa78383612a7d565b9150826002028217905092915050565b612ac082611fdb565b67ffffffffffffffff811115612ad957612ad861222b565b5b612ae382546126be565b612aee828285612a2a565b600060209050601f831160018114612b215760008415612b0f578287015190505b612b198582612a9b565b865550612b81565b601f198416612b2f86612915565b60005b82811015612b5757848901518255600182019150602085019450602081019050612b32565b86831015612b745784890151612b70601f891682612a7d565b8355505b6001600288020188555050505b505050505050565b6000612b9482611f37565b9150612b9f83611f37565b9250828201905080821115612bb757612bb661289e565b5b92915050565b7f416d6f756e742063616e6e6f7420626520300000000000000000000000000000600082015250565b6000612bf3601283611fe6565b9150612bfe82612bbd565b602082019050919050565b60006020820190508181036000830152612c2281612be6565b9050919050565b7f706c6561736520616464206d6f7265207468656e20393020646179732064757260008201527f6174696f6e000000000000000000000000000000000000000000000000000000602082015250565b6000612c85602583611fe6565b9150612c9082612c29565b604082019050919050565b60006020820190508181036000830152612cb481612c78565b9050919050565b600081519050612cca81611f41565b92915050565b600060208284031215612ce657612ce5611f2d565b5b6000612cf484828501612cbb565b91505092915050565b6000606082019050612d126000830186611fcc565b612d1f6020830185611fcc565b612d2c604083018461206b565b949350505050565b6000612d3f82611f37565b9150612d4a83611f37565b9250828202612d5881611f37565b91508282048414831517612d6f57612d6e61289e565b5b5092915050565b7f4e487b7100000000000000000000000000000000000000000000000000000000600052601260045260246000fd5b6000612db082611f37565b9150612dbb83611f37565b925082612dcb57612dca612d76565b5b828204905092915050565b7f4e487b7100000000000000000000000000000000000000000000000000000000600052603260045260246000fd5b7f496e76616c696420616464726573730000000000000000000000000000000000600082015250565b6000612e3b600f83611fe6565b9150612e4682612e05565b602082019050919050565b60006020820190508181036000830152612e6a81612e2e565b9050919050565b6000612e7c82611f37565b9150612e8783611f37565b9250828203905081811115612e9f57612e9e61289e565b5b92915050565b7f4e487b7100000000000000000000000000000000000000000000000000000000600052603160045260246000fd5b7f5a65726f20416464726573730000000000000000000000000000000000000000600082015250565b6000612f0a600c83611fe6565b9150612f1582612ed4565b602082019050919050565b60006020820190508181036000830152612f3981612efd565b9050919050565b7f566f74696e6720706572696f6420656e64656400000000000000000000000000600082015250565b6000612f76601383611fe6565b9150612f8182612f40565b602082019050919050565b60006020820190508181036000830152612fa581612f69565b9050919050565b7f416c726561647920766f74656400000000000000000000000000000000000000600082015250565b6000612fe2600d83611fe6565b9150612fed82612fac565b602082019050919050565b6000602082019050818103600083015261301181612fd5565b9050919050565b7f616c726561647920776974686461727720746f6b656e73000000000000000000600082015250565b600061304e601783611fe6565b915061305982613018565b602082019050919050565b6000602082019050818103600083015261307d81613041565b9050919050565b7f7761697420666f7220756e7374616b652074696d650000000000000000000000600082015250565b60006130ba601583611fe6565b91506130c582613084565b602082019050919050565b600060208201905081810360008301526130e9816130ad565b9050919050565b60006130fb82611f37565b91506000820361310e5761310d61289e565b5b600182039050919050565b7f5265656e7472616e637947756172643a207265656e7472616e742063616c6c00600082015250565b600061314f601f83611fe6565b915061315a82613119565b602082019050919050565b6000602082019050818103600083015261317e81613142565b905091905056fea264697066735822122073338a4af1b33102ec814b0b78bce058e4e3c50a84b064682e8228c4155d331764736f6c63430008140033",
  "linkReferences": {},
  "deployedLinkReferences": {}
}