{
  "_format": "hh-sol-artifact-1",
  "contractName": "LnbgLondonCoinStakingContract",
  "sourceName": "contracts/LnbgLondonCoinStakingContract.sol",
  "abi": [
    {
      "inputs": [
        {
          "internalType": "address",
          "name": "_creedToken",
          "type": "address"
        },
        {
          "internalType": "address",
          "name": "_usdtToken",
          "type": "address"
        },
        {
          "internalType": "address",
          "name": "_usdcToken",
          "type": "address"
        }
      ],
      "stateMutability": "nonpayable",
      "type": "constructor"
    },
    {
      "anonymous": false,
      "inputs": [
        {
          "indexed": true,
          "internalType": "address",
          "name": "previousOwner",
          "type": "address"
        },
        {
          "indexed": true,
          "internalType": "address",
          "name": "newOwner",
          "type": "address"
        }
      ],
      "name": "OwnershipTransferred",
      "type": "event"
    },
    {
      "anonymous": false,
      "inputs": [
        {
          "indexed": true,
          "internalType": "address",
          "name": "by",
          "type": "address"
        },
        {
          "indexed": false,
          "internalType": "uint256",
          "name": "amount",
          "type": "uint256"
        },
        {
          "indexed": false,
          "internalType": "address",
          "name": "token",
          "type": "address"
        }
      ],
      "name": "Staked",
      "type": "event"
    },
    {
      "anonymous": false,
      "inputs": [
        {
          "indexed": true,
          "internalType": "address",
          "name": "by",
          "type": "address"
        },
        {
          "indexed": false,
          "internalType": "uint256",
          "name": "amount",
          "type": "uint256"
        },
        {
          "indexed": false,
          "internalType": "address",
          "name": "token",
          "type": "address"
        }
      ],
      "name": "Withdrawn",
      "type": "event"
    },
    {
      "inputs": [
        {
          "internalType": "address",
          "name": "_creedToken",
          "type": "address"
        },
        {
          "internalType": "address",
          "name": "_usdtToken",
          "type": "address"
        },
        {
          "internalType": "address",
          "name": "_usdcToken",
          "type": "address"
        }
      ],
      "name": "changeTokenAddress",
      "outputs": [],
      "stateMutability": "nonpayable",
      "type": "function"
    },
    {
      "inputs": [
        {
          "internalType": "address",
          "name": "",
          "type": "address"
        }
      ],
      "name": "claimedRewards",
      "outputs": [
        {
          "internalType": "uint256",
          "name": "",
          "type": "uint256"
        }
      ],
      "stateMutability": "view",
      "type": "function"
    },
    {
      "inputs": [],
      "name": "creedToken",
      "outputs": [
        {
          "internalType": "contract IERC20",
          "name": "",
          "type": "address"
        }
      ],
      "stateMutability": "view",
      "type": "function"
    },
    {
      "inputs": [],
      "name": "getAllInvestors",
      "outputs": [
        {
          "internalType": "address[]",
          "name": "",
          "type": "address[]"
        }
      ],
      "stateMutability": "view",
      "type": "function"
    },
    {
      "inputs": [],
      "name": "getAllUsersClaimedTokens",
      "outputs": [
        {
          "internalType": "uint256[]",
          "name": "",
          "type": "uint256[]"
        }
      ],
      "stateMutability": "view",
      "type": "function"
    },
    {
      "inputs": [],
      "name": "getAllUsersEarnedTokens",
      "outputs": [
        {
          "internalType": "uint256[]",
          "name": "",
          "type": "uint256[]"
        }
      ],
      "stateMutability": "view",
      "type": "function"
    },
    {
      "inputs": [
        {
          "internalType": "address",
          "name": "_userAddress",
          "type": "address"
        }
      ],
      "name": "getUserStakesLength",
      "outputs": [
        {
          "internalType": "uint256",
          "name": "",
          "type": "uint256"
        }
      ],
      "stateMutability": "view",
      "type": "function"
    },
    {
      "inputs": [
        {
          "internalType": "address",
          "name": "",
          "type": "address"
        }
      ],
      "name": "investor",
      "outputs": [
        {
          "internalType": "bool",
          "name": "",
          "type": "bool"
        }
      ],
      "stateMutability": "view",
      "type": "function"
    },
    {
      "inputs": [
        {
          "internalType": "uint256",
          "name": "",
          "type": "uint256"
        }
      ],
      "name": "investorAddresses",
      "outputs": [
        {
          "internalType": "address",
          "name": "",
          "type": "address"
        }
      ],
      "stateMutability": "view",
      "type": "function"
    },
    {
      "inputs": [],
      "name": "owner",
      "outputs": [
        {
          "internalType": "address",
          "name": "",
          "type": "address"
        }
      ],
      "stateMutability": "view",
      "type": "function"
    },
    {
      "inputs": [],
      "name": "renounceOwnership",
      "outputs": [],
      "stateMutability": "nonpayable",
      "type": "function"
    },
    {
      "inputs": [],
      "name": "reward",
      "outputs": [
        {
          "internalType": "uint256",
          "name": "",
          "type": "uint256"
        }
      ],
      "stateMutability": "view",
      "type": "function"
    },
    {
      "inputs": [
        {
          "internalType": "address",
          "name": "_addr",
          "type": "address"
        },
        {
          "internalType": "uint256",
          "name": "_index",
          "type": "uint256"
        }
      ],
      "name": "rewardRateInSeconds",
      "outputs": [
        {
          "internalType": "uint256",
          "name": "",
          "type": "uint256"
        }
      ],
      "stateMutability": "view",
      "type": "function"
    },
    {
      "inputs": [
        {
          "internalType": "address",
          "name": "_addr",
          "type": "address"
        },
        {
          "internalType": "uint256",
          "name": "_index",
          "type": "uint256"
        }
      ],
      "name": "rewardedTokens",
      "outputs": [
        {
          "internalType": "uint256",
          "name": "",
          "type": "uint256"
        }
      ],
      "stateMutability": "view",
      "type": "function"
    },
    {
      "inputs": [
        {
          "internalType": "uint256",
          "name": "_percentage",
          "type": "uint256"
        }
      ],
      "name": "setAnnualRewardPercentage",
      "outputs": [],
      "stateMutability": "nonpayable",
      "type": "function"
    },
    {
      "inputs": [
        {
          "internalType": "uint256",
          "name": "_tokens",
          "type": "uint256"
        },
        {
          "internalType": "uint256",
          "name": "_duration",
          "type": "uint256"
        },
        {
          "internalType": "address",
          "name": "_token",
          "type": "address"
        }
      ],
      "name": "stakeTokens",
      "outputs": [],
      "stateMutability": "nonpayable",
      "type": "function"
    },
    {
      "inputs": [],
      "name": "totalInvestors",
      "outputs": [
        {
          "internalType": "uint256",
          "name": "",
          "type": "uint256"
        }
      ],
      "stateMutability": "view",
      "type": "function"
    },
    {
      "inputs": [],
      "name": "totalStakedTokens",
      "outputs": [
        {
          "internalType": "uint256",
          "name": "",
          "type": "uint256"
        }
      ],
      "stateMutability": "view",
      "type": "function"
    },
    {
      "inputs": [
        {
          "internalType": "address",
          "name": "newOwner",
          "type": "address"
        }
      ],
      "name": "transferOwnership",
      "outputs": [],
      "stateMutability": "nonpayable",
      "type": "function"
    },
    {
      "inputs": [
        {
          "internalType": "address",
          "name": "_token",
          "type": "address"
        }
      ],
      "name": "unstakeTokensRequest",
      "outputs": [],
      "stateMutability": "nonpayable",
      "type": "function"
    },
    {
      "inputs": [],
      "name": "usdcToken",
      "outputs": [
        {
          "internalType": "contract IERC20",
          "name": "",
          "type": "address"
        }
      ],
      "stateMutability": "view",
      "type": "function"
    },
    {
      "inputs": [],
      "name": "usdtToken",
      "outputs": [
        {
          "internalType": "contract IERC20",
          "name": "",
          "type": "address"
        }
      ],
      "stateMutability": "view",
      "type": "function"
    },
    {
      "inputs": [
        {
          "internalType": "address",
          "name": "",
          "type": "address"
        },
        {
          "internalType": "uint256",
          "name": "",
          "type": "uint256"
        }
      ],
      "name": "userStakes",
      "outputs": [
        {
          "internalType": "uint256",
          "name": "stakedTokens",
          "type": "uint256"
        },
        {
          "internalType": "uint256",
          "name": "startTime",
          "type": "uint256"
        },
        {
          "internalType": "uint256",
          "name": "duration",
          "type": "uint256"
        },
        {
          "internalType": "uint256",
          "name": "rewardEarned",
          "type": "uint256"
        },
        {
          "internalType": "address",
          "name": "stakedTokenAddress",
          "type": "address"
        }
      ],
      "stateMutability": "view",
      "type": "function"
    },
    {
      "inputs": [
        {
          "internalType": "uint256",
          "name": "_amount",
          "type": "uint256"
        }
      ],
      "name": "withdrawTokens",
      "outputs": [],
      "stateMutability": "nonpayable",
      "type": "function"
    }
  ],
  "bytecode": "0x60806040523480156200001157600080fd5b50604051620031fa380380620031fa833981810160405281019062000037919062000268565b620000576200004b6200013260201b60201c565b6200013a60201b60201c565b6001808190555082600560006101000a81548173ffffffffffffffffffffffffffffffffffffffff021916908373ffffffffffffffffffffffffffffffffffffffff16021790555081600660006101000a81548173ffffffffffffffffffffffffffffffffffffffff021916908373ffffffffffffffffffffffffffffffffffffffff16021790555080600760006101000a81548173ffffffffffffffffffffffffffffffffffffffff021916908373ffffffffffffffffffffffffffffffffffffffff160217905550600a600481905550505050620002c4565b600033905090565b60008060009054906101000a900473ffffffffffffffffffffffffffffffffffffffff169050816000806101000a81548173ffffffffffffffffffffffffffffffffffffffff021916908373ffffffffffffffffffffffffffffffffffffffff1602179055508173ffffffffffffffffffffffffffffffffffffffff168173ffffffffffffffffffffffffffffffffffffffff167f8be0079c531659141344cd1fd0a4f28419497f9722a3daafe3b4186f6b6457e060405160405180910390a35050565b600080fd5b600073ffffffffffffffffffffffffffffffffffffffff82169050919050565b6000620002308262000203565b9050919050565b620002428162000223565b81146200024e57600080fd5b50565b600081519050620002628162000237565b92915050565b600080600060608486031215620002845762000283620001fe565b5b6000620002948682870162000251565b9350506020620002a78682870162000251565b9250506040620002ba8682870162000251565b9150509250925092565b612f2680620002d46000396000f3fe608060405234801561001057600080fd5b50600436106101585760003560e01c80638da5cb5b116100c3578063bd8343451161007c578063bd834345146103cf578063bee793e9146103ff578063cb1398681461041b578063d0a2f2c414610437578063f2fde38b14610455578063f60cd3d81461047157610158565b80638da5cb5b146102f557806390f0b2751461031357806395a25efa14610331578063a98ad46c14610361578063b5d5b5fa1461037f578063b88430f6146103b357610158565b806333a087fc1161011557806333a087fc1461021f5780633ae732591461024f57806356f3d1971461026d57806357cf06031461029d5780635cf220be146102bb578063715018a6146102eb57610158565b806311eac8551461015d5780631b1cd4ff1461017b5780631f94e1da146101ab578063228cb733146101c757806329b8caff146101e5578063315a095d14610203575b600080fd5b61016561048f565b60405161017291906121fd565b60405180910390f35b6101956004803603810190610190919061225b565b6104b5565b6040516101a291906122a3565b60405180910390f35b6101c560048036038101906101c091906122f4565b6104d5565b005b6101cf6104e7565b6040516101dc9190612330565b60405180910390f35b6101ed6104ed565b6040516101fa9190612330565b60405180910390f35b61021d600480360381019061021891906122f4565b6104f3565b005b6102396004803603810190610234919061234b565b6105a6565b6040516102469190612330565b60405180910390f35b6102576106cc565b6040516102649190612330565b60405180910390f35b6102876004803603810190610282919061225b565b6106d2565b6040516102949190612330565b60405180910390f35b6102a561071e565b6040516102b29190612449565b60405180910390f35b6102d560048036038101906102d0919061234b565b610875565b6040516102e29190612330565b60405180910390f35b6102f3610998565b005b6102fd6109ac565b60405161030a919061247a565b60405180910390f35b61031b6109d5565b6040516103289190612449565b60405180910390f35b61034b600480360381019061034691906122f4565b610aeb565b604051610358919061247a565b60405180910390f35b610369610b2a565b60405161037691906121fd565b60405180910390f35b6103996004803603810190610394919061234b565b610b50565b6040516103aa959493929190612495565b60405180910390f35b6103cd60048036038101906103c891906124e8565b610bc3565b005b6103e960048036038101906103e4919061225b565b610d75565b6040516103f69190612330565b60405180910390f35b6104196004803603810190610414919061253b565b610d8d565b005b6104356004803603810190610430919061225b565b611466565b005b61043f611ce6565b60405161044c919061264c565b60405180910390f35b61046f600480360381019061046a919061225b565b611d74565b005b610479611df7565b60405161048691906121fd565b60405180910390f35b600760009054906101000a900473ffffffffffffffffffffffffffffffffffffffff1681565b60096020528060005260406000206000915054906101000a900460ff1681565b6104dd611e1d565b8060048190555050565b60045481565b60035481565b6104fb611e1d565b600560009054906101000a900473ffffffffffffffffffffffffffffffffffffffff1673ffffffffffffffffffffffffffffffffffffffff1663a9059cbb6105416109ac565b836040518363ffffffff1660e01b815260040161055f92919061266e565b6020604051808303816000875af115801561057e573d6000803e3d6000fd5b505050506040513d601f19601f820116820180604052508101906105a291906126c3565b5050565b600080600860008573ffffffffffffffffffffffffffffffffffffffff1673ffffffffffffffffffffffffffffffffffffffff16815260200190815260200160002083815481106105fa576105f96126f0565b5b90600052602060002090600502016040518060a0016040529081600082015481526020016001820154815260200160028201548152602001600382015481526020016004820160009054906101000a900473ffffffffffffffffffffffffffffffffffffffff1673ffffffffffffffffffffffffffffffffffffffff1673ffffffffffffffffffffffffffffffffffffffff1681525050905060008160200151426106a5919061274e565b90506000816106b48787610875565b6106be9190612782565b905080935050505092915050565b60025481565b6000600860008373ffffffffffffffffffffffffffffffffffffffff1673ffffffffffffffffffffffffffffffffffffffff168152602001908152602001600020805490509050919050565b6060600060035467ffffffffffffffff81111561073e5761073d6127c4565b5b60405190808252806020026020018201604052801561076c5781602001602082028036833780820191505090505b50905060005b60035481101561086d57600080600b8381548110610793576107926126f0565b5b9060005260206000200160009054906101000a900473ffffffffffffffffffffffffffffffffffffffff16905060005b600860008373ffffffffffffffffffffffffffffffffffffffff1673ffffffffffffffffffffffffffffffffffffffff168152602001908152602001600020805490508110156108375761081782826105a6565b8361082291906127f3565b9250808061082f90612827565b9150506107c3565b508184848151811061084c5761084b6126f0565b5b6020026020010181815250505050808061086590612827565b915050610772565b508091505090565b600080600860008573ffffffffffffffffffffffffffffffffffffffff1673ffffffffffffffffffffffffffffffffffffffff16815260200190815260200160002083815481106108c9576108c86126f0565b5b90600052602060002090600502016040518060a0016040529081600082015481526020016001820154815260200160028201548152602001600382015481526020016004820160009054906101000a900473ffffffffffffffffffffffffffffffffffffffff1673ffffffffffffffffffffffffffffffffffffffff1673ffffffffffffffffffffffffffffffffffffffff168152505090506301e133806064600454836000015161097b9190612782565b610985919061289e565b61098f919061289e565b91505092915050565b6109a0611e1d565b6109aa6000611e9b565b565b60008060009054906101000a900473ffffffffffffffffffffffffffffffffffffffff16905090565b6060600060035467ffffffffffffffff8111156109f5576109f46127c4565b5b604051908082528060200260200182016040528015610a235781602001602082028036833780820191505090505b50905060005b600354811015610ae357600a6000600b8381548110610a4b57610a4a6126f0565b5b9060005260206000200160009054906101000a900473ffffffffffffffffffffffffffffffffffffffff1673ffffffffffffffffffffffffffffffffffffffff1673ffffffffffffffffffffffffffffffffffffffff16815260200190815260200160002054828281518110610ac457610ac36126f0565b5b6020026020010181815250508080610adb90612827565b915050610a29565b508091505090565b600b8181548110610afb57600080fd5b906000526020600020016000915054906101000a900473ffffffffffffffffffffffffffffffffffffffff1681565b600660009054906101000a900473ffffffffffffffffffffffffffffffffffffffff1681565b60086020528160005260406000208181548110610b6c57600080fd5b9060005260206000209060050201600091509150508060000154908060010154908060020154908060030154908060040160009054906101000a900473ffffffffffffffffffffffffffffffffffffffff16905085565b610bcb611e1d565b600073ffffffffffffffffffffffffffffffffffffffff168373ffffffffffffffffffffffffffffffffffffffff1614158015610c355750600073ffffffffffffffffffffffffffffffffffffffff168273ffffffffffffffffffffffffffffffffffffffff1614155b8015610c6e5750600073ffffffffffffffffffffffffffffffffffffffff168173ffffffffffffffffffffffffffffffffffffffff1614155b610cad576040517f08c379a0000000000000000000000000000000000000000000000000000000008152600401610ca49061292c565b60405180910390fd5b82600560006101000a81548173ffffffffffffffffffffffffffffffffffffffff021916908373ffffffffffffffffffffffffffffffffffffffff16021790555081600660006101000a81548173ffffffffffffffffffffffffffffffffffffffff021916908373ffffffffffffffffffffffffffffffffffffffff16021790555080600760006101000a81548173ffffffffffffffffffffffffffffffffffffffff021916908373ffffffffffffffffffffffffffffffffffffffff160217905550505050565b600a6020528060005260406000206000915090505481565b610d95611f5f565b60008311610dd8576040517f08c379a0000000000000000000000000000000000000000000000000000000008152600401610dcf90612998565b60405180910390fd5b6275558042610de791906127f3565b8211610e28576040517f08c379a0000000000000000000000000000000000000000000000000000000008152600401610e1f90612a2a565b60405180910390fd5b6000610e3382611fae565b9050838173ffffffffffffffffffffffffffffffffffffffff166370a08231336040518263ffffffff1660e01b8152600401610e6f919061247a565b602060405180830381865afa158015610e8c573d6000803e3d6000fd5b505050506040513d601f19601f82011682018060405250810190610eb09190612a5f565b1015610ef1576040517f08c379a0000000000000000000000000000000000000000000000000000000008152600401610ee890612ad8565b60405180910390fd5b6000806000905060005b600860003373ffffffffffffffffffffffffffffffffffffffff1673ffffffffffffffffffffffffffffffffffffffff168152602001908152602001600020805490508110156110a4578473ffffffffffffffffffffffffffffffffffffffff16600860003373ffffffffffffffffffffffffffffffffffffffff1673ffffffffffffffffffffffffffffffffffffffff1681526020019081526020016000208281548110610fad57610fac6126f0565b5b906000526020600020906005020160040160009054906101000a900473ffffffffffffffffffffffffffffffffffffffff1673ffffffffffffffffffffffffffffffffffffffff160361109157600860003373ffffffffffffffffffffffffffffffffffffffff1673ffffffffffffffffffffffffffffffffffffffff168152602001908152602001600020818154811061104b5761104a6126f0565b5b906000526020600020906005020192508683600001600082825461106f91906127f3565b92505081905550858360020181905550428360010181905550600191506110a4565b808061109c90612827565b915050610efb565b5080611247576003600860003373ffffffffffffffffffffffffffffffffffffffff1673ffffffffffffffffffffffffffffffffffffffff168152602001908152602001600020805490501061112f576040517f08c379a000000000000000000000000000000000000000000000000000000000815260040161112690612b44565b60405180910390fd5b600860003373ffffffffffffffffffffffffffffffffffffffff1673ffffffffffffffffffffffffffffffffffffffff1681526020019081526020016000206040518060a00160405280888152602001428152602001878152602001600081526020018673ffffffffffffffffffffffffffffffffffffffff1681525090806001815401808255809150506001900390600052602060002090600502016000909190919091506000820151816000015560208201518160010155604082015181600201556060820151816003015560808201518160040160006101000a81548173ffffffffffffffffffffffffffffffffffffffff021916908373ffffffffffffffffffffffffffffffffffffffff16021790555050505b856002600082825461125991906127f3565b92505081905550600960003373ffffffffffffffffffffffffffffffffffffffff1673ffffffffffffffffffffffffffffffffffffffff16815260200190815260200160002060009054906101000a900460ff16611385576001600960003373ffffffffffffffffffffffffffffffffffffffff1673ffffffffffffffffffffffffffffffffffffffff16815260200190815260200160002060006101000a81548160ff0219169083151502179055506003600081548092919061131c90612827565b9190505550600b339080600181540180825580915050600190039060005260206000200160009091909190916101000a81548173ffffffffffffffffffffffffffffffffffffffff021916908373ffffffffffffffffffffffffffffffffffffffff1602179055505b8273ffffffffffffffffffffffffffffffffffffffff166323b872dd3330896040518463ffffffff1660e01b81526004016113c293929190612b64565b6020604051808303816000875af11580156113e1573d6000803e3d6000fd5b505050506040513d601f19601f8201168201806040525081019061140591906126c3565b503373ffffffffffffffffffffffffffffffffffffffff167f9f9e4044c5742cca66ca090b21552bac14645e68bad7a92364a9d9ff18111a1c878660405161144e929190612b9b565b60405180910390a250505061146161216d565b505050565b61146e611f5f565b6000600860003373ffffffffffffffffffffffffffffffffffffffff1673ffffffffffffffffffffffffffffffffffffffff16815260200190815260200160002080549050116114f3576040517f08c379a00000000000000000000000000000000000000000000000000000000081526004016114ea90612c10565b60405180910390fd5b60008060009050600080600090505b600860003373ffffffffffffffffffffffffffffffffffffffff1673ffffffffffffffffffffffffffffffffffffffff1681526020019081526020016000208054905081101561164357600860003373ffffffffffffffffffffffffffffffffffffffff1673ffffffffffffffffffffffffffffffffffffffff168152602001908152602001600020818154811061159d5761159c6126f0565b5b906000526020600020906005020193508473ffffffffffffffffffffffffffffffffffffffff168460040160009054906101000a900473ffffffffffffffffffffffffffffffffffffffff1673ffffffffffffffffffffffffffffffffffffffff16148015611610575060008460000154115b801561161f5750836002015442115b156116305760019250809150611643565b808061163b90612827565b915050611502565b5081611684576040517f08c379a000000000000000000000000000000000000000000000000000000000815260040161167b90612ca2565b60405180910390fd5b6000600860003373ffffffffffffffffffffffffffffffffffffffff1673ffffffffffffffffffffffffffffffffffffffff16815260200190815260200160002082815481106116d7576116d66126f0565b5b906000526020600020906005020160000154905060006116f733846105a6565b90506000600860003373ffffffffffffffffffffffffffffffffffffffff1673ffffffffffffffffffffffffffffffffffffffff168152602001908152602001600020848154811061174c5761174b6126f0565b5b906000526020600020906005020160040160009054906101000a900473ffffffffffffffffffffffffffffffffffffffff16905060008190508073ffffffffffffffffffffffffffffffffffffffff1663a9059cbb33866040518363ffffffff1660e01b81526004016117c092919061266e565b6020604051808303816000875af11580156117df573d6000803e3d6000fd5b505050506040513d601f19601f8201168201806040525081019061180391906126c3565b50600560009054906101000a900473ffffffffffffffffffffffffffffffffffffffff1673ffffffffffffffffffffffffffffffffffffffff1663a9059cbb33856040518363ffffffff1660e01b815260040161186192919061266e565b6020604051808303816000875af1158015611880573d6000803e3d6000fd5b505050506040513d601f19601f820116820180604052508101906118a491906126c3565b5082600a60003373ffffffffffffffffffffffffffffffffffffffff1673ffffffffffffffffffffffffffffffffffffffff16815260200190815260200160002060008282546118f491906127f3565b925050819055506000600860003373ffffffffffffffffffffffffffffffffffffffff1673ffffffffffffffffffffffffffffffffffffffff168152602001908152602001600020868154811061194e5761194d6126f0565b5b9060005260206000209060050201600001819055508360026000828254611975919061274e565b925050819055506001600860003373ffffffffffffffffffffffffffffffffffffffff1673ffffffffffffffffffffffffffffffffffffffff1681526020019081526020016000208054905003611a37576000600960003373ffffffffffffffffffffffffffffffffffffffff1673ffffffffffffffffffffffffffffffffffffffff16815260200190815260200160002060006101000a81548160ff02191690831515021790555060036000815480929190611a3190612cc2565b91905055505b600860003373ffffffffffffffffffffffffffffffffffffffff1673ffffffffffffffffffffffffffffffffffffffff1681526020019081526020016000206001600860003373ffffffffffffffffffffffffffffffffffffffff1673ffffffffffffffffffffffffffffffffffffffff16815260200190815260200160002080549050611ac5919061274e565b81548110611ad657611ad56126f0565b5b9060005260206000209060050201600860003373ffffffffffffffffffffffffffffffffffffffff1673ffffffffffffffffffffffffffffffffffffffff1681526020019081526020016000208681548110611b3557611b346126f0565b5b9060005260206000209060050201600082015481600001556001820154816001015560028201548160020155600382015481600301556004820160009054906101000a900473ffffffffffffffffffffffffffffffffffffffff168160040160006101000a81548173ffffffffffffffffffffffffffffffffffffffff021916908373ffffffffffffffffffffffffffffffffffffffff160217905550905050600860003373ffffffffffffffffffffffffffffffffffffffff1673ffffffffffffffffffffffffffffffffffffffff168152602001908152602001600020805480611c2457611c23612ceb565b5b60019003818190600052602060002090600502016000808201600090556001820160009055600282016000905560038201600090556004820160006101000a81549073ffffffffffffffffffffffffffffffffffffffff0219169055505090553373ffffffffffffffffffffffffffffffffffffffff167fcbcdbdf10631a43cc99c80acace8232649421c3f4f73919f16013d47c83a687a8584604051611ccc929190612b9b565b60405180910390a250505050505050611ce361216d565b50565b6060600b805480602002602001604051908101604052809291908181526020018280548015611d6a57602002820191906000526020600020905b8160009054906101000a900473ffffffffffffffffffffffffffffffffffffffff1673ffffffffffffffffffffffffffffffffffffffff1681526020019060010190808311611d20575b5050505050905090565b611d7c611e1d565b600073ffffffffffffffffffffffffffffffffffffffff168173ffffffffffffffffffffffffffffffffffffffff1603611deb576040517f08c379a0000000000000000000000000000000000000000000000000000000008152600401611de290612d8c565b60405180910390fd5b611df481611e9b565b50565b600560009054906101000a900473ffffffffffffffffffffffffffffffffffffffff1681565b611e25612176565b73ffffffffffffffffffffffffffffffffffffffff16611e436109ac565b73ffffffffffffffffffffffffffffffffffffffff1614611e99576040517f08c379a0000000000000000000000000000000000000000000000000000000008152600401611e9090612df8565b60405180910390fd5b565b60008060009054906101000a900473ffffffffffffffffffffffffffffffffffffffff169050816000806101000a81548173ffffffffffffffffffffffffffffffffffffffff021916908373ffffffffffffffffffffffffffffffffffffffff1602179055508173ffffffffffffffffffffffffffffffffffffffff168173ffffffffffffffffffffffffffffffffffffffff167f8be0079c531659141344cd1fd0a4f28419497f9722a3daafe3b4186f6b6457e060405160405180910390a35050565b600260015403611fa4576040517f08c379a0000000000000000000000000000000000000000000000000000000008152600401611f9b90612e64565b60405180910390fd5b6002600181905550565b6000600560009054906101000a900473ffffffffffffffffffffffffffffffffffffffff1673ffffffffffffffffffffffffffffffffffffffff168273ffffffffffffffffffffffffffffffffffffffff160361202f57600560009054906101000a900473ffffffffffffffffffffffffffffffffffffffff169050612168565b600660009054906101000a900473ffffffffffffffffffffffffffffffffffffffff1673ffffffffffffffffffffffffffffffffffffffff168273ffffffffffffffffffffffffffffffffffffffff16036120ae57600660009054906101000a900473ffffffffffffffffffffffffffffffffffffffff169050612168565b600760009054906101000a900473ffffffffffffffffffffffffffffffffffffffff1673ffffffffffffffffffffffffffffffffffffffff168273ffffffffffffffffffffffffffffffffffffffff160361212d57600760009054906101000a900473ffffffffffffffffffffffffffffffffffffffff169050612168565b6040517f08c379a000000000000000000000000000000000000000000000000000000000815260040161215f90612ed0565b60405180910390fd5b919050565b60018081905550565b600033905090565b600073ffffffffffffffffffffffffffffffffffffffff82169050919050565b6000819050919050565b60006121c36121be6121b98461217e565b61219e565b61217e565b9050919050565b60006121d5826121a8565b9050919050565b60006121e7826121ca565b9050919050565b6121f7816121dc565b82525050565b600060208201905061221260008301846121ee565b92915050565b600080fd5b60006122288261217e565b9050919050565b6122388161221d565b811461224357600080fd5b50565b6000813590506122558161222f565b92915050565b60006020828403121561227157612270612218565b5b600061227f84828501612246565b91505092915050565b60008115159050919050565b61229d81612288565b82525050565b60006020820190506122b86000830184612294565b92915050565b6000819050919050565b6122d1816122be565b81146122dc57600080fd5b50565b6000813590506122ee816122c8565b92915050565b60006020828403121561230a57612309612218565b5b6000612318848285016122df565b91505092915050565b61232a816122be565b82525050565b60006020820190506123456000830184612321565b92915050565b6000806040838503121561236257612361612218565b5b600061237085828601612246565b9250506020612381858286016122df565b9150509250929050565b600081519050919050565b600082825260208201905092915050565b6000819050602082019050919050565b6123c0816122be565b82525050565b60006123d283836123b7565b60208301905092915050565b6000602082019050919050565b60006123f68261238b565b6124008185612396565b935061240b836123a7565b8060005b8381101561243c57815161242388826123c6565b975061242e836123de565b92505060018101905061240f565b5085935050505092915050565b6000602082019050818103600083015261246381846123eb565b905092915050565b6124748161221d565b82525050565b600060208201905061248f600083018461246b565b92915050565b600060a0820190506124aa6000830188612321565b6124b76020830187612321565b6124c46040830186612321565b6124d16060830185612321565b6124de608083018461246b565b9695505050505050565b60008060006060848603121561250157612500612218565b5b600061250f86828701612246565b935050602061252086828701612246565b925050604061253186828701612246565b9150509250925092565b60008060006060848603121561255457612553612218565b5b6000612562868287016122df565b9350506020612573868287016122df565b925050604061258486828701612246565b9150509250925092565b600081519050919050565b600082825260208201905092915050565b6000819050602082019050919050565b6125c38161221d565b82525050565b60006125d583836125ba565b60208301905092915050565b6000602082019050919050565b60006125f98261258e565b6126038185612599565b935061260e836125aa565b8060005b8381101561263f57815161262688826125c9565b9750612631836125e1565b925050600181019050612612565b5085935050505092915050565b6000602082019050818103600083015261266681846125ee565b905092915050565b6000604082019050612683600083018561246b565b6126906020830184612321565b9392505050565b6126a081612288565b81146126ab57600080fd5b50565b6000815190506126bd81612697565b92915050565b6000602082840312156126d9576126d8612218565b5b60006126e7848285016126ae565b91505092915050565b7f4e487b7100000000000000000000000000000000000000000000000000000000600052603260045260246000fd5b7f4e487b7100000000000000000000000000000000000000000000000000000000600052601160045260246000fd5b6000612759826122be565b9150612764836122be565b925082820390508181111561277c5761277b61271f565b5b92915050565b600061278d826122be565b9150612798836122be565b92508282026127a6816122be565b915082820484148315176127bd576127bc61271f565b5b5092915050565b7f4e487b7100000000000000000000000000000000000000000000000000000000600052604160045260246000fd5b60006127fe826122be565b9150612809836122be565b92508282019050808211156128215761282061271f565b5b92915050565b6000612832826122be565b91507fffffffffffffffffffffffffffffffffffffffffffffffffffffffffffffffff82036128645761286361271f565b5b600182019050919050565b7f4e487b7100000000000000000000000000000000000000000000000000000000600052601260045260246000fd5b60006128a9826122be565b91506128b4836122be565b9250826128c4576128c361286f565b5b828204905092915050565b600082825260208201905092915050565b7f5a65726f20416464726573730000000000000000000000000000000000000000600082015250565b6000612916600c836128cf565b9150612921826128e0565b602082019050919050565b6000602082019050818103600083015261294581612909565b9050919050565b7f416d6f756e742063616e6e6f7420626520300000000000000000000000000000600082015250565b60006129826012836128cf565b915061298d8261294c565b602082019050919050565b600060208201905081810360008301526129b181612975565b9050919050565b7f506c65617365207374616b6520666f72206174206c656173742039302064617960008201527f7300000000000000000000000000000000000000000000000000000000000000602082015250565b6000612a146021836128cf565b9150612a1f826129b8565b604082019050919050565b60006020820190508181036000830152612a4381612a07565b9050919050565b600081519050612a59816122c8565b92915050565b600060208284031215612a7557612a74612218565b5b6000612a8384828501612a4a565b91505092915050565b7f496e73756666696369656e742062616c616e636520666f72207374616b696e67600082015250565b6000612ac26020836128cf565b9150612acd82612a8c565b602082019050919050565b60006020820190508181036000830152612af181612ab5565b9050919050565b7f4d6178696d756d2033207374616b657320616c6c6f7765640000000000000000600082015250565b6000612b2e6018836128cf565b9150612b3982612af8565b602082019050919050565b60006020820190508181036000830152612b5d81612b21565b9050919050565b6000606082019050612b79600083018661246b565b612b86602083018561246b565b612b936040830184612321565b949350505050565b6000604082019050612bb06000830185612321565b612bbd602083018461246b565b9392505050565b7f4e6f207374616b657320666f756e6420666f7220746869732061646472657373600082015250565b6000612bfa6020836128cf565b9150612c0582612bc4565b602082019050919050565b60006020820190508181036000830152612c2981612bed565b9050919050565b7f4e6f2076616c6964207374616b657320617661696c61626c6520746f20756e7360008201527f74616b6520666f72207468697320746f6b656e00000000000000000000000000602082015250565b6000612c8c6033836128cf565b9150612c9782612c30565b604082019050919050565b60006020820190508181036000830152612cbb81612c7f565b9050919050565b6000612ccd826122be565b915060008203612ce057612cdf61271f565b5b600182039050919050565b7f4e487b7100000000000000000000000000000000000000000000000000000000600052603160045260246000fd5b7f4f776e61626c653a206e6577206f776e657220697320746865207a65726f206160008201527f6464726573730000000000000000000000000000000000000000000000000000602082015250565b6000612d766026836128cf565b9150612d8182612d1a565b604082019050919050565b60006020820190508181036000830152612da581612d69565b9050919050565b7f4f776e61626c653a2063616c6c6572206973206e6f7420746865206f776e6572600082015250565b6000612de26020836128cf565b9150612ded82612dac565b602082019050919050565b60006020820190508181036000830152612e1181612dd5565b9050919050565b7f5265656e7472616e637947756172643a207265656e7472616e742063616c6c00600082015250565b6000612e4e601f836128cf565b9150612e5982612e18565b602082019050919050565b60006020820190508181036000830152612e7d81612e41565b9050919050565b7f496e76616c696420746f6b656e20616464726573730000000000000000000000600082015250565b6000612eba6015836128cf565b9150612ec582612e84565b602082019050919050565b60006020820190508181036000830152612ee981612ead565b905091905056fea2646970667358221220de7f20f0976f789f05979674ba17262baad9deb165a7b21f2a14c0407b13b0ab64736f6c63430008140033",
  "linkReferences": {},
  "deployedLinkReferences": {}
}