{
  "_format": "hh-sol-artifact-1",
  "contractName": "LnbgLondonCoinStakingContract",
  "sourceName": "contracts/LnbgLondonCoinStakingContract.sol",
  "abi": [
    {
      "inputs": [
        {
          "internalType": "address",
          "name": "_lnbgToken",
          "type": "address"
        },
        {
          "internalType": "address",
          "name": "_usdtToken",
          "type": "address"
        },
        {
          "internalType": "address",
          "name": "_usdcToken",
          "type": "address"
        }
      ],
      "stateMutability": "nonpayable",
      "type": "constructor"
    },
    {
      "anonymous": false,
      "inputs": [
        {
          "indexed": true,
          "internalType": "address",
          "name": "previousOwner",
          "type": "address"
        },
        {
          "indexed": true,
          "internalType": "address",
          "name": "newOwner",
          "type": "address"
        }
      ],
      "name": "OwnershipTransferred",
      "type": "event"
    },
    {
      "anonymous": false,
      "inputs": [
        {
          "indexed": true,
          "internalType": "address",
          "name": "by",
          "type": "address"
        },
        {
          "indexed": false,
          "internalType": "uint256",
          "name": "amount",
          "type": "uint256"
        },
        {
          "indexed": false,
          "internalType": "address",
          "name": "token",
          "type": "address"
        }
      ],
      "name": "Staked",
      "type": "event"
    },
    {
      "anonymous": false,
      "inputs": [
        {
          "indexed": true,
          "internalType": "address",
          "name": "by",
          "type": "address"
        },
        {
          "indexed": false,
          "internalType": "uint256",
          "name": "amount",
          "type": "uint256"
        },
        {
          "indexed": false,
          "internalType": "address",
          "name": "token",
          "type": "address"
        }
      ],
      "name": "Withdrawn",
      "type": "event"
    },
    {
      "inputs": [
        {
          "internalType": "address",
          "name": "_lnbgToken",
          "type": "address"
        },
        {
          "internalType": "address",
          "name": "_usdtToken",
          "type": "address"
        },
        {
          "internalType": "address",
          "name": "_usdcToken",
          "type": "address"
        }
      ],
      "name": "changeTokenAddress",
      "outputs": [],
      "stateMutability": "nonpayable",
      "type": "function"
    },
    {
      "inputs": [
        {
          "internalType": "address",
          "name": "",
          "type": "address"
        }
      ],
      "name": "claimedRewards",
      "outputs": [
        {
          "internalType": "uint256",
          "name": "",
          "type": "uint256"
        }
      ],
      "stateMutability": "view",
      "type": "function"
    },
    {
      "inputs": [],
      "name": "getAllInvestors",
      "outputs": [
        {
          "internalType": "address[]",
          "name": "",
          "type": "address[]"
        }
      ],
      "stateMutability": "view",
      "type": "function"
    },
    {
      "inputs": [],
      "name": "getTotalEarnings",
      "outputs": [
        {
          "internalType": "uint256",
          "name": "",
          "type": "uint256"
        }
      ],
      "stateMutability": "view",
      "type": "function"
    },
    {
      "inputs": [
        {
          "internalType": "address",
          "name": "_user",
          "type": "address"
        }
      ],
      "name": "getUserStakedInfo",
      "outputs": [
        {
          "components": [
            {
              "internalType": "uint256",
              "name": "stakedTokens",
              "type": "uint256"
            },
            {
              "internalType": "uint256",
              "name": "startTime",
              "type": "uint256"
            },
            {
              "internalType": "uint256",
              "name": "duration",
              "type": "uint256"
            },
            {
              "internalType": "address",
              "name": "stakedTokenAddress",
              "type": "address"
            }
          ],
          "internalType": "struct LnbgLondonCoinStakingContract.Stake",
          "name": "LNBGStake",
          "type": "tuple"
        },
        {
          "components": [
            {
              "internalType": "uint256",
              "name": "stakedTokens",
              "type": "uint256"
            },
            {
              "internalType": "uint256",
              "name": "startTime",
              "type": "uint256"
            },
            {
              "internalType": "uint256",
              "name": "duration",
              "type": "uint256"
            },
            {
              "internalType": "address",
              "name": "stakedTokenAddress",
              "type": "address"
            }
          ],
          "internalType": "struct LnbgLondonCoinStakingContract.Stake",
          "name": "USDTStake",
          "type": "tuple"
        },
        {
          "components": [
            {
              "internalType": "uint256",
              "name": "stakedTokens",
              "type": "uint256"
            },
            {
              "internalType": "uint256",
              "name": "startTime",
              "type": "uint256"
            },
            {
              "internalType": "uint256",
              "name": "duration",
              "type": "uint256"
            },
            {
              "internalType": "address",
              "name": "stakedTokenAddress",
              "type": "address"
            }
          ],
          "internalType": "struct LnbgLondonCoinStakingContract.Stake",
          "name": "USDCStake",
          "type": "tuple"
        },
        {
          "internalType": "uint256",
          "name": "totalEarnedReward",
          "type": "uint256"
        }
      ],
      "stateMutability": "view",
      "type": "function"
    },
    {
      "inputs": [
        {
          "internalType": "address",
          "name": "_user",
          "type": "address"
        }
      ],
      "name": "hasActiveStakes",
      "outputs": [
        {
          "internalType": "bool",
          "name": "",
          "type": "bool"
        }
      ],
      "stateMutability": "view",
      "type": "function"
    },
    {
      "inputs": [
        {
          "internalType": "address",
          "name": "",
          "type": "address"
        }
      ],
      "name": "investor",
      "outputs": [
        {
          "internalType": "bool",
          "name": "",
          "type": "bool"
        }
      ],
      "stateMutability": "view",
      "type": "function"
    },
    {
      "inputs": [
        {
          "internalType": "uint256",
          "name": "",
          "type": "uint256"
        }
      ],
      "name": "investorAddresses",
      "outputs": [
        {
          "internalType": "address",
          "name": "",
          "type": "address"
        }
      ],
      "stateMutability": "view",
      "type": "function"
    },
    {
      "inputs": [],
      "name": "lnbgToken",
      "outputs": [
        {
          "internalType": "contract IERC20",
          "name": "",
          "type": "address"
        }
      ],
      "stateMutability": "view",
      "type": "function"
    },
    {
      "inputs": [],
      "name": "owner",
      "outputs": [
        {
          "internalType": "address",
          "name": "",
          "type": "address"
        }
      ],
      "stateMutability": "view",
      "type": "function"
    },
    {
      "inputs": [],
      "name": "renounceOwnership",
      "outputs": [],
      "stateMutability": "nonpayable",
      "type": "function"
    },
    {
      "inputs": [],
      "name": "reward",
      "outputs": [
        {
          "internalType": "uint256",
          "name": "",
          "type": "uint256"
        }
      ],
      "stateMutability": "view",
      "type": "function"
    },
    {
      "inputs": [
        {
          "internalType": "address",
          "name": "_user",
          "type": "address"
        },
        {
          "internalType": "address",
          "name": "_token",
          "type": "address"
        }
      ],
      "name": "rewardRateInSeconds",
      "outputs": [
        {
          "internalType": "uint256",
          "name": "",
          "type": "uint256"
        }
      ],
      "stateMutability": "view",
      "type": "function"
    },
    {
      "inputs": [
        {
          "internalType": "address",
          "name": "_user",
          "type": "address"
        },
        {
          "internalType": "address",
          "name": "_token",
          "type": "address"
        }
      ],
      "name": "rewardedTokens",
      "outputs": [
        {
          "internalType": "uint256",
          "name": "",
          "type": "uint256"
        }
      ],
      "stateMutability": "view",
      "type": "function"
    },
    {
      "inputs": [
        {
          "internalType": "uint256",
          "name": "_percentage",
          "type": "uint256"
        }
      ],
      "name": "setAnnualRewardPercentage",
      "outputs": [],
      "stateMutability": "nonpayable",
      "type": "function"
    },
    {
      "inputs": [
        {
          "internalType": "uint256",
          "name": "_tokens",
          "type": "uint256"
        },
        {
          "internalType": "uint256",
          "name": "_duration",
          "type": "uint256"
        },
        {
          "internalType": "address",
          "name": "_token",
          "type": "address"
        }
      ],
      "name": "stakeTokens",
      "outputs": [],
      "stateMutability": "nonpayable",
      "type": "function"
    },
    {
      "inputs": [],
      "name": "totalClaimedTokens",
      "outputs": [
        {
          "internalType": "uint256",
          "name": "",
          "type": "uint256"
        }
      ],
      "stateMutability": "view",
      "type": "function"
    },
    {
      "inputs": [],
      "name": "totalInvestors",
      "outputs": [
        {
          "internalType": "uint256",
          "name": "",
          "type": "uint256"
        }
      ],
      "stateMutability": "view",
      "type": "function"
    },
    {
      "inputs": [],
      "name": "totalStakedTokens",
      "outputs": [
        {
          "internalType": "uint256",
          "name": "",
          "type": "uint256"
        }
      ],
      "stateMutability": "view",
      "type": "function"
    },
    {
      "inputs": [
        {
          "internalType": "address",
          "name": "newOwner",
          "type": "address"
        }
      ],
      "name": "transferOwnership",
      "outputs": [],
      "stateMutability": "nonpayable",
      "type": "function"
    },
    {
      "inputs": [
        {
          "internalType": "address",
          "name": "_token",
          "type": "address"
        }
      ],
      "name": "unstakeTokensRequest",
      "outputs": [],
      "stateMutability": "nonpayable",
      "type": "function"
    },
    {
      "inputs": [],
      "name": "usdcToken",
      "outputs": [
        {
          "internalType": "contract IERC20",
          "name": "",
          "type": "address"
        }
      ],
      "stateMutability": "view",
      "type": "function"
    },
    {
      "inputs": [],
      "name": "usdtToken",
      "outputs": [
        {
          "internalType": "contract IERC20",
          "name": "",
          "type": "address"
        }
      ],
      "stateMutability": "view",
      "type": "function"
    },
    {
      "inputs": [
        {
          "internalType": "address",
          "name": "",
          "type": "address"
        },
        {
          "internalType": "address",
          "name": "",
          "type": "address"
        }
      ],
      "name": "userStakesByToken",
      "outputs": [
        {
          "internalType": "uint256",
          "name": "stakedTokens",
          "type": "uint256"
        },
        {
          "internalType": "uint256",
          "name": "startTime",
          "type": "uint256"
        },
        {
          "internalType": "uint256",
          "name": "duration",
          "type": "uint256"
        },
        {
          "internalType": "address",
          "name": "stakedTokenAddress",
          "type": "address"
        }
      ],
      "stateMutability": "view",
      "type": "function"
    },
    {
      "inputs": [
        {
          "internalType": "uint256",
          "name": "_amount",
          "type": "uint256"
        },
        {
          "internalType": "address",
          "name": "_token",
          "type": "address"
        }
      ],
      "name": "withdrawTokens",
      "outputs": [],
      "stateMutability": "nonpayable",
      "type": "function"
    }
  ],
  "bytecode": "0x60806040523480156200001157600080fd5b506040516200301f3803806200301f833981810160405281019062000037919062000268565b620000576200004b6200013260201b60201c565b6200013a60201b60201c565b6001808190555082600660006101000a81548173ffffffffffffffffffffffffffffffffffffffff021916908373ffffffffffffffffffffffffffffffffffffffff16021790555081600760006101000a81548173ffffffffffffffffffffffffffffffffffffffff021916908373ffffffffffffffffffffffffffffffffffffffff16021790555080600860006101000a81548173ffffffffffffffffffffffffffffffffffffffff021916908373ffffffffffffffffffffffffffffffffffffffff160217905550600a600581905550505050620002c4565b600033905090565b60008060009054906101000a900473ffffffffffffffffffffffffffffffffffffffff169050816000806101000a81548173ffffffffffffffffffffffffffffffffffffffff021916908373ffffffffffffffffffffffffffffffffffffffff1602179055508173ffffffffffffffffffffffffffffffffffffffff168173ffffffffffffffffffffffffffffffffffffffff167f8be0079c531659141344cd1fd0a4f28419497f9722a3daafe3b4186f6b6457e060405160405180910390a35050565b600080fd5b600073ffffffffffffffffffffffffffffffffffffffff82169050919050565b6000620002308262000203565b9050919050565b620002428162000223565b81146200024e57600080fd5b50565b600081519050620002628162000237565b92915050565b600080600060608486031215620002845762000283620001fe565b5b6000620002948682870162000251565b9350506020620002a78682870162000251565b9250506040620002ba8682870162000251565b9150509250925092565b612d4b80620002d46000396000f3fe608060405234801561001057600080fd5b50600436106101735760003560e01c806395a25efa116100de578063c424ea5d11610097578063d21f954311610071578063d21f954314610454578063dce2089e14610472578063f2fde38b146104a2578063fcb56f47146104be57610173565b8063c424ea5d146103ea578063cb1398681461041a578063d0a2f2c41461043657610173565b806395a25efa146103015780639e01304514610331578063a98ad46c14610364578063b88430f614610382578063bd8343451461039e578063bee793e9146103ce57610173565b8063398d92bb11610130578063398d92bb146102515780633ae732591461026d57806363c7abf81461028b578063715018a6146102a9578063880ee3ea146102b35780638da5cb5b146102e357610173565b80630d4755191461017857806311eac855146101ab5780631b1cd4ff146101c95780631f94e1da146101f9578063228cb7331461021557806329b8caff14610233575b600080fd5b610192600480360381019061018d9190612164565b6104dc565b6040516101a294939291906121cc565b60405180910390f35b6101b3610539565b6040516101c09190612270565b60405180910390f35b6101e360048036038101906101de919061228b565b61055f565b6040516101f091906122d3565b60405180910390f35b610213600480360381019061020e919061231a565b61057f565b005b61021d610591565b60405161022a9190612347565b60405180910390f35b61023b610597565b6040516102489190612347565b60405180910390f35b61026b60048036038101906102669190612362565b61059d565b005b61027561062f565b6040516102829190612347565b60405180910390f35b610293610635565b6040516102a09190612270565b60405180910390f35b6102b161065b565b005b6102cd60048036038101906102c89190612164565b61066f565b6040516102da9190612347565b60405180910390f35b6102eb6107a8565b6040516102f891906123a2565b60405180910390f35b61031b6004803603810190610316919061231a565b6107d1565b60405161032891906123a2565b60405180910390f35b61034b6004803603810190610346919061228b565b610810565b60405161035b9493929190612430565b60405180910390f35b61036c610c7e565b6040516103799190612270565b60405180910390f35b61039c60048036038101906103979190612478565b610ca4565b005b6103b860048036038101906103b3919061228b565b610e56565b6040516103c59190612347565b60405180910390f35b6103e860048036038101906103e391906124cb565b610e6e565b005b61040460048036038101906103ff9190612164565b61137b565b6040516104119190612347565b60405180910390f35b610434600480360381019061042f919061228b565b6114b1565b005b61043e611925565b60405161044b91906125cd565b60405180910390f35b61045c6119b3565b6040516104699190612347565b60405180910390f35b61048c6004803603810190610487919061228b565b611ad4565b60405161049991906122d3565b60405180910390f35b6104bc60048036038101906104b7919061228b565b611cd9565b005b6104c6611d5c565b6040516104d39190612347565b60405180910390f35b6009602052816000526040600020602052806000526040600020600091509150508060000154908060010154908060020154908060030160009054906101000a900473ffffffffffffffffffffffffffffffffffffffff16905084565b600860009054906101000a900473ffffffffffffffffffffffffffffffffffffffff1681565b600a6020528060005260406000206000915054906101000a900460ff1681565b610587611d62565b8060058190555050565b60055481565b60045481565b6105a5611d62565b8073ffffffffffffffffffffffffffffffffffffffff1663a9059cbb6105c96107a8565b846040518363ffffffff1660e01b81526004016105e79291906125ef565b6020604051808303816000875af1158015610606573d6000803e3d6000fd5b505050506040513d601f19601f8201168201806040525081019061062a9190612644565b505050565b60025481565b600660009054906101000a900473ffffffffffffffffffffffffffffffffffffffff1681565b610663611d62565b61066d6000611de0565b565b600080600960008573ffffffffffffffffffffffffffffffffffffffff1673ffffffffffffffffffffffffffffffffffffffff16815260200190815260200160002060008473ffffffffffffffffffffffffffffffffffffffff1673ffffffffffffffffffffffffffffffffffffffff1681526020019081526020016000206040518060800160405290816000820154815260200160018201548152602001600282015481526020016003820160009054906101000a900473ffffffffffffffffffffffffffffffffffffffff1673ffffffffffffffffffffffffffffffffffffffff1673ffffffffffffffffffffffffffffffffffffffff16815250509050600081602001514261078191906126a0565b9050600081610790878761137b565b61079a91906126d4565b905080935050505092915050565b60008060009054906101000a900473ffffffffffffffffffffffffffffffffffffffff16905090565b600c81815481106107e157600080fd5b906000526020600020016000915054906101000a900473ffffffffffffffffffffffffffffffffffffffff1681565b6108186120c3565b6108206120c3565b6108286120c3565b600080600090506000600960008873ffffffffffffffffffffffffffffffffffffffff1673ffffffffffffffffffffffffffffffffffffffff1681526020019081526020016000206000600660009054906101000a900473ffffffffffffffffffffffffffffffffffffffff1673ffffffffffffffffffffffffffffffffffffffff1673ffffffffffffffffffffffffffffffffffffffff1681526020019081526020016000206040518060800160405290816000820154815260200160018201548152602001600282015481526020016003820160009054906101000a900473ffffffffffffffffffffffffffffffffffffffff1673ffffffffffffffffffffffffffffffffffffffff1673ffffffffffffffffffffffffffffffffffffffff168152505090506000816000015111156109975761098987600660009054906101000a900473ffffffffffffffffffffffffffffffffffffffff1661066f565b826109949190612716565b91505b6000600960008973ffffffffffffffffffffffffffffffffffffffff1673ffffffffffffffffffffffffffffffffffffffff1681526020019081526020016000206000600760009054906101000a900473ffffffffffffffffffffffffffffffffffffffff1673ffffffffffffffffffffffffffffffffffffffff1673ffffffffffffffffffffffffffffffffffffffff1681526020019081526020016000206040518060800160405290816000820154815260200160018201548152602001600282015481526020016003820160009054906101000a900473ffffffffffffffffffffffffffffffffffffffff1673ffffffffffffffffffffffffffffffffffffffff1673ffffffffffffffffffffffffffffffffffffffff16815250509050600081600001511115610aff57610af188600760009054906101000a900473ffffffffffffffffffffffffffffffffffffffff1661066f565b83610afc9190612716565b92505b6000600960008a73ffffffffffffffffffffffffffffffffffffffff1673ffffffffffffffffffffffffffffffffffffffff1681526020019081526020016000206000600860009054906101000a900473ffffffffffffffffffffffffffffffffffffffff1673ffffffffffffffffffffffffffffffffffffffff1673ffffffffffffffffffffffffffffffffffffffff1681526020019081526020016000206040518060800160405290816000820154815260200160018201548152602001600282015481526020016003820160009054906101000a900473ffffffffffffffffffffffffffffffffffffffff1673ffffffffffffffffffffffffffffffffffffffff1673ffffffffffffffffffffffffffffffffffffffff16815250509050600081600001511115610c6757610c5989600860009054906101000a900473ffffffffffffffffffffffffffffffffffffffff1661066f565b84610c649190612716565b93505b828282869750975097509750505050509193509193565b600760009054906101000a900473ffffffffffffffffffffffffffffffffffffffff1681565b610cac611d62565b600073ffffffffffffffffffffffffffffffffffffffff168373ffffffffffffffffffffffffffffffffffffffff1614158015610d165750600073ffffffffffffffffffffffffffffffffffffffff168273ffffffffffffffffffffffffffffffffffffffff1614155b8015610d4f5750600073ffffffffffffffffffffffffffffffffffffffff168173ffffffffffffffffffffffffffffffffffffffff1614155b610d8e576040517f08c379a0000000000000000000000000000000000000000000000000000000008152600401610d85906127a7565b60405180910390fd5b82600660006101000a81548173ffffffffffffffffffffffffffffffffffffffff021916908373ffffffffffffffffffffffffffffffffffffffff16021790555081600760006101000a81548173ffffffffffffffffffffffffffffffffffffffff021916908373ffffffffffffffffffffffffffffffffffffffff16021790555080600860006101000a81548173ffffffffffffffffffffffffffffffffffffffff021916908373ffffffffffffffffffffffffffffffffffffffff160217905550505050565b600b6020528060005260406000206000915090505481565b610e76611ea4565b60008311610eb9576040517f08c379a0000000000000000000000000000000000000000000000000000000008152600401610eb090612813565b60405180910390fd5b6000610ec482611ef3565b9050838173ffffffffffffffffffffffffffffffffffffffff166370a08231336040518263ffffffff1660e01b8152600401610f0091906123a2565b602060405180830381865afa158015610f1d573d6000803e3d6000fd5b505050506040513d601f19601f82011682018060405250810190610f419190612848565b1015610f82576040517f08c379a0000000000000000000000000000000000000000000000000000000008152600401610f79906128c1565b60405180910390fd5b6000600960003373ffffffffffffffffffffffffffffffffffffffff1673ffffffffffffffffffffffffffffffffffffffff16815260200190815260200160002060008473ffffffffffffffffffffffffffffffffffffffff1673ffffffffffffffffffffffffffffffffffffffff168152602001908152602001600020905060008160000154111561104157848160000160008282546110239190612716565b92505081905550838160020181905550428160010181905550611282565b60405180608001604052808681526020014281526020018581526020018473ffffffffffffffffffffffffffffffffffffffff16815250600960003373ffffffffffffffffffffffffffffffffffffffff1673ffffffffffffffffffffffffffffffffffffffff16815260200190815260200160002060008573ffffffffffffffffffffffffffffffffffffffff1673ffffffffffffffffffffffffffffffffffffffff16815260200190815260200160002060008201518160000155602082015181600101556040820151816002015560608201518160030160006101000a81548173ffffffffffffffffffffffffffffffffffffffff021916908373ffffffffffffffffffffffffffffffffffffffff160217905550905050600a60003373ffffffffffffffffffffffffffffffffffffffff1673ffffffffffffffffffffffffffffffffffffffff16815260200190815260200160002060009054906101000a900460ff16611281576001600a60003373ffffffffffffffffffffffffffffffffffffffff1673ffffffffffffffffffffffffffffffffffffffff16815260200190815260200160002060006101000a81548160ff02191690831515021790555060046000815480929190611218906128e1565b9190505550600c339080600181540180825580915050600190039060005260206000200160009091909190916101000a81548173ffffffffffffffffffffffffffffffffffffffff021916908373ffffffffffffffffffffffffffffffffffffffff1602179055505b5b84600260008282546112949190612716565b925050819055508173ffffffffffffffffffffffffffffffffffffffff166323b872dd3330886040518463ffffffff1660e01b81526004016112d893929190612929565b6020604051808303816000875af11580156112f7573d6000803e3d6000fd5b505050506040513d601f19601f8201168201806040525081019061131b9190612644565b503373ffffffffffffffffffffffffffffffffffffffff167f9f9e4044c5742cca66ca090b21552bac14645e68bad7a92364a9d9ff18111a1c8685604051611364929190612960565b60405180910390a250506113766120b2565b505050565b600080600960008573ffffffffffffffffffffffffffffffffffffffff1673ffffffffffffffffffffffffffffffffffffffff16815260200190815260200160002060008473ffffffffffffffffffffffffffffffffffffffff1673ffffffffffffffffffffffffffffffffffffffff1681526020019081526020016000206040518060800160405290816000820154815260200160018201548152602001600282015481526020016003820160009054906101000a900473ffffffffffffffffffffffffffffffffffffffff1673ffffffffffffffffffffffffffffffffffffffff1673ffffffffffffffffffffffffffffffffffffffff168152505090506301e133806064600554836000015161149491906126d4565b61149e91906129b8565b6114a891906129b8565b91505092915050565b6114b9611ea4565b6000600960003373ffffffffffffffffffffffffffffffffffffffff1673ffffffffffffffffffffffffffffffffffffffff16815260200190815260200160002060008373ffffffffffffffffffffffffffffffffffffffff1673ffffffffffffffffffffffffffffffffffffffff16815260200190815260200160002090506000816000015411611580576040517f08c379a000000000000000000000000000000000000000000000000000000000815260040161157790612a35565b60405180910390fd5b806002015442116115c6576040517f08c379a00000000000000000000000000000000000000000000000000000000081526004016115bd90612ac7565b60405180910390fd5b60008160000154905060006115db338561066f565b905060008490508073ffffffffffffffffffffffffffffffffffffffff1663a9059cbb33856040518363ffffffff1660e01b815260040161161d9291906125ef565b6020604051808303816000875af115801561163c573d6000803e3d6000fd5b505050506040513d601f19601f820116820180604052508101906116609190612644565b50600660009054906101000a900473ffffffffffffffffffffffffffffffffffffffff1673ffffffffffffffffffffffffffffffffffffffff1663a9059cbb33846040518363ffffffff1660e01b81526004016116be9291906125ef565b6020604051808303816000875af11580156116dd573d6000803e3d6000fd5b505050506040513d601f19601f820116820180604052508101906117019190612644565b5081600b60003373ffffffffffffffffffffffffffffffffffffffff1673ffffffffffffffffffffffffffffffffffffffff16815260200190815260200160002060008282546117519190612716565b92505081905550816003600082825461176a9190612716565b92505081905550826002600082825461178391906126a0565b92505081905550600960003373ffffffffffffffffffffffffffffffffffffffff1673ffffffffffffffffffffffffffffffffffffffff16815260200190815260200160002060008673ffffffffffffffffffffffffffffffffffffffff1673ffffffffffffffffffffffffffffffffffffffff168152602001908152602001600020600080820160009055600182016000905560028201600090556003820160006101000a81549073ffffffffffffffffffffffffffffffffffffffff0219169055505061185133611ad4565b6118c6576000600a60003373ffffffffffffffffffffffffffffffffffffffff1673ffffffffffffffffffffffffffffffffffffffff16815260200190815260200160002060006101000a81548160ff021916908315150217905550600460008154809291906118c090612ae7565b91905055505b3373ffffffffffffffffffffffffffffffffffffffff167fcbcdbdf10631a43cc99c80acace8232649421c3f4f73919f16013d47c83a687a848760405161190e929190612960565b60405180910390a2505050506119226120b2565b50565b6060600c8054806020026020016040519081016040528092919081815260200182805480156119a957602002820191906000526020600020905b8160009054906101000a900473ffffffffffffffffffffffffffffffffffffffff1673ffffffffffffffffffffffffffffffffffffffff168152602001906001019080831161195f575b5050505050905090565b6000806000905060005b600c80549050811015611acc576000600c82815481106119e0576119df612b10565b5b9060005260206000200160009054906101000a900473ffffffffffffffffffffffffffffffffffffffff169050611a3981600660009054906101000a900473ffffffffffffffffffffffffffffffffffffffff1661066f565b83611a449190612716565b9250611a7281600760009054906101000a900473ffffffffffffffffffffffffffffffffffffffff1661066f565b83611a7d9190612716565b9250611aab81600860009054906101000a900473ffffffffffffffffffffffffffffffffffffffff1661066f565b83611ab69190612716565b9250508080611ac4906128e1565b9150506119bd565b508091505090565b600080600960008473ffffffffffffffffffffffffffffffffffffffff1673ffffffffffffffffffffffffffffffffffffffff1681526020019081526020016000206000600660009054906101000a900473ffffffffffffffffffffffffffffffffffffffff1673ffffffffffffffffffffffffffffffffffffffff1673ffffffffffffffffffffffffffffffffffffffff168152602001908152602001600020600001541180611c2657506000600960008473ffffffffffffffffffffffffffffffffffffffff1673ffffffffffffffffffffffffffffffffffffffff1681526020019081526020016000206000600760009054906101000a900473ffffffffffffffffffffffffffffffffffffffff1673ffffffffffffffffffffffffffffffffffffffff1673ffffffffffffffffffffffffffffffffffffffff16815260200190815260200160002060000154115b80611cd257506000600960008473ffffffffffffffffffffffffffffffffffffffff1673ffffffffffffffffffffffffffffffffffffffff1681526020019081526020016000206000600860009054906101000a900473ffffffffffffffffffffffffffffffffffffffff1673ffffffffffffffffffffffffffffffffffffffff1673ffffffffffffffffffffffffffffffffffffffff16815260200190815260200160002060000154115b9050919050565b611ce1611d62565b600073ffffffffffffffffffffffffffffffffffffffff168173ffffffffffffffffffffffffffffffffffffffff1603611d50576040517f08c379a0000000000000000000000000000000000000000000000000000000008152600401611d4790612bb1565b60405180910390fd5b611d5981611de0565b50565b60035481565b611d6a6120bb565b73ffffffffffffffffffffffffffffffffffffffff16611d886107a8565b73ffffffffffffffffffffffffffffffffffffffff1614611dde576040517f08c379a0000000000000000000000000000000000000000000000000000000008152600401611dd590612c1d565b60405180910390fd5b565b60008060009054906101000a900473ffffffffffffffffffffffffffffffffffffffff169050816000806101000a81548173ffffffffffffffffffffffffffffffffffffffff021916908373ffffffffffffffffffffffffffffffffffffffff1602179055508173ffffffffffffffffffffffffffffffffffffffff168173ffffffffffffffffffffffffffffffffffffffff167f8be0079c531659141344cd1fd0a4f28419497f9722a3daafe3b4186f6b6457e060405160405180910390a35050565b600260015403611ee9576040517f08c379a0000000000000000000000000000000000000000000000000000000008152600401611ee090612c89565b60405180910390fd5b6002600181905550565b6000600660009054906101000a900473ffffffffffffffffffffffffffffffffffffffff1673ffffffffffffffffffffffffffffffffffffffff168273ffffffffffffffffffffffffffffffffffffffff1603611f7457600660009054906101000a900473ffffffffffffffffffffffffffffffffffffffff1690506120ad565b600760009054906101000a900473ffffffffffffffffffffffffffffffffffffffff1673ffffffffffffffffffffffffffffffffffffffff168273ffffffffffffffffffffffffffffffffffffffff1603611ff357600760009054906101000a900473ffffffffffffffffffffffffffffffffffffffff1690506120ad565b600860009054906101000a900473ffffffffffffffffffffffffffffffffffffffff1673ffffffffffffffffffffffffffffffffffffffff168273ffffffffffffffffffffffffffffffffffffffff160361207257600860009054906101000a900473ffffffffffffffffffffffffffffffffffffffff1690506120ad565b6040517f08c379a00000000000000000000000000000000000000000000000000000000081526004016120a490612cf5565b60405180910390fd5b919050565b60018081905550565b600033905090565b6040518060800160405280600081526020016000815260200160008152602001600073ffffffffffffffffffffffffffffffffffffffff1681525090565b600080fd5b600073ffffffffffffffffffffffffffffffffffffffff82169050919050565b600061213182612106565b9050919050565b61214181612126565b811461214c57600080fd5b50565b60008135905061215e81612138565b92915050565b6000806040838503121561217b5761217a612101565b5b60006121898582860161214f565b925050602061219a8582860161214f565b9150509250929050565b6000819050919050565b6121b7816121a4565b82525050565b6121c681612126565b82525050565b60006080820190506121e160008301876121ae565b6121ee60208301866121ae565b6121fb60408301856121ae565b61220860608301846121bd565b95945050505050565b6000819050919050565b600061223661223161222c84612106565b612211565b612106565b9050919050565b60006122488261221b565b9050919050565b600061225a8261223d565b9050919050565b61226a8161224f565b82525050565b60006020820190506122856000830184612261565b92915050565b6000602082840312156122a1576122a0612101565b5b60006122af8482850161214f565b91505092915050565b60008115159050919050565b6122cd816122b8565b82525050565b60006020820190506122e860008301846122c4565b92915050565b6122f7816121a4565b811461230257600080fd5b50565b600081359050612314816122ee565b92915050565b6000602082840312156123305761232f612101565b5b600061233e84828501612305565b91505092915050565b600060208201905061235c60008301846121ae565b92915050565b6000806040838503121561237957612378612101565b5b600061238785828601612305565b92505060206123988582860161214f565b9150509250929050565b60006020820190506123b760008301846121bd565b92915050565b6123c6816121a4565b82525050565b6123d581612126565b82525050565b6080820160008201516123f160008501826123bd565b50602082015161240460208501826123bd565b50604082015161241760408501826123bd565b50606082015161242a60608501826123cc565b50505050565b60006101a08201905061244660008301876123db565b61245360808301866123db565b6124616101008301856123db565b61246f6101808301846121ae565b95945050505050565b60008060006060848603121561249157612490612101565b5b600061249f8682870161214f565b93505060206124b08682870161214f565b92505060406124c18682870161214f565b9150509250925092565b6000806000606084860312156124e4576124e3612101565b5b60006124f286828701612305565b935050602061250386828701612305565b92505060406125148682870161214f565b9150509250925092565b600081519050919050565b600082825260208201905092915050565b6000819050602082019050919050565b600061255683836123cc565b60208301905092915050565b6000602082019050919050565b600061257a8261251e565b6125848185612529565b935061258f8361253a565b8060005b838110156125c05781516125a7888261254a565b97506125b283612562565b925050600181019050612593565b5085935050505092915050565b600060208201905081810360008301526125e7818461256f565b905092915050565b600060408201905061260460008301856121bd565b61261160208301846121ae565b9392505050565b612621816122b8565b811461262c57600080fd5b50565b60008151905061263e81612618565b92915050565b60006020828403121561265a57612659612101565b5b60006126688482850161262f565b91505092915050565b7f4e487b7100000000000000000000000000000000000000000000000000000000600052601160045260246000fd5b60006126ab826121a4565b91506126b6836121a4565b92508282039050818111156126ce576126cd612671565b5b92915050565b60006126df826121a4565b91506126ea836121a4565b92508282026126f8816121a4565b9150828204841483151761270f5761270e612671565b5b5092915050565b6000612721826121a4565b915061272c836121a4565b925082820190508082111561274457612743612671565b5b92915050565b600082825260208201905092915050565b7f5a65726f20416464726573730000000000000000000000000000000000000000600082015250565b6000612791600c8361274a565b915061279c8261275b565b602082019050919050565b600060208201905081810360008301526127c081612784565b9050919050565b7f416d6f756e742063616e6e6f7420626520300000000000000000000000000000600082015250565b60006127fd60128361274a565b9150612808826127c7565b602082019050919050565b6000602082019050818103600083015261282c816127f0565b9050919050565b600081519050612842816122ee565b92915050565b60006020828403121561285e5761285d612101565b5b600061286c84828501612833565b91505092915050565b7f496e73756666696369656e742062616c616e636520666f72207374616b696e67600082015250565b60006128ab60208361274a565b91506128b682612875565b602082019050919050565b600060208201905081810360008301526128da8161289e565b9050919050565b60006128ec826121a4565b91507fffffffffffffffffffffffffffffffffffffffffffffffffffffffffffffffff820361291e5761291d612671565b5b600182019050919050565b600060608201905061293e60008301866121bd565b61294b60208301856121bd565b61295860408301846121ae565b949350505050565b600060408201905061297560008301856121ae565b61298260208301846121bd565b9392505050565b7f4e487b7100000000000000000000000000000000000000000000000000000000600052601260045260246000fd5b60006129c3826121a4565b91506129ce836121a4565b9250826129de576129dd612989565b5b828204905092915050565b7f4e6f207374616b657320666f756e6420666f7220746869732061646472657373600082015250565b6000612a1f60208361274a565b9150612a2a826129e9565b602082019050919050565b60006020820190508181036000830152612a4e81612a12565b9050919050565b7f43616e6e6f7420756e7374616b65206265666f7265207374616b696e6720647560008201527f726174696f6e20656e6473000000000000000000000000000000000000000000602082015250565b6000612ab1602b8361274a565b9150612abc82612a55565b604082019050919050565b60006020820190508181036000830152612ae081612aa4565b9050919050565b6000612af2826121a4565b915060008203612b0557612b04612671565b5b600182039050919050565b7f4e487b7100000000000000000000000000000000000000000000000000000000600052603260045260246000fd5b7f4f776e61626c653a206e6577206f776e657220697320746865207a65726f206160008201527f6464726573730000000000000000000000000000000000000000000000000000602082015250565b6000612b9b60268361274a565b9150612ba682612b3f565b604082019050919050565b60006020820190508181036000830152612bca81612b8e565b9050919050565b7f4f776e61626c653a2063616c6c6572206973206e6f7420746865206f776e6572600082015250565b6000612c0760208361274a565b9150612c1282612bd1565b602082019050919050565b60006020820190508181036000830152612c3681612bfa565b9050919050565b7f5265656e7472616e637947756172643a207265656e7472616e742063616c6c00600082015250565b6000612c73601f8361274a565b9150612c7e82612c3d565b602082019050919050565b60006020820190508181036000830152612ca281612c66565b9050919050565b7f496e76616c696420746f6b656e20616464726573730000000000000000000000600082015250565b6000612cdf60158361274a565b9150612cea82612ca9565b602082019050919050565b60006020820190508181036000830152612d0e81612cd2565b905091905056fea264697066735822122033c5019ca8281cfc7644da9acb3438f5e3e3cb540bc702b29b146c61f61d846364736f6c63430008140033",
  "linkReferences": {},
  "deployedLinkReferences": {}
}