{
  "_format": "hh-sol-artifact-1",
  "contractName": "LnbgLondonCoinMasterContract",
  "sourceName": "contracts/LnbgLondonCoinMasterContract.sol",
  "abi": [
    {
      "inputs": [
        {
          "internalType": "address",
          "name": "_creedToken",
          "type": "address"
        }
      ],
      "stateMutability": "nonpayable",
      "type": "constructor"
    },
    {
      "anonymous": false,
      "inputs": [
        {
          "indexed": true,
          "internalType": "address",
          "name": "previousOwner",
          "type": "address"
        },
        {
          "indexed": true,
          "internalType": "address",
          "name": "newOwner",
          "type": "address"
        }
      ],
      "name": "OwnershipTransferred",
      "type": "event"
    },
    {
      "inputs": [
        {
          "internalType": "uint256",
          "name": "_tokens",
          "type": "uint256"
        }
      ],
      "name": "changeVotingAmount",
      "outputs": [],
      "stateMutability": "nonpayable",
      "type": "function"
    },
    {
      "inputs": [],
      "name": "creedToken",
      "outputs": [
        {
          "internalType": "contract IERC20",
          "name": "",
          "type": "address"
        }
      ],
      "stateMutability": "view",
      "type": "function"
    },
    {
      "inputs": [
        {
          "internalType": "uint256",
          "name": "_proposalId",
          "type": "uint256"
        }
      ],
      "name": "executeProposal",
      "outputs": [],
      "stateMutability": "nonpayable",
      "type": "function"
    },
    {
      "inputs": [],
      "name": "owner",
      "outputs": [
        {
          "internalType": "address",
          "name": "",
          "type": "address"
        }
      ],
      "stateMutability": "view",
      "type": "function"
    },
    {
      "inputs": [],
      "name": "proposalCount",
      "outputs": [
        {
          "internalType": "uint256",
          "name": "",
          "type": "uint256"
        }
      ],
      "stateMutability": "view",
      "type": "function"
    },
    {
      "inputs": [
        {
          "internalType": "uint256",
          "name": "",
          "type": "uint256"
        }
      ],
      "name": "proposals",
      "outputs": [
        {
          "internalType": "address",
          "name": "proposer",
          "type": "address"
        },
        {
          "internalType": "string",
          "name": "description",
          "type": "string"
        },
        {
          "internalType": "uint256",
          "name": "startTime",
          "type": "uint256"
        },
        {
          "internalType": "uint256",
          "name": "endTime",
          "type": "uint256"
        },
        {
          "internalType": "uint256",
          "name": "yesVotes",
          "type": "uint256"
        },
        {
          "internalType": "uint256",
          "name": "noVotes",
          "type": "uint256"
        },
        {
          "internalType": "bool",
          "name": "executed",
          "type": "bool"
        }
      ],
      "stateMutability": "view",
      "type": "function"
    },
    {
      "inputs": [],
      "name": "renounceOwnership",
      "outputs": [],
      "stateMutability": "nonpayable",
      "type": "function"
    },
    {
      "inputs": [
        {
          "internalType": "string",
          "name": "_description",
          "type": "string"
        }
      ],
      "name": "submitProposal",
      "outputs": [],
      "stateMutability": "nonpayable",
      "type": "function"
    },
    {
      "inputs": [],
      "name": "tokenForVote",
      "outputs": [
        {
          "internalType": "uint256",
          "name": "",
          "type": "uint256"
        }
      ],
      "stateMutability": "view",
      "type": "function"
    },
    {
      "inputs": [
        {
          "internalType": "address",
          "name": "newOwner",
          "type": "address"
        }
      ],
      "name": "transferOwnership",
      "outputs": [],
      "stateMutability": "nonpayable",
      "type": "function"
    },
    {
      "inputs": [
        {
          "internalType": "uint256",
          "name": "_proposalId",
          "type": "uint256"
        },
        {
          "internalType": "bool",
          "name": "_supportsProposal",
          "type": "bool"
        }
      ],
      "name": "vote",
      "outputs": [],
      "stateMutability": "nonpayable",
      "type": "function"
    }
  ],
  "bytecode": "0x6080346100b357601f610aa738819003918201601f19168301916001600160401b038311848410176100b8578084926020946040528339810103126100b357516001600160a01b0390818116908190036100b35760005460018060a01b0319903382821617600055604051933391167f8be0079c531659141344cd1fd0a4f28419497f9722a3daafe3b4186f6b6457e0600080a36003541617600355670de0b6b3a76400006002556109d890816100cf8239f35b600080fd5b634e487b7160e01b600052604160045260246000fdfe608060408181526004918236101561001657600080fd5b600092833560e01c918263013cf08b14610766575081630d61b51914610682578163373d6d5e14610436578163715018a6146103d957816389354385146103ba5781638da5cb5b14610392578163c9d27afe146101d9578163d2e9bb24146101b7578163da35c66414610198578163f2fde38b146100c9575063f60cd3d81461009e57600080fd5b346100c557816003193601126100c55760035490516001600160a01b039091168152602090f35b5080fd5b91905034610194576020366003190112610194576001600160a01b03823581811693919290849003610190576100fd610925565b831561013e57505082546001600160a01b0319811683178455167f8be0079c531659141344cd1fd0a4f28419497f9722a3daafe3b4186f6b6457e08380a380f35b906020608492519162461bcd60e51b8352820152602660248201527f4f776e61626c653a206e6577206f776e657220697320746865207a65726f206160448201526564647265737360d01b6064820152fd5b8480fd5b8280fd5b5050346100c557816003193601126100c5576020906001549051908152f35b8390346100c55760203660031901126100c5576101d2610925565b3560025580f35b905034610194578160031936011261019457602435801515810361038e5781358452602090828252838520906003820154421015610356578382019333875284845260ff86882054166103235760035486516370a0823160e01b81523383820152908590829060249082906001600160a01b03165afa9081156103195788916102e8575b5060025410156102a55750156102915760050161027a815461097d565b90555b338452528120805460ff1916600117905580f35b60060161029e815461097d565b905561027d565b855162461bcd60e51b8152908101849052601e60248201527f596f7520646f6e7420686176652062616c616e636520666f7220766f746500006044820152606490fd5b90508481813d8311610312575b6102ff81836108ed565b8101031261030e57513861025d565b8780fd5b503d6102f5565b87513d8a823e3d90fd5b855162461bcd60e51b8152908101849052600d60248201526c105b1c9958591e481d9bdd1959609a1b6044820152606490fd5b5050606492519162461bcd60e51b83528201526013602482015272159bdd1a5b99c81c195c9a5bd908195b991959606a1b6044820152fd5b8380fd5b5050346100c557816003193601126100c557905490516001600160a01b039091168152602090f35b5050346100c557816003193601126100c5576020906002549051908152f35b83346104335780600319360112610433576103f2610925565b80546001600160a01b03198116825581906001600160a01b03167f8be0079c531659141344cd1fd0a4f28419497f9722a3daafe3b4186f6b6457e08280a380f35b80fd5b8383346100c5576020908160031936011261019457833567ffffffffffffffff808211610190573660238301121561019057818601359281841161066f57805193601f199361048c601f830186168801876108ed565b818652366024838301011161030e578188926024899301838901378601015283511561062d576001906104bf825461097d565b8083558752878652862094336bffffffffffffffffffffffff60a01b87541617865581860194805193841161061a576104f886546108b3565b601f81116105d4575b5081601f85116001146105735750839450908392918894610568575b50501b916000199060031b1c19161790555b42600282015562278d004201804211610555576003820155600701805460ff1916905580f35b634e487b7160e01b835260118452602483fd5b01519250888061051d565b929484908116878a52848a20948a905b888383106105ba57505050106105a1575b505050811b01905561052f565b015160001960f88460031b161c19169055868080610594565b858701518855909601959485019487935090810190610583565b868952828920601f860160051c810191848710610610575b601f0160051c019084905b828110610605575050610501565b8a81550184906105f7565b90915081906105ec565b634e487b7160e01b885260418952602488fd5b5162461bcd60e51b8152808701859052601d60248201527f4465736372697074696f6e206d757374206e6f7420626520656d7074790000006044820152606490fd5b634e487b7160e01b865260418752602486fd5b919050346101945760203660031901126101945781358352816020528083206003810154421061072357600781019283549260ff84166106e057505060066005820154910154106106d1578280f35b60ff1916600117905538808280f35b906020606492519162461bcd60e51b8352820152601960248201527f50726f706f73616c20616c7265616479206578656375746564000000000000006044820152fd5b815162461bcd60e51b8152602081850152601760248201527f566f74696e6720706572696f64206e6f7420656e6465640000000000000000006044820152606490fd5b848491346100c55760209384600319360112610194578035835284528282209260018060a01b03845416938583600180840187918154916107a6836108b3565b808652928281169081156108905750600114610853575b5050506107cc925003846108ed565b6002810154600382015460058301549160ff600760068601549501541694805198895260e08a8a01528651968760e08b0152885b88811061083e575050889950610100989789888a0101528701526060860152608085015260a0840152151560c0830152601f80199101168101030190f35b8181018c01518b820161010001528b01610800565b89528489209492508891905b81831061087857508a9450508201016107cc8a806107bd565b8554898401850152948501948894509183019161085f565b925050506107cc94925060ff191682840152151560051b82010188928a806107bd565b90600182811c921680156108e3575b60208310146108cd57565b634e487b7160e01b600052602260045260246000fd5b91607f16916108c2565b90601f8019910116810190811067ffffffffffffffff82111761090f57604052565b634e487b7160e01b600052604160045260246000fd5b6000546001600160a01b0316330361093957565b606460405162461bcd60e51b815260206004820152602060248201527f4f776e61626c653a2063616c6c6572206973206e6f7420746865206f776e65726044820152fd5b600019811461098c5760010190565b634e487b7160e01b600052601160045260246000fdfea26469706673582212202afdb0ffa165b86a912f78df7bd185d568cc20b1fb5dc2b9e8a84d9679ffe68564736f6c63430008140033",
  "linkReferences": {},
  "deployedLinkReferences": {}
}