{
  "_format": "hh-sol-artifact-1",
  "contractName": "LnbgLondonCoinStakingContract",
  "sourceName": "contracts/LnbgLondonCoinStakingContract.sol",
  "abi": [
    {
      "inputs": [
        {
          "internalType": "address",
          "name": "_lnbgToken",
          "type": "address"
        },
        {
          "internalType": "address",
          "name": "_usdtToken",
          "type": "address"
        },
        {
          "internalType": "address",
          "name": "_usdcToken",
          "type": "address"
        },
        {
          "internalType": "address",
          "name": "_wethToken",
          "type": "address"
        },
        {
          "internalType": "address",
          "name": "_wbtcToken",
          "type": "address"
        },
        {
          "internalType": "address",
          "name": "_wbnbToken",
          "type": "address"
        }
      ],
      "stateMutability": "nonpayable",
      "type": "constructor"
    },
    {
      "anonymous": false,
      "inputs": [
        {
          "indexed": true,
          "internalType": "address",
          "name": "previousOwner",
          "type": "address"
        },
        {
          "indexed": true,
          "internalType": "address",
          "name": "newOwner",
          "type": "address"
        }
      ],
      "name": "OwnershipTransferred",
      "type": "event"
    },
    {
      "anonymous": false,
      "inputs": [
        {
          "indexed": true,
          "internalType": "address",
          "name": "by",
          "type": "address"
        },
        {
          "indexed": false,
          "internalType": "uint256",
          "name": "amount",
          "type": "uint256"
        },
        {
          "indexed": false,
          "internalType": "address",
          "name": "token",
          "type": "address"
        }
      ],
      "name": "Staked",
      "type": "event"
    },
    {
      "anonymous": false,
      "inputs": [
        {
          "indexed": true,
          "internalType": "address",
          "name": "by",
          "type": "address"
        },
        {
          "indexed": false,
          "internalType": "uint256",
          "name": "amount",
          "type": "uint256"
        },
        {
          "indexed": false,
          "internalType": "address",
          "name": "token",
          "type": "address"
        }
      ],
      "name": "Withdrawn",
      "type": "event"
    },
    {
      "inputs": [
        {
          "internalType": "address",
          "name": "_lnbgToken",
          "type": "address"
        },
        {
          "internalType": "address",
          "name": "_usdtToken",
          "type": "address"
        },
        {
          "internalType": "address",
          "name": "_usdcToken",
          "type": "address"
        },
        {
          "internalType": "address",
          "name": "_wethToken",
          "type": "address"
        },
        {
          "internalType": "address",
          "name": "_wbtcToken",
          "type": "address"
        },
        {
          "internalType": "address",
          "name": "_wbnbToken",
          "type": "address"
        }
      ],
      "name": "changeTokenAddress",
      "outputs": [],
      "stateMutability": "nonpayable",
      "type": "function"
    },
    {
      "inputs": [
        {
          "internalType": "address",
          "name": "",
          "type": "address"
        }
      ],
      "name": "claimedRewards",
      "outputs": [
        {
          "internalType": "uint256",
          "name": "",
          "type": "uint256"
        }
      ],
      "stateMutability": "view",
      "type": "function"
    },
    {
      "inputs": [],
      "name": "getAllInvestors",
      "outputs": [
        {
          "internalType": "address[]",
          "name": "",
          "type": "address[]"
        }
      ],
      "stateMutability": "view",
      "type": "function"
    },
    {
      "inputs": [],
      "name": "getTotalEarnings",
      "outputs": [
        {
          "internalType": "uint256",
          "name": "",
          "type": "uint256"
        }
      ],
      "stateMutability": "view",
      "type": "function"
    },
    {
      "inputs": [
        {
          "internalType": "address",
          "name": "_user",
          "type": "address"
        }
      ],
      "name": "hasActiveStakes",
      "outputs": [
        {
          "internalType": "bool",
          "name": "",
          "type": "bool"
        }
      ],
      "stateMutability": "view",
      "type": "function"
    },
    {
      "inputs": [
        {
          "internalType": "address",
          "name": "",
          "type": "address"
        }
      ],
      "name": "investor",
      "outputs": [
        {
          "internalType": "bool",
          "name": "",
          "type": "bool"
        }
      ],
      "stateMutability": "view",
      "type": "function"
    },
    {
      "inputs": [
        {
          "internalType": "uint256",
          "name": "",
          "type": "uint256"
        }
      ],
      "name": "investorAddresses",
      "outputs": [
        {
          "internalType": "address",
          "name": "",
          "type": "address"
        }
      ],
      "stateMutability": "view",
      "type": "function"
    },
    {
      "inputs": [],
      "name": "lnbgToken",
      "outputs": [
        {
          "internalType": "contract IERC20",
          "name": "",
          "type": "address"
        }
      ],
      "stateMutability": "view",
      "type": "function"
    },
    {
      "inputs": [],
      "name": "owner",
      "outputs": [
        {
          "internalType": "address",
          "name": "",
          "type": "address"
        }
      ],
      "stateMutability": "view",
      "type": "function"
    },
    {
      "inputs": [],
      "name": "renounceOwnership",
      "outputs": [],
      "stateMutability": "nonpayable",
      "type": "function"
    },
    {
      "inputs": [],
      "name": "reward",
      "outputs": [
        {
          "internalType": "uint256",
          "name": "",
          "type": "uint256"
        }
      ],
      "stateMutability": "view",
      "type": "function"
    },
    {
      "inputs": [
        {
          "internalType": "address",
          "name": "_user",
          "type": "address"
        },
        {
          "internalType": "address",
          "name": "_token",
          "type": "address"
        }
      ],
      "name": "rewardRateInSeconds",
      "outputs": [
        {
          "internalType": "uint256",
          "name": "",
          "type": "uint256"
        }
      ],
      "stateMutability": "view",
      "type": "function"
    },
    {
      "inputs": [
        {
          "internalType": "address",
          "name": "_user",
          "type": "address"
        },
        {
          "internalType": "address",
          "name": "_token",
          "type": "address"
        }
      ],
      "name": "rewardedTokens",
      "outputs": [
        {
          "internalType": "uint256",
          "name": "",
          "type": "uint256"
        }
      ],
      "stateMutability": "view",
      "type": "function"
    },
    {
      "inputs": [
        {
          "internalType": "uint256",
          "name": "_percentage",
          "type": "uint256"
        }
      ],
      "name": "setAnnualRewardPercentage",
      "outputs": [],
      "stateMutability": "nonpayable",
      "type": "function"
    },
    {
      "inputs": [
        {
          "internalType": "uint256",
          "name": "_tokens",
          "type": "uint256"
        },
        {
          "internalType": "uint256",
          "name": "_duration",
          "type": "uint256"
        },
        {
          "internalType": "address",
          "name": "_token",
          "type": "address"
        }
      ],
      "name": "stakeTokens",
      "outputs": [],
      "stateMutability": "nonpayable",
      "type": "function"
    },
    {
      "inputs": [],
      "name": "totalClaimedTokens",
      "outputs": [
        {
          "internalType": "uint256",
          "name": "",
          "type": "uint256"
        }
      ],
      "stateMutability": "view",
      "type": "function"
    },
    {
      "inputs": [],
      "name": "totalInvestors",
      "outputs": [
        {
          "internalType": "uint256",
          "name": "",
          "type": "uint256"
        }
      ],
      "stateMutability": "view",
      "type": "function"
    },
    {
      "inputs": [],
      "name": "totalStakedTokens",
      "outputs": [
        {
          "internalType": "uint256",
          "name": "",
          "type": "uint256"
        }
      ],
      "stateMutability": "view",
      "type": "function"
    },
    {
      "inputs": [
        {
          "internalType": "address",
          "name": "newOwner",
          "type": "address"
        }
      ],
      "name": "transferOwnership",
      "outputs": [],
      "stateMutability": "nonpayable",
      "type": "function"
    },
    {
      "inputs": [
        {
          "internalType": "address",
          "name": "_token",
          "type": "address"
        }
      ],
      "name": "unstakeTokensRequest",
      "outputs": [],
      "stateMutability": "nonpayable",
      "type": "function"
    },
    {
      "inputs": [],
      "name": "usdcToken",
      "outputs": [
        {
          "internalType": "contract IERC20",
          "name": "",
          "type": "address"
        }
      ],
      "stateMutability": "view",
      "type": "function"
    },
    {
      "inputs": [],
      "name": "usdtToken",
      "outputs": [
        {
          "internalType": "contract IERC20",
          "name": "",
          "type": "address"
        }
      ],
      "stateMutability": "view",
      "type": "function"
    },
    {
      "inputs": [
        {
          "internalType": "address",
          "name": "",
          "type": "address"
        },
        {
          "internalType": "address",
          "name": "",
          "type": "address"
        }
      ],
      "name": "userStakesByToken",
      "outputs": [
        {
          "internalType": "uint256",
          "name": "stakedTokens",
          "type": "uint256"
        },
        {
          "internalType": "uint256",
          "name": "startTime",
          "type": "uint256"
        },
        {
          "internalType": "uint256",
          "name": "duration",
          "type": "uint256"
        },
        {
          "internalType": "address",
          "name": "stakedTokenAddress",
          "type": "address"
        }
      ],
      "stateMutability": "view",
      "type": "function"
    },
    {
      "inputs": [],
      "name": "wbnbToken",
      "outputs": [
        {
          "internalType": "contract IERC20",
          "name": "",
          "type": "address"
        }
      ],
      "stateMutability": "view",
      "type": "function"
    },
    {
      "inputs": [],
      "name": "wbtcToken",
      "outputs": [
        {
          "internalType": "contract IERC20",
          "name": "",
          "type": "address"
        }
      ],
      "stateMutability": "view",
      "type": "function"
    },
    {
      "inputs": [],
      "name": "wethToken",
      "outputs": [
        {
          "internalType": "contract IERC20",
          "name": "",
          "type": "address"
        }
      ],
      "stateMutability": "view",
      "type": "function"
    },
    {
      "inputs": [
        {
          "internalType": "uint256",
          "name": "_amount",
          "type": "uint256"
        },
        {
          "internalType": "address",
          "name": "_token",
          "type": "address"
        }
      ],
      "name": "withdrawTokens",
      "outputs": [],
      "stateMutability": "nonpayable",
      "type": "function"
    }
  ],
  "bytecode": "0x6080346200013c57601f620015d338819003918201601f19168301916001600160401b03831184841017620001415780849260c0946040528339810103126200013c576200004d8162000157565b906200005c6020820162000157565b906200006b6040820162000157565b906200007a6060820162000157565b926200009760a06200008f6080850162000157565b930162000157565b916000549560018060a01b03199533878916176000556040519760018060a01b03968780968180968195823391167f8be0079c531659141344cd1fd0a4f28419497f9722a3daafe3b4186f6b6457e0600080a360018055168b60065416176006551689600754161760075516876008541617600855168560095416176009551683600a541617600a551690600b541617600b55600a60055561146690816200016d8239f35b600080fd5b634e487b7160e01b600052604160045260246000fd5b51906001600160a01b03821682036200013c5756fe608060408181526004918236101561001657600080fd5b600092833560e01c9182630d47551914610f295750816311eac85514610f005781631b1cd4ff14610ec25781631f94e1da14610ea0578163228cb73314610e8157816327614df814610e5857816329b8caff14610e3a578163398d92bb14610d9f5781633ae7325914610d805781634b57b0be14610d5757816363c7abf814610d2e578163715018a614610cd4578163880ee3ea14610ca65781638da5cb5b14610c7e57816395a25efa14610c3d578163a98ad46c14610c14578163b0ec4a4a14610ac2578163bd83434514610a8a578163bee793e914610735578163c424ea5d14610700578163cb1398681461042d578163d0a2f2c414610368578163d21f95431461028d578163dce2089e1461025e578163f2fde38b1461019757508063f3d5bec91461016f5763fcb56f471461014e57600080fd5b3461016b578160031936011261016b576020906003549051908152f35b5080fd5b503461016b578160031936011261016b57600b5490516001600160a01b039091168152602090f35b90503461025a57602036600319011261025a576101b2610f96565b906101bb61102a565b6001600160a01b0391821692831561020857505082546001600160a01b0319811683178455167f8be0079c531659141344cd1fd0a4f28419497f9722a3daafe3b4186f6b6457e08380a380f35b906020608492519162461bcd60e51b8352820152602660248201527f4f776e61626c653a206e6577206f776e657220697320746865207a65726f206160448201526564647265737360d01b6064820152fd5b8280fd5b50503461016b57602036600319011261016b5760209061028461027f610f96565b61127c565b90519015158152f35b8284346103655780600319360112610365578091600f549260018060a01b0380600654168160075416826008541683600954169084600a54169285600b5416955b8a88106102df5760208a8a51908152f35b90919293949596986103538761031f8a61034d6103438f61032f6103256103599961031f8c61031061033996610fdd565b90549060031b1c16998a61110c565b90611219565b61031f8c8961110c565b61031f8c8861110c565b61031f8c8761110c565b61031f8c8661110c565b9261110c565b9961120a565b969594939291906102ce565b80fd5b828434610365578060031936011261036557908051918290600f549182855260208095018093600f84527f8d1108e10bcb7c27dddfc02ed9d693a074039d026cf4ea4240b40f7d581ac80290845b81811061041057505050816103cc9103826110b4565b83519485948186019282875251809352850193925b8281106103f057505050500390f35b83516001600160a01b0316855286955093810193928101926001016103e1565b82546001600160a01b0316845292880192600192830192016103b6565b83833461016b576020908160031936011261025a5761044a610f96565b90610453611226565b338452600c83528084206001600160a01b0383811680875291855282862080549592919086156106bf57600201544211156106685787610493863361110c565b855163a9059cbb60e01b80825233938201938452602084018a90529193919286908290819060400103818d895af1801561065e57928b8b8894879461050697610641575b5060065416928a519687958694859384523390840160209093929193604081019460018060a01b031681520152565b03925af18015610637579061053b929161060a575b50338852600e8452848820610531828254611219565b9055600354611219565b60035561054a856002546110d6565b600255338652600c82528286209086528152846003838220828155826001820155826002820155015561057c3361127c565b156105c9575b50519182526001600160a01b0316602082015233907fcbcdbdf10631a43cc99c80acace8232649421c3f4f73919f16013d47c83a687a9080604081015b0390a26001805580f35b338552600d9052808420805460ff19169055845480156105f7576000190190945591928392906105bf610582565b634e487b7160e01b855260118652602485fd5b61062990853d8711610630575b61062181836110b4565b8101906111f2565b508961051b565b503d610617565b85513d8a823e3d90fd5b61065790873d89116106305761062181836110b4565b508f6104d7565b87513d8c823e3d90fd5b835162461bcd60e51b8152808901849052602b60248201527f43616e6e6f7420756e7374616b65206265666f7265207374616b696e6720647560448201526a726174696f6e20656e647360a81b6064820152608490fd5b606489858088519262461bcd60e51b845283015260248201527f4e6f207374616b657320666f756e6420666f72207468697320616464726573736044820152fd5b50503461016b578060031936011261016b5760209061072e610720610f96565b610728610fb1565b90611181565b9051908152f35b90503461025a57606036600319011261025a5780359160248035610757610fc7565b93610760611226565b8515610a53576001600160a01b03908161077987611376565b16938551946370a0823160e01b8652338387015260209586818481855afa908115610a4957908a918c91610a14575b50106109d457858a9160648b8a5194859384926323b872dd60e01b8452338a850152308985015260448401525af1801561065e576109b7575b50338952600c8552858920878416808b52908652868a208054909691901561087657505050505091816105bf9361083b877f9f9e4044c5742cca66ca090b21552bac14645e68bad7a92364a9d9ff18111a1c979554611219565b825560028201556001429101555b61085585600254611219565b600255519384526001600160a01b0316602084015233929081906040820190565b9091938096506003600d949689519061088e82611082565b8c82528d8b878401914283528185019384526060850197808952338252600c8a5282822090825289522092518355516001830155516002820155019151166bffffffffffffffffffffffff60a01b82541617905533895252838720805460ff811615610925575b50505050507f9f9e4044c5742cca66ca090b21552bac14645e68bad7a92364a9d9ff18111a1c916105bf91610849565b60ff1916600117905581546109399061120a565b8255600f5491680100000000000000008310156109a6575050917f9f9e4044c5742cca66ca090b21552bac14645e68bad7a92364a9d9ff18111a1c93916109898460016105bf9601600f55610fdd565b819291549060031b9133831b921b191617905591819338806108f5565b634e487b7160e01b88526041905286fd5b6109cd90863d88116106305761062181836110b4565b50386107e1565b6064838784818b519362461bcd60e51b85528401528201527f496e73756666696369656e742062616c616e636520666f72207374616b696e676044820152fd5b809250888092503d8311610a42575b610a2d81836110b4565b81010312610a3e57899051386107a8565b8a80fd5b503d610a23565b88513d8d823e3d90fd5b606490601284602087519362461bcd60e51b8552840152820152710416d6f756e742063616e6e6f7420626520360741b6044820152fd5b50503461016b57602036600319011261016b5760209181906001600160a01b03610ab2610f96565b168152600e845220549051908152f35b9190503461025a5760c036600319011261025a57610ade610f96565b91610ae7610fb1565b610aef610fc7565b6064356001600160a01b0381811693909291849003610c105760843594838616809603610c0c5760a43597848916809903610c08578490610b2e61102a565b169687151580610bfd575b80610bf2575b80610be9575b80610be0575b80610bd7575b15610ba557505082906bffffffffffffffffffffffff60a01b96876006541617600655168560075416176007551683600854161760085582600954161760095581600a541617600a55600b541617600b5580f35b906020606492519162461bcd60e51b8352820152600c60248201526b5a65726f204164647265737360a01b6044820152fd5b50881515610b51565b50861515610b4b565b50851515610b45565b508484161515610b3f565b508483161515610b39565b8980fd5b8880fd5b8780fd5b50503461016b578160031936011261016b5760075490516001600160a01b039091168152602090f35b90503461025a57602036600319011261025a573591600f548310156103655750610c68602092610fdd565b905491519160018060a01b039160031b1c168152f35b50503461016b578160031936011261016b57905490516001600160a01b039091168152602090f35b50503461016b578060031936011261016b5760209061072e610cc6610f96565b610cce610fb1565b9061110c565b8334610365578060031936011261036557610ced61102a565b80546001600160a01b03198116825581906001600160a01b03167f8be0079c531659141344cd1fd0a4f28419497f9722a3daafe3b4186f6b6457e08280a380f35b50503461016b578160031936011261016b5760065490516001600160a01b039091168152602090f35b50503461016b578160031936011261016b5760095490516001600160a01b039091168152602090f35b50503461016b578160031936011261016b576020906002549051908152f35b9190503461025a578060031936011261025a576020610e0192610dc0610fb1565b610dc861102a565b8554845163a9059cbb60e01b81526001600160a01b03918216848201908152933560208501529586938492899290918491604090910190565b0393165af1908115610e315750610e16575080f35b610e2d9060203d81116106305761062181836110b4565b5080f35b513d84823e3d90fd5b90503461025a578260031936011261025a5760209250549051908152f35b50503461016b578160031936011261016b57600a5490516001600160a01b039091168152602090f35b50503461016b578160031936011261016b576020906005549051908152f35b83903461016b57602036600319011261016b57610ebb61102a565b3560055580f35b50503461016b57602036600319011261016b5760209160ff9082906001600160a01b03610eed610f96565b168152600d855220541690519015158152f35b50503461016b578160031936011261016b5760085490516001600160a01b039091168152602090f35b8490843461025a578060031936011261025a579182608093610f49610f96565b92610f52610fb1565b60018060a01b038095168252600c60205284838320911682526020522090815492600183015490600360028501549401541693855260208501528301526060820152f35b600435906001600160a01b0382168203610fac57565b600080fd5b602435906001600160a01b0382168203610fac57565b604435906001600160a01b0382168203610fac57565b600f5481101561101457600f6000527f8d1108e10bcb7c27dddfc02ed9d693a074039d026cf4ea4240b40f7d581ac8020190600090565b634e487b7160e01b600052603260045260246000fd5b6000546001600160a01b0316330361103e57565b606460405162461bcd60e51b815260206004820152602060248201527f4f776e61626c653a2063616c6c6572206973206e6f7420746865206f776e65726044820152fd5b6080810190811067ffffffffffffffff82111761109e57604052565b634e487b7160e01b600052604160045260246000fd5b90601f8019910116810190811067ffffffffffffffff82111761109e57604052565b919082039182116110e357565b634e487b7160e01b600052601160045260246000fd5b818102929181159184041417156110e357565b61117961117e9261117360018060a01b03808516600052600c602052604060002081841660005260205260406000209060606040519161114b83611082565b83548352600360018501549485602086015260028101546040860152015416910152426110d6565b92611181565b6110f9565b90565b6111ed6064916301e133809360018060a01b03809216600052600c60205281604060002091166000526020526040600020906060604051916111c283611082565b60038454948585526001810154602086015260028101546040860152015416910152600554906110f9565b040490565b90816020910312610fac57518015158103610fac5790565b60001981146110e35760010190565b919082018092116110e357565b600260015414611237576002600155565b60405162461bcd60e51b815260206004820152601f60248201527f5265656e7472616e637947756172643a207265656e7472616e742063616c6c006044820152606490fd5b6001600160a01b039081166000818152600c602081815260408084206006548716855282528084205415801596919591939190611357575b8615611338575b8615611319575b86156112fa575b86156112d9575b50505050505090565b84528152838320600b549092168352522054151590503880808080806112d0565b808552818352858520600a5485168652835285852054151596506112c9565b80855281835285852060095485168652835285852054151596506112c2565b80855281835285852060085485168652835285852054151596506112bb565b80855281835285852060075485168652835285852054151596506112b4565b6006546001600160a01b039081169181169081830361139457505090565b60075481169250908281036113a857505090565b60085482169250908282036113bc57505090565b60095481169250908281036113d057505090565b600a5482169250908282036113e457505090565b600b5416915081036113f35790565b60405162461bcd60e51b8152602060048201526015602482015274496e76616c696420746f6b656e206164647265737360581b6044820152606490fdfea2646970667358221220932273e5202f3641b074c05d2368aece44d5eb94485c53480cb6c67f00de3a8a64736f6c63430008140033",
  "linkReferences": {},
  "deployedLinkReferences": {}
}