{
  "_format": "hh-sol-artifact-1",
  "contractName": "LnbgLondonCoinStakingContract",
  "sourceName": "contracts/LnbgLondonCoinStakingContract.sol",
  "abi": [
    {
      "inputs": [
        {
          "internalType": "address",
          "name": "_creedToken",
          "type": "address"
        },
        {
          "internalType": "address",
          "name": "_usdtToken",
          "type": "address"
        },
        {
          "internalType": "address",
          "name": "_usdcToken",
          "type": "address"
        }
      ],
      "stateMutability": "nonpayable",
      "type": "constructor"
    },
    {
      "anonymous": false,
      "inputs": [
        {
          "indexed": true,
          "internalType": "address",
          "name": "previousOwner",
          "type": "address"
        },
        {
          "indexed": true,
          "internalType": "address",
          "name": "newOwner",
          "type": "address"
        }
      ],
      "name": "OwnershipTransferred",
      "type": "event"
    },
    {
      "anonymous": false,
      "inputs": [
        {
          "indexed": true,
          "internalType": "address",
          "name": "by",
          "type": "address"
        },
        {
          "indexed": false,
          "internalType": "uint256",
          "name": "amount",
          "type": "uint256"
        },
        {
          "indexed": false,
          "internalType": "address",
          "name": "token",
          "type": "address"
        }
      ],
      "name": "Staked",
      "type": "event"
    },
    {
      "anonymous": false,
      "inputs": [
        {
          "indexed": true,
          "internalType": "address",
          "name": "by",
          "type": "address"
        },
        {
          "indexed": false,
          "internalType": "uint256",
          "name": "amount",
          "type": "uint256"
        },
        {
          "indexed": false,
          "internalType": "address",
          "name": "token",
          "type": "address"
        }
      ],
      "name": "Withdrawn",
      "type": "event"
    },
    {
      "inputs": [
        {
          "internalType": "address",
          "name": "_creedToken",
          "type": "address"
        },
        {
          "internalType": "address",
          "name": "_usdtToken",
          "type": "address"
        },
        {
          "internalType": "address",
          "name": "_usdcToken",
          "type": "address"
        }
      ],
      "name": "changeTokenAddress",
      "outputs": [],
      "stateMutability": "nonpayable",
      "type": "function"
    },
    {
      "inputs": [
        {
          "internalType": "address",
          "name": "",
          "type": "address"
        }
      ],
      "name": "claimedRewards",
      "outputs": [
        {
          "internalType": "uint256",
          "name": "",
          "type": "uint256"
        }
      ],
      "stateMutability": "view",
      "type": "function"
    },
    {
      "inputs": [],
      "name": "creedToken",
      "outputs": [
        {
          "internalType": "contract IERC20",
          "name": "",
          "type": "address"
        }
      ],
      "stateMutability": "view",
      "type": "function"
    },
    {
      "inputs": [],
      "name": "getAllInvestors",
      "outputs": [
        {
          "internalType": "address[]",
          "name": "",
          "type": "address[]"
        }
      ],
      "stateMutability": "view",
      "type": "function"
    },
    {
      "inputs": [],
      "name": "getAllUsersClaimedTokens",
      "outputs": [
        {
          "internalType": "uint256[]",
          "name": "",
          "type": "uint256[]"
        }
      ],
      "stateMutability": "view",
      "type": "function"
    },
    {
      "inputs": [],
      "name": "getAllUsersEarnedTokens",
      "outputs": [
        {
          "internalType": "uint256[]",
          "name": "",
          "type": "uint256[]"
        }
      ],
      "stateMutability": "view",
      "type": "function"
    },
    {
      "inputs": [
        {
          "internalType": "address",
          "name": "",
          "type": "address"
        }
      ],
      "name": "investor",
      "outputs": [
        {
          "internalType": "bool",
          "name": "",
          "type": "bool"
        }
      ],
      "stateMutability": "view",
      "type": "function"
    },
    {
      "inputs": [
        {
          "internalType": "uint256",
          "name": "",
          "type": "uint256"
        }
      ],
      "name": "investorAddresses",
      "outputs": [
        {
          "internalType": "address",
          "name": "",
          "type": "address"
        }
      ],
      "stateMutability": "view",
      "type": "function"
    },
    {
      "inputs": [],
      "name": "owner",
      "outputs": [
        {
          "internalType": "address",
          "name": "",
          "type": "address"
        }
      ],
      "stateMutability": "view",
      "type": "function"
    },
    {
      "inputs": [],
      "name": "renounceOwnership",
      "outputs": [],
      "stateMutability": "nonpayable",
      "type": "function"
    },
    {
      "inputs": [],
      "name": "reward",
      "outputs": [
        {
          "internalType": "uint256",
          "name": "",
          "type": "uint256"
        }
      ],
      "stateMutability": "view",
      "type": "function"
    },
    {
      "inputs": [
        {
          "internalType": "address",
          "name": "_addr",
          "type": "address"
        },
        {
          "internalType": "uint256",
          "name": "_index",
          "type": "uint256"
        }
      ],
      "name": "rewardRateInSeconds",
      "outputs": [
        {
          "internalType": "uint256",
          "name": "",
          "type": "uint256"
        }
      ],
      "stateMutability": "view",
      "type": "function"
    },
    {
      "inputs": [
        {
          "internalType": "address",
          "name": "_addr",
          "type": "address"
        },
        {
          "internalType": "uint256",
          "name": "_index",
          "type": "uint256"
        }
      ],
      "name": "rewardedTokens",
      "outputs": [
        {
          "internalType": "uint256",
          "name": "",
          "type": "uint256"
        }
      ],
      "stateMutability": "view",
      "type": "function"
    },
    {
      "inputs": [
        {
          "internalType": "uint256",
          "name": "_percentage",
          "type": "uint256"
        }
      ],
      "name": "setAnnualRewardPercentage",
      "outputs": [],
      "stateMutability": "nonpayable",
      "type": "function"
    },
    {
      "inputs": [
        {
          "internalType": "uint256",
          "name": "_tokens",
          "type": "uint256"
        },
        {
          "internalType": "uint256",
          "name": "_duration",
          "type": "uint256"
        },
        {
          "internalType": "address",
          "name": "_token",
          "type": "address"
        }
      ],
      "name": "stakeTokens",
      "outputs": [],
      "stateMutability": "nonpayable",
      "type": "function"
    },
    {
      "inputs": [],
      "name": "totalInvestors",
      "outputs": [
        {
          "internalType": "uint256",
          "name": "",
          "type": "uint256"
        }
      ],
      "stateMutability": "view",
      "type": "function"
    },
    {
      "inputs": [],
      "name": "totalStakedTokens",
      "outputs": [
        {
          "internalType": "uint256",
          "name": "",
          "type": "uint256"
        }
      ],
      "stateMutability": "view",
      "type": "function"
    },
    {
      "inputs": [
        {
          "internalType": "address",
          "name": "newOwner",
          "type": "address"
        }
      ],
      "name": "transferOwnership",
      "outputs": [],
      "stateMutability": "nonpayable",
      "type": "function"
    },
    {
      "inputs": [
        {
          "internalType": "address",
          "name": "_token",
          "type": "address"
        }
      ],
      "name": "unstakeTokensRequest",
      "outputs": [],
      "stateMutability": "nonpayable",
      "type": "function"
    },
    {
      "inputs": [],
      "name": "usdcToken",
      "outputs": [
        {
          "internalType": "contract IERC20",
          "name": "",
          "type": "address"
        }
      ],
      "stateMutability": "view",
      "type": "function"
    },
    {
      "inputs": [],
      "name": "usdtToken",
      "outputs": [
        {
          "internalType": "contract IERC20",
          "name": "",
          "type": "address"
        }
      ],
      "stateMutability": "view",
      "type": "function"
    },
    {
      "inputs": [
        {
          "internalType": "address",
          "name": "",
          "type": "address"
        },
        {
          "internalType": "uint256",
          "name": "",
          "type": "uint256"
        }
      ],
      "name": "userStakes",
      "outputs": [
        {
          "internalType": "uint256",
          "name": "stakedTokens",
          "type": "uint256"
        },
        {
          "internalType": "uint256",
          "name": "startTime",
          "type": "uint256"
        },
        {
          "internalType": "uint256",
          "name": "duration",
          "type": "uint256"
        },
        {
          "internalType": "uint256",
          "name": "rewardEarned",
          "type": "uint256"
        },
        {
          "internalType": "address",
          "name": "stakedTokenAddress",
          "type": "address"
        }
      ],
      "stateMutability": "view",
      "type": "function"
    },
    {
      "inputs": [
        {
          "internalType": "uint256",
          "name": "_amount",
          "type": "uint256"
        }
      ],
      "name": "withdrawTokens",
      "outputs": [],
      "stateMutability": "nonpayable",
      "type": "function"
    }
  ],
  "bytecode": "0x60806040523480156200001157600080fd5b506040516200317338038062003173833981810160405281019062000037919062000268565b620000576200004b6200013260201b60201c565b6200013a60201b60201c565b6001808190555082600560006101000a81548173ffffffffffffffffffffffffffffffffffffffff021916908373ffffffffffffffffffffffffffffffffffffffff16021790555081600660006101000a81548173ffffffffffffffffffffffffffffffffffffffff021916908373ffffffffffffffffffffffffffffffffffffffff16021790555080600760006101000a81548173ffffffffffffffffffffffffffffffffffffffff021916908373ffffffffffffffffffffffffffffffffffffffff160217905550600a600481905550505050620002c4565b600033905090565b60008060009054906101000a900473ffffffffffffffffffffffffffffffffffffffff169050816000806101000a81548173ffffffffffffffffffffffffffffffffffffffff021916908373ffffffffffffffffffffffffffffffffffffffff1602179055508173ffffffffffffffffffffffffffffffffffffffff168173ffffffffffffffffffffffffffffffffffffffff167f8be0079c531659141344cd1fd0a4f28419497f9722a3daafe3b4186f6b6457e060405160405180910390a35050565b600080fd5b600073ffffffffffffffffffffffffffffffffffffffff82169050919050565b6000620002308262000203565b9050919050565b620002428162000223565b81146200024e57600080fd5b50565b600081519050620002628162000237565b92915050565b600080600060608486031215620002845762000283620001fe565b5b6000620002948682870162000251565b9350506020620002a78682870162000251565b9250506040620002ba8682870162000251565b9150509250925092565b612e9f80620002d46000396000f3fe608060405234801561001057600080fd5b506004361061014d5760003560e01c80638da5cb5b116100c3578063bd8343451161007c578063bd83434514610394578063bee793e9146103c4578063cb139868146103e0578063d0a2f2c4146103fc578063f2fde38b1461041a578063f60cd3d8146104365761014d565b80638da5cb5b146102ba57806390f0b275146102d857806395a25efa146102f6578063a98ad46c14610326578063b5d5b5fa14610344578063b88430f6146103785761014d565b8063315a095d11610115578063315a095d146101f857806333a087fc146102145780633ae732591461024457806357cf0603146102625780635cf220be14610280578063715018a6146102b05761014d565b806311eac855146101525780631b1cd4ff146101705780631f94e1da146101a0578063228cb733146101bc57806329b8caff146101da575b600080fd5b61015a610454565b6040516101679190612176565b60405180910390f35b61018a600480360381019061018591906121d4565b61047a565b604051610197919061221c565b60405180910390f35b6101ba60048036038101906101b5919061226d565b61049a565b005b6101c46104ac565b6040516101d191906122a9565b60405180910390f35b6101e26104b2565b6040516101ef91906122a9565b60405180910390f35b610212600480360381019061020d919061226d565b6104b8565b005b61022e600480360381019061022991906122c4565b61056b565b60405161023b91906122a9565b60405180910390f35b61024c610691565b60405161025991906122a9565b60405180910390f35b61026a610697565b60405161027791906123c2565b60405180910390f35b61029a600480360381019061029591906122c4565b6107ee565b6040516102a791906122a9565b60405180910390f35b6102b8610911565b005b6102c2610925565b6040516102cf91906123f3565b60405180910390f35b6102e061094e565b6040516102ed91906123c2565b60405180910390f35b610310600480360381019061030b919061226d565b610a64565b60405161031d91906123f3565b60405180910390f35b61032e610aa3565b60405161033b9190612176565b60405180910390f35b61035e600480360381019061035991906122c4565b610ac9565b60405161036f95949392919061240e565b60405180910390f35b610392600480360381019061038d9190612461565b610b3c565b005b6103ae60048036038101906103a991906121d4565b610cee565b6040516103bb91906122a9565b60405180910390f35b6103de60048036038101906103d991906124b4565b610d06565b005b6103fa60048036038101906103f591906121d4565b6113df565b005b610404611c5f565b60405161041191906125c5565b60405180910390f35b610434600480360381019061042f91906121d4565b611ced565b005b61043e611d70565b60405161044b9190612176565b60405180910390f35b600760009054906101000a900473ffffffffffffffffffffffffffffffffffffffff1681565b60096020528060005260406000206000915054906101000a900460ff1681565b6104a2611d96565b8060048190555050565b60045481565b60035481565b6104c0611d96565b600560009054906101000a900473ffffffffffffffffffffffffffffffffffffffff1673ffffffffffffffffffffffffffffffffffffffff1663a9059cbb610506610925565b836040518363ffffffff1660e01b81526004016105249291906125e7565b6020604051808303816000875af1158015610543573d6000803e3d6000fd5b505050506040513d601f19601f82011682018060405250810190610567919061263c565b5050565b600080600860008573ffffffffffffffffffffffffffffffffffffffff1673ffffffffffffffffffffffffffffffffffffffff16815260200190815260200160002083815481106105bf576105be612669565b5b90600052602060002090600502016040518060a0016040529081600082015481526020016001820154815260200160028201548152602001600382015481526020016004820160009054906101000a900473ffffffffffffffffffffffffffffffffffffffff1673ffffffffffffffffffffffffffffffffffffffff1673ffffffffffffffffffffffffffffffffffffffff16815250509050600081602001514261066a91906126c7565b905060008161067987876107ee565b61068391906126fb565b905080935050505092915050565b60025481565b6060600060035467ffffffffffffffff8111156106b7576106b661273d565b5b6040519080825280602002602001820160405280156106e55781602001602082028036833780820191505090505b50905060005b6003548110156107e657600080600b838154811061070c5761070b612669565b5b9060005260206000200160009054906101000a900473ffffffffffffffffffffffffffffffffffffffff16905060005b600860008373ffffffffffffffffffffffffffffffffffffffff1673ffffffffffffffffffffffffffffffffffffffff168152602001908152602001600020805490508110156107b057610790828261056b565b8361079b919061276c565b925080806107a8906127a0565b91505061073c565b50818484815181106107c5576107c4612669565b5b602002602001018181525050505080806107de906127a0565b9150506106eb565b508091505090565b600080600860008573ffffffffffffffffffffffffffffffffffffffff1673ffffffffffffffffffffffffffffffffffffffff168152602001908152602001600020838154811061084257610841612669565b5b90600052602060002090600502016040518060a0016040529081600082015481526020016001820154815260200160028201548152602001600382015481526020016004820160009054906101000a900473ffffffffffffffffffffffffffffffffffffffff1673ffffffffffffffffffffffffffffffffffffffff1673ffffffffffffffffffffffffffffffffffffffff168152505090506301e13380606460045483600001516108f491906126fb565b6108fe9190612817565b6109089190612817565b91505092915050565b610919611d96565b6109236000611e14565b565b60008060009054906101000a900473ffffffffffffffffffffffffffffffffffffffff16905090565b6060600060035467ffffffffffffffff81111561096e5761096d61273d565b5b60405190808252806020026020018201604052801561099c5781602001602082028036833780820191505090505b50905060005b600354811015610a5c57600a6000600b83815481106109c4576109c3612669565b5b9060005260206000200160009054906101000a900473ffffffffffffffffffffffffffffffffffffffff1673ffffffffffffffffffffffffffffffffffffffff1673ffffffffffffffffffffffffffffffffffffffff16815260200190815260200160002054828281518110610a3d57610a3c612669565b5b6020026020010181815250508080610a54906127a0565b9150506109a2565b508091505090565b600b8181548110610a7457600080fd5b906000526020600020016000915054906101000a900473ffffffffffffffffffffffffffffffffffffffff1681565b600660009054906101000a900473ffffffffffffffffffffffffffffffffffffffff1681565b60086020528160005260406000208181548110610ae557600080fd5b9060005260206000209060050201600091509150508060000154908060010154908060020154908060030154908060040160009054906101000a900473ffffffffffffffffffffffffffffffffffffffff16905085565b610b44611d96565b600073ffffffffffffffffffffffffffffffffffffffff168373ffffffffffffffffffffffffffffffffffffffff1614158015610bae5750600073ffffffffffffffffffffffffffffffffffffffff168273ffffffffffffffffffffffffffffffffffffffff1614155b8015610be75750600073ffffffffffffffffffffffffffffffffffffffff168173ffffffffffffffffffffffffffffffffffffffff1614155b610c26576040517f08c379a0000000000000000000000000000000000000000000000000000000008152600401610c1d906128a5565b60405180910390fd5b82600560006101000a81548173ffffffffffffffffffffffffffffffffffffffff021916908373ffffffffffffffffffffffffffffffffffffffff16021790555081600660006101000a81548173ffffffffffffffffffffffffffffffffffffffff021916908373ffffffffffffffffffffffffffffffffffffffff16021790555080600760006101000a81548173ffffffffffffffffffffffffffffffffffffffff021916908373ffffffffffffffffffffffffffffffffffffffff160217905550505050565b600a6020528060005260406000206000915090505481565b610d0e611ed8565b60008311610d51576040517f08c379a0000000000000000000000000000000000000000000000000000000008152600401610d4890612911565b60405180910390fd5b6275558042610d60919061276c565b8211610da1576040517f08c379a0000000000000000000000000000000000000000000000000000000008152600401610d98906129a3565b60405180910390fd5b6000610dac82611f27565b9050838173ffffffffffffffffffffffffffffffffffffffff166370a08231336040518263ffffffff1660e01b8152600401610de891906123f3565b602060405180830381865afa158015610e05573d6000803e3d6000fd5b505050506040513d601f19601f82011682018060405250810190610e2991906129d8565b1015610e6a576040517f08c379a0000000000000000000000000000000000000000000000000000000008152600401610e6190612a51565b60405180910390fd5b6000806000905060005b600860003373ffffffffffffffffffffffffffffffffffffffff1673ffffffffffffffffffffffffffffffffffffffff1681526020019081526020016000208054905081101561101d578473ffffffffffffffffffffffffffffffffffffffff16600860003373ffffffffffffffffffffffffffffffffffffffff1673ffffffffffffffffffffffffffffffffffffffff1681526020019081526020016000208281548110610f2657610f25612669565b5b906000526020600020906005020160040160009054906101000a900473ffffffffffffffffffffffffffffffffffffffff1673ffffffffffffffffffffffffffffffffffffffff160361100a57600860003373ffffffffffffffffffffffffffffffffffffffff1673ffffffffffffffffffffffffffffffffffffffff1681526020019081526020016000208181548110610fc457610fc3612669565b5b9060005260206000209060050201925086836000016000828254610fe8919061276c565b925050819055508583600201819055504283600101819055506001915061101d565b8080611015906127a0565b915050610e74565b50806111c0576003600860003373ffffffffffffffffffffffffffffffffffffffff1673ffffffffffffffffffffffffffffffffffffffff16815260200190815260200160002080549050106110a8576040517f08c379a000000000000000000000000000000000000000000000000000000000815260040161109f90612abd565b60405180910390fd5b600860003373ffffffffffffffffffffffffffffffffffffffff1673ffffffffffffffffffffffffffffffffffffffff1681526020019081526020016000206040518060a00160405280888152602001428152602001878152602001600081526020018673ffffffffffffffffffffffffffffffffffffffff1681525090806001815401808255809150506001900390600052602060002090600502016000909190919091506000820151816000015560208201518160010155604082015181600201556060820151816003015560808201518160040160006101000a81548173ffffffffffffffffffffffffffffffffffffffff021916908373ffffffffffffffffffffffffffffffffffffffff16021790555050505b85600260008282546111d2919061276c565b92505081905550600960003373ffffffffffffffffffffffffffffffffffffffff1673ffffffffffffffffffffffffffffffffffffffff16815260200190815260200160002060009054906101000a900460ff166112fe576001600960003373ffffffffffffffffffffffffffffffffffffffff1673ffffffffffffffffffffffffffffffffffffffff16815260200190815260200160002060006101000a81548160ff02191690831515021790555060036000815480929190611295906127a0565b9190505550600b339080600181540180825580915050600190039060005260206000200160009091909190916101000a81548173ffffffffffffffffffffffffffffffffffffffff021916908373ffffffffffffffffffffffffffffffffffffffff1602179055505b8273ffffffffffffffffffffffffffffffffffffffff166323b872dd3330896040518463ffffffff1660e01b815260040161133b93929190612add565b6020604051808303816000875af115801561135a573d6000803e3d6000fd5b505050506040513d601f19601f8201168201806040525081019061137e919061263c565b503373ffffffffffffffffffffffffffffffffffffffff167f9f9e4044c5742cca66ca090b21552bac14645e68bad7a92364a9d9ff18111a1c87866040516113c7929190612b14565b60405180910390a25050506113da6120e6565b505050565b6113e7611ed8565b6000600860003373ffffffffffffffffffffffffffffffffffffffff1673ffffffffffffffffffffffffffffffffffffffff168152602001908152602001600020805490501161146c576040517f08c379a000000000000000000000000000000000000000000000000000000000815260040161146390612b89565b60405180910390fd5b60008060009050600080600090505b600860003373ffffffffffffffffffffffffffffffffffffffff1673ffffffffffffffffffffffffffffffffffffffff168152602001908152602001600020805490508110156115bc57600860003373ffffffffffffffffffffffffffffffffffffffff1673ffffffffffffffffffffffffffffffffffffffff168152602001908152602001600020818154811061151657611515612669565b5b906000526020600020906005020193508473ffffffffffffffffffffffffffffffffffffffff168460040160009054906101000a900473ffffffffffffffffffffffffffffffffffffffff1673ffffffffffffffffffffffffffffffffffffffff16148015611589575060008460000154115b80156115985750836002015442115b156115a957600192508091506115bc565b80806115b4906127a0565b91505061147b565b50816115fd576040517f08c379a00000000000000000000000000000000000000000000000000000000081526004016115f490612c1b565b60405180910390fd5b6000600860003373ffffffffffffffffffffffffffffffffffffffff1673ffffffffffffffffffffffffffffffffffffffff16815260200190815260200160002082815481106116505761164f612669565b5b90600052602060002090600502016000015490506000611670338461056b565b90506000600860003373ffffffffffffffffffffffffffffffffffffffff1673ffffffffffffffffffffffffffffffffffffffff16815260200190815260200160002084815481106116c5576116c4612669565b5b906000526020600020906005020160040160009054906101000a900473ffffffffffffffffffffffffffffffffffffffff16905060008190508073ffffffffffffffffffffffffffffffffffffffff1663a9059cbb33866040518363ffffffff1660e01b81526004016117399291906125e7565b6020604051808303816000875af1158015611758573d6000803e3d6000fd5b505050506040513d601f19601f8201168201806040525081019061177c919061263c565b50600560009054906101000a900473ffffffffffffffffffffffffffffffffffffffff1673ffffffffffffffffffffffffffffffffffffffff1663a9059cbb33856040518363ffffffff1660e01b81526004016117da9291906125e7565b6020604051808303816000875af11580156117f9573d6000803e3d6000fd5b505050506040513d601f19601f8201168201806040525081019061181d919061263c565b5082600a60003373ffffffffffffffffffffffffffffffffffffffff1673ffffffffffffffffffffffffffffffffffffffff168152602001908152602001600020600082825461186d919061276c565b925050819055506000600860003373ffffffffffffffffffffffffffffffffffffffff1673ffffffffffffffffffffffffffffffffffffffff16815260200190815260200160002086815481106118c7576118c6612669565b5b90600052602060002090600502016000018190555083600260008282546118ee91906126c7565b925050819055506001600860003373ffffffffffffffffffffffffffffffffffffffff1673ffffffffffffffffffffffffffffffffffffffff16815260200190815260200160002080549050036119b0576000600960003373ffffffffffffffffffffffffffffffffffffffff1673ffffffffffffffffffffffffffffffffffffffff16815260200190815260200160002060006101000a81548160ff021916908315150217905550600360008154809291906119aa90612c3b565b91905055505b600860003373ffffffffffffffffffffffffffffffffffffffff1673ffffffffffffffffffffffffffffffffffffffff1681526020019081526020016000206001600860003373ffffffffffffffffffffffffffffffffffffffff1673ffffffffffffffffffffffffffffffffffffffff16815260200190815260200160002080549050611a3e91906126c7565b81548110611a4f57611a4e612669565b5b9060005260206000209060050201600860003373ffffffffffffffffffffffffffffffffffffffff1673ffffffffffffffffffffffffffffffffffffffff1681526020019081526020016000208681548110611aae57611aad612669565b5b9060005260206000209060050201600082015481600001556001820154816001015560028201548160020155600382015481600301556004820160009054906101000a900473ffffffffffffffffffffffffffffffffffffffff168160040160006101000a81548173ffffffffffffffffffffffffffffffffffffffff021916908373ffffffffffffffffffffffffffffffffffffffff160217905550905050600860003373ffffffffffffffffffffffffffffffffffffffff1673ffffffffffffffffffffffffffffffffffffffff168152602001908152602001600020805480611b9d57611b9c612c64565b5b60019003818190600052602060002090600502016000808201600090556001820160009055600282016000905560038201600090556004820160006101000a81549073ffffffffffffffffffffffffffffffffffffffff0219169055505090553373ffffffffffffffffffffffffffffffffffffffff167fcbcdbdf10631a43cc99c80acace8232649421c3f4f73919f16013d47c83a687a8584604051611c45929190612b14565b60405180910390a250505050505050611c5c6120e6565b50565b6060600b805480602002602001604051908101604052809291908181526020018280548015611ce357602002820191906000526020600020905b8160009054906101000a900473ffffffffffffffffffffffffffffffffffffffff1673ffffffffffffffffffffffffffffffffffffffff1681526020019060010190808311611c99575b5050505050905090565b611cf5611d96565b600073ffffffffffffffffffffffffffffffffffffffff168173ffffffffffffffffffffffffffffffffffffffff1603611d64576040517f08c379a0000000000000000000000000000000000000000000000000000000008152600401611d5b90612d05565b60405180910390fd5b611d6d81611e14565b50565b600560009054906101000a900473ffffffffffffffffffffffffffffffffffffffff1681565b611d9e6120ef565b73ffffffffffffffffffffffffffffffffffffffff16611dbc610925565b73ffffffffffffffffffffffffffffffffffffffff1614611e12576040517f08c379a0000000000000000000000000000000000000000000000000000000008152600401611e0990612d71565b60405180910390fd5b565b60008060009054906101000a900473ffffffffffffffffffffffffffffffffffffffff169050816000806101000a81548173ffffffffffffffffffffffffffffffffffffffff021916908373ffffffffffffffffffffffffffffffffffffffff1602179055508173ffffffffffffffffffffffffffffffffffffffff168173ffffffffffffffffffffffffffffffffffffffff167f8be0079c531659141344cd1fd0a4f28419497f9722a3daafe3b4186f6b6457e060405160405180910390a35050565b600260015403611f1d576040517f08c379a0000000000000000000000000000000000000000000000000000000008152600401611f1490612ddd565b60405180910390fd5b6002600181905550565b6000600560009054906101000a900473ffffffffffffffffffffffffffffffffffffffff1673ffffffffffffffffffffffffffffffffffffffff168273ffffffffffffffffffffffffffffffffffffffff1603611fa857600560009054906101000a900473ffffffffffffffffffffffffffffffffffffffff1690506120e1565b600660009054906101000a900473ffffffffffffffffffffffffffffffffffffffff1673ffffffffffffffffffffffffffffffffffffffff168273ffffffffffffffffffffffffffffffffffffffff160361202757600660009054906101000a900473ffffffffffffffffffffffffffffffffffffffff1690506120e1565b600760009054906101000a900473ffffffffffffffffffffffffffffffffffffffff1673ffffffffffffffffffffffffffffffffffffffff168273ffffffffffffffffffffffffffffffffffffffff16036120a657600760009054906101000a900473ffffffffffffffffffffffffffffffffffffffff1690506120e1565b6040517f08c379a00000000000000000000000000000000000000000000000000000000081526004016120d890612e49565b60405180910390fd5b919050565b60018081905550565b600033905090565b600073ffffffffffffffffffffffffffffffffffffffff82169050919050565b6000819050919050565b600061213c612137612132846120f7565b612117565b6120f7565b9050919050565b600061214e82612121565b9050919050565b600061216082612143565b9050919050565b61217081612155565b82525050565b600060208201905061218b6000830184612167565b92915050565b600080fd5b60006121a1826120f7565b9050919050565b6121b181612196565b81146121bc57600080fd5b50565b6000813590506121ce816121a8565b92915050565b6000602082840312156121ea576121e9612191565b5b60006121f8848285016121bf565b91505092915050565b60008115159050919050565b61221681612201565b82525050565b6000602082019050612231600083018461220d565b92915050565b6000819050919050565b61224a81612237565b811461225557600080fd5b50565b60008135905061226781612241565b92915050565b60006020828403121561228357612282612191565b5b600061229184828501612258565b91505092915050565b6122a381612237565b82525050565b60006020820190506122be600083018461229a565b92915050565b600080604083850312156122db576122da612191565b5b60006122e9858286016121bf565b92505060206122fa85828601612258565b9150509250929050565b600081519050919050565b600082825260208201905092915050565b6000819050602082019050919050565b61233981612237565b82525050565b600061234b8383612330565b60208301905092915050565b6000602082019050919050565b600061236f82612304565b612379818561230f565b935061238483612320565b8060005b838110156123b557815161239c888261233f565b97506123a783612357565b925050600181019050612388565b5085935050505092915050565b600060208201905081810360008301526123dc8184612364565b905092915050565b6123ed81612196565b82525050565b600060208201905061240860008301846123e4565b92915050565b600060a082019050612423600083018861229a565b612430602083018761229a565b61243d604083018661229a565b61244a606083018561229a565b61245760808301846123e4565b9695505050505050565b60008060006060848603121561247a57612479612191565b5b6000612488868287016121bf565b9350506020612499868287016121bf565b92505060406124aa868287016121bf565b9150509250925092565b6000806000606084860312156124cd576124cc612191565b5b60006124db86828701612258565b93505060206124ec86828701612258565b92505060406124fd868287016121bf565b9150509250925092565b600081519050919050565b600082825260208201905092915050565b6000819050602082019050919050565b61253c81612196565b82525050565b600061254e8383612533565b60208301905092915050565b6000602082019050919050565b600061257282612507565b61257c8185612512565b935061258783612523565b8060005b838110156125b857815161259f8882612542565b97506125aa8361255a565b92505060018101905061258b565b5085935050505092915050565b600060208201905081810360008301526125df8184612567565b905092915050565b60006040820190506125fc60008301856123e4565b612609602083018461229a565b9392505050565b61261981612201565b811461262457600080fd5b50565b60008151905061263681612610565b92915050565b60006020828403121561265257612651612191565b5b600061266084828501612627565b91505092915050565b7f4e487b7100000000000000000000000000000000000000000000000000000000600052603260045260246000fd5b7f4e487b7100000000000000000000000000000000000000000000000000000000600052601160045260246000fd5b60006126d282612237565b91506126dd83612237565b92508282039050818111156126f5576126f4612698565b5b92915050565b600061270682612237565b915061271183612237565b925082820261271f81612237565b9150828204841483151761273657612735612698565b5b5092915050565b7f4e487b7100000000000000000000000000000000000000000000000000000000600052604160045260246000fd5b600061277782612237565b915061278283612237565b925082820190508082111561279a57612799612698565b5b92915050565b60006127ab82612237565b91507fffffffffffffffffffffffffffffffffffffffffffffffffffffffffffffffff82036127dd576127dc612698565b5b600182019050919050565b7f4e487b7100000000000000000000000000000000000000000000000000000000600052601260045260246000fd5b600061282282612237565b915061282d83612237565b92508261283d5761283c6127e8565b5b828204905092915050565b600082825260208201905092915050565b7f5a65726f20416464726573730000000000000000000000000000000000000000600082015250565b600061288f600c83612848565b915061289a82612859565b602082019050919050565b600060208201905081810360008301526128be81612882565b9050919050565b7f416d6f756e742063616e6e6f7420626520300000000000000000000000000000600082015250565b60006128fb601283612848565b9150612906826128c5565b602082019050919050565b6000602082019050818103600083015261292a816128ee565b9050919050565b7f506c65617365207374616b6520666f72206174206c656173742039302064617960008201527f7300000000000000000000000000000000000000000000000000000000000000602082015250565b600061298d602183612848565b915061299882612931565b604082019050919050565b600060208201905081810360008301526129bc81612980565b9050919050565b6000815190506129d281612241565b92915050565b6000602082840312156129ee576129ed612191565b5b60006129fc848285016129c3565b91505092915050565b7f496e73756666696369656e742062616c616e636520666f72207374616b696e67600082015250565b6000612a3b602083612848565b9150612a4682612a05565b602082019050919050565b60006020820190508181036000830152612a6a81612a2e565b9050919050565b7f4d6178696d756d2033207374616b657320616c6c6f7765640000000000000000600082015250565b6000612aa7601883612848565b9150612ab282612a71565b602082019050919050565b60006020820190508181036000830152612ad681612a9a565b9050919050565b6000606082019050612af260008301866123e4565b612aff60208301856123e4565b612b0c604083018461229a565b949350505050565b6000604082019050612b29600083018561229a565b612b3660208301846123e4565b9392505050565b7f4e6f207374616b657320666f756e6420666f7220746869732061646472657373600082015250565b6000612b73602083612848565b9150612b7e82612b3d565b602082019050919050565b60006020820190508181036000830152612ba281612b66565b9050919050565b7f4e6f2076616c6964207374616b657320617661696c61626c6520746f20756e7360008201527f74616b6520666f72207468697320746f6b656e00000000000000000000000000602082015250565b6000612c05603383612848565b9150612c1082612ba9565b604082019050919050565b60006020820190508181036000830152612c3481612bf8565b9050919050565b6000612c4682612237565b915060008203612c5957612c58612698565b5b600182039050919050565b7f4e487b7100000000000000000000000000000000000000000000000000000000600052603160045260246000fd5b7f4f776e61626c653a206e6577206f776e657220697320746865207a65726f206160008201527f6464726573730000000000000000000000000000000000000000000000000000602082015250565b6000612cef602683612848565b9150612cfa82612c93565b604082019050919050565b60006020820190508181036000830152612d1e81612ce2565b9050919050565b7f4f776e61626c653a2063616c6c6572206973206e6f7420746865206f776e6572600082015250565b6000612d5b602083612848565b9150612d6682612d25565b602082019050919050565b60006020820190508181036000830152612d8a81612d4e565b9050919050565b7f5265656e7472616e637947756172643a207265656e7472616e742063616c6c00600082015250565b6000612dc7601f83612848565b9150612dd282612d91565b602082019050919050565b60006020820190508181036000830152612df681612dba565b9050919050565b7f496e76616c696420746f6b656e20616464726573730000000000000000000000600082015250565b6000612e33601583612848565b9150612e3e82612dfd565b602082019050919050565b60006020820190508181036000830152612e6281612e26565b905091905056fea264697066735822122051039c1294722ee8c11a65fe65dcf70a1689e64b293969e0cec8caa923a6cd5764736f6c63430008140033",
  "linkReferences": {},
  "deployedLinkReferences": {}
}