{
  "_format": "hh-sol-artifact-1",
  "contractName": "LnbgLondonCoinBridgeBase",
  "sourceName": "contracts/LnbgBridgeBase.sol",
  "abi": [
    {
      "inputs": [
        {
          "internalType": "address",
          "name": "_token",
          "type": "address"
        }
      ],
      "stateMutability": "nonpayable",
      "type": "constructor"
    },
    {
      "anonymous": false,
      "inputs": [
        {
          "indexed": false,
          "internalType": "address",
          "name": "from",
          "type": "address"
        },
        {
          "indexed": false,
          "internalType": "address",
          "name": "to",
          "type": "address"
        },
        {
          "indexed": false,
          "internalType": "address",
          "name": "vault",
          "type": "address"
        },
        {
          "indexed": false,
          "internalType": "uint256",
          "name": "amount",
          "type": "uint256"
        },
        {
          "indexed": false,
          "internalType": "uint256",
          "name": "date",
          "type": "uint256"
        },
        {
          "indexed": false,
          "internalType": "uint256",
          "name": "nonce",
          "type": "uint256"
        },
        {
          "indexed": false,
          "internalType": "uint256",
          "name": "chainId",
          "type": "uint256"
        }
      ],
      "name": "LockDeposits",
      "type": "event"
    },
    {
      "anonymous": false,
      "inputs": [
        {
          "indexed": true,
          "internalType": "address",
          "name": "previousOwner",
          "type": "address"
        },
        {
          "indexed": true,
          "internalType": "address",
          "name": "newOwner",
          "type": "address"
        }
      ],
      "name": "OwnershipTransferred",
      "type": "event"
    },
    {
      "anonymous": false,
      "inputs": [
        {
          "indexed": false,
          "internalType": "address",
          "name": "from",
          "type": "address"
        },
        {
          "indexed": false,
          "internalType": "address",
          "name": "to",
          "type": "address"
        },
        {
          "indexed": false,
          "internalType": "uint256",
          "name": "amount",
          "type": "uint256"
        },
        {
          "indexed": false,
          "internalType": "uint256",
          "name": "date",
          "type": "uint256"
        },
        {
          "indexed": false,
          "internalType": "uint256",
          "name": "nonce",
          "type": "uint256"
        },
        {
          "indexed": false,
          "internalType": "uint256",
          "name": "chainId",
          "type": "uint256"
        }
      ],
      "name": "unLockDeposits",
      "type": "event"
    },
    {
      "inputs": [],
      "name": "adminValut",
      "outputs": [
        {
          "internalType": "address",
          "name": "",
          "type": "address"
        }
      ],
      "stateMutability": "view",
      "type": "function"
    },
    {
      "inputs": [],
      "name": "contractNonce",
      "outputs": [
        {
          "internalType": "uint256",
          "name": "",
          "type": "uint256"
        }
      ],
      "stateMutability": "view",
      "type": "function"
    },
    {
      "inputs": [
        {
          "internalType": "address",
          "name": "_from",
          "type": "address"
        },
        {
          "internalType": "address",
          "name": "_to",
          "type": "address"
        },
        {
          "internalType": "uint256",
          "name": "_amount",
          "type": "uint256"
        },
        {
          "internalType": "uint256",
          "name": "_chainId",
          "type": "uint256"
        }
      ],
      "name": "depositTokenFor",
      "outputs": [],
      "stateMutability": "nonpayable",
      "type": "function"
    },
    {
      "inputs": [],
      "name": "lnbgVault",
      "outputs": [
        {
          "internalType": "address",
          "name": "",
          "type": "address"
        }
      ],
      "stateMutability": "view",
      "type": "function"
    },
    {
      "inputs": [],
      "name": "owner",
      "outputs": [
        {
          "internalType": "address",
          "name": "",
          "type": "address"
        }
      ],
      "stateMutability": "view",
      "type": "function"
    },
    {
      "inputs": [
        {
          "internalType": "uint256",
          "name": "",
          "type": "uint256"
        },
        {
          "internalType": "uint256",
          "name": "",
          "type": "uint256"
        }
      ],
      "name": "processedNonces",
      "outputs": [
        {
          "internalType": "bool",
          "name": "",
          "type": "bool"
        }
      ],
      "stateMutability": "view",
      "type": "function"
    },
    {
      "inputs": [],
      "name": "renounceOwnership",
      "outputs": [],
      "stateMutability": "nonpayable",
      "type": "function"
    },
    {
      "inputs": [
        {
          "internalType": "address",
          "name": "_to",
          "type": "address"
        },
        {
          "internalType": "uint256",
          "name": "_amount",
          "type": "uint256"
        },
        {
          "internalType": "uint256",
          "name": "_nonce",
          "type": "uint256"
        },
        {
          "internalType": "uint256",
          "name": "chainId",
          "type": "uint256"
        }
      ],
      "name": "requestedTokensFor",
      "outputs": [],
      "stateMutability": "nonpayable",
      "type": "function"
    },
    {
      "inputs": [],
      "name": "token",
      "outputs": [
        {
          "internalType": "contract IERC20",
          "name": "",
          "type": "address"
        }
      ],
      "stateMutability": "view",
      "type": "function"
    },
    {
      "inputs": [
        {
          "internalType": "address",
          "name": "newOwner",
          "type": "address"
        }
      ],
      "name": "transferOwnership",
      "outputs": [],
      "stateMutability": "nonpayable",
      "type": "function"
    },
    {
      "inputs": [
        {
          "internalType": "address",
          "name": "_newAdmin",
          "type": "address"
        }
      ],
      "name": "updateAdmin",
      "outputs": [],
      "stateMutability": "nonpayable",
      "type": "function"
    },
    {
      "inputs": [
        {
          "internalType": "uint256",
          "name": "_amount",
          "type": "uint256"
        }
      ],
      "name": "withdrawTokens",
      "outputs": [],
      "stateMutability": "nonpayable",
      "type": "function"
    }
  ],
  "bytecode": "0x608060405234801561001057600080fd5b5060405161091a38038061091a83398101604081905261002f916100c0565b61003833610070565b600480546001600160a01b039092166001600160a01b03199283161790556002805482163017905560018054909116331790556100f0565b600080546001600160a01b038381166001600160a01b0319831681178455604051919092169283917f8be0079c531659141344cd1fd0a4f28419497f9722a3daafe3b4186f6b6457e09190a35050565b6000602082840312156100d257600080fd5b81516001600160a01b03811681146100e957600080fd5b9392505050565b61081b806100ff6000396000f3fe608060405234801561001057600080fd5b50600436106100b45760003560e01c80638da5cb5b116100715780638da5cb5b14610143578063b59e8d7814610154578063d3838ba014610167578063e2f273bd146101a5578063f2fde38b146101b8578063fc0c546a146101cb57600080fd5b80631baad4b0146100b9578063315a095d146100ce57806349d71f05146100e15780634ae8aa74146100fd578063715018a6146101105780638504134514610118575b600080fd5b6100cc6100c73660046106c4565b6101de565b005b6100cc6100dc366004610706565b6102ea565b6100ea60035481565b6040519081526020015b60405180910390f35b6100cc61010b36600461071f565b61038a565b6100cc610547565b60025461012b906001600160a01b031681565b6040516001600160a01b0390911681526020016100f4565b6000546001600160a01b031661012b565b60015461012b906001600160a01b031681565b610195610175366004610758565b600560209081526000928352604080842090915290825290205460ff1681565b60405190151581526020016100f4565b6100cc6101b336600461077a565b61055b565b6100cc6101c636600461077a565b610585565b60045461012b906001600160a01b031681565b600480546002546040516323b872dd60e01b81526001600160a01b03888116948201949094529083166024820152604481018590529116906323b872dd906064016020604051808303816000875af115801561023e573d6000803e3d6000fd5b505050506040513d601f19601f82011682018060405250810190610262919061079c565b50600254600354604080516001600160a01b0380891682528088166020830152909316908301526060820184905242608083015260a082015260c081018290527f6b0dda1b3bcf3a6f96b58c35dcab70783aadccfcf64b1755e6699d68d24e91dc9060e00160405180910390a1600380549060006102df836107be565b919050555050505050565b6102f26105fe565b6004546001600160a01b031663a9059cbb6103156000546001600160a01b031690565b6040516001600160e01b031960e084901b1681526001600160a01b039091166004820152602481018490526044016020604051808303816000875af1158015610362573d6000803e3d6000fd5b505050506040513d601f19601f82011682018060405250810190610386919061079c565b5050565b6001546001600160a01b031633146103d65760405162461bcd60e51b815260206004820152600a60248201526937b7363c9020b236b4b760b11b60448201526064015b60405180910390fd5b600081815260056020908152604080832085845290915290205460ff16156104405760405162461bcd60e51b815260206004820152601a60248201527f7472616e7366657220616c72656164792070726f63657373656400000000000060448201526064016103cd565b600081815260056020908152604080832085845290915290819020805460ff1916600117905560048054915163a9059cbb60e01b81526001600160a01b03878116928201929092526024810186905291169063a9059cbb906044016020604051808303816000875af11580156104ba573d6000803e3d6000fd5b505050506040513d601f19601f820116820180604052508101906104de919061079c565b50600254604080516001600160a01b039283168152918616602083015281018490524260608201526080810183905260a081018290527fc34c40ecce15b70051adecafbfb7eaf58d54dc3ea7898bf0bb6be20223cc024c9060c00160405180910390a150505050565b61054f6105fe565b6105596000610658565b565b6105636105fe565b600180546001600160a01b0319166001600160a01b0392909216919091179055565b61058d6105fe565b6001600160a01b0381166105f25760405162461bcd60e51b815260206004820152602660248201527f4f776e61626c653a206e6577206f776e657220697320746865207a65726f206160448201526564647265737360d01b60648201526084016103cd565b6105fb81610658565b50565b6000546001600160a01b031633146105595760405162461bcd60e51b815260206004820181905260248201527f4f776e61626c653a2063616c6c6572206973206e6f7420746865206f776e657260448201526064016103cd565b600080546001600160a01b038381166001600160a01b0319831681178455604051919092169283917f8be0079c531659141344cd1fd0a4f28419497f9722a3daafe3b4186f6b6457e09190a35050565b80356001600160a01b03811681146106bf57600080fd5b919050565b600080600080608085870312156106da57600080fd5b6106e3856106a8565b93506106f1602086016106a8565b93969395505050506040820135916060013590565b60006020828403121561071857600080fd5b5035919050565b6000806000806080858703121561073557600080fd5b61073e856106a8565b966020860135965060408601359560600135945092505050565b6000806040838503121561076b57600080fd5b50508035926020909101359150565b60006020828403121561078c57600080fd5b610795826106a8565b9392505050565b6000602082840312156107ae57600080fd5b8151801515811461079557600080fd5b6000600182016107de57634e487b7160e01b600052601160045260246000fd5b506001019056fea2646970667358221220539ddfedb75334bff34662a77cec04d64a61b9ab0865e7c72a6656bd51c4542c64736f6c63430008140033",
  "linkReferences": {},
  "deployedLinkReferences": {}
}