{
  "_format": "hh-sol-artifact-1",
  "contractName": "WrappedBridgeLnbg",
  "sourceName": "contracts/WrapedBridgeBase.sol",
  "abi": [
    {
      "inputs": [
        {
          "internalType": "address",
          "name": "_usdt",
          "type": "address"
        },
        {
          "internalType": "address",
          "name": "_usdc",
          "type": "address"
        },
        {
          "internalType": "address",
          "name": "_token",
          "type": "address"
        }
      ],
      "stateMutability": "nonpayable",
      "type": "constructor"
    },
    {
      "inputs": [],
      "name": "minimumAndMaximumLimit",
      "type": "error"
    },
    {
      "inputs": [],
      "name": "pleaseSendTokenPrice",
      "type": "error"
    },
    {
      "anonymous": false,
      "inputs": [
        {
          "indexed": true,
          "internalType": "address",
          "name": "previousOwner",
          "type": "address"
        },
        {
          "indexed": true,
          "internalType": "address",
          "name": "newOwner",
          "type": "address"
        }
      ],
      "name": "OwnershipTransferred",
      "type": "event"
    },
    {
      "anonymous": false,
      "inputs": [
        {
          "indexed": false,
          "internalType": "address",
          "name": "from",
          "type": "address"
        },
        {
          "indexed": false,
          "internalType": "address",
          "name": "to",
          "type": "address"
        },
        {
          "indexed": false,
          "internalType": "uint256",
          "name": "amount",
          "type": "uint256"
        },
        {
          "indexed": false,
          "internalType": "uint256",
          "name": "date",
          "type": "uint256"
        },
        {
          "indexed": false,
          "internalType": "uint256",
          "name": "nonce",
          "type": "uint256"
        },
        {
          "indexed": false,
          "internalType": "uint256",
          "name": "chainId",
          "type": "uint256"
        }
      ],
      "name": "WrappedBurn",
      "type": "event"
    },
    {
      "anonymous": false,
      "inputs": [
        {
          "indexed": false,
          "internalType": "address",
          "name": "from",
          "type": "address"
        },
        {
          "indexed": false,
          "internalType": "address",
          "name": "to",
          "type": "address"
        },
        {
          "indexed": false,
          "internalType": "uint256",
          "name": "amount",
          "type": "uint256"
        },
        {
          "indexed": false,
          "internalType": "uint256",
          "name": "date",
          "type": "uint256"
        },
        {
          "indexed": false,
          "internalType": "uint256",
          "name": "nonce",
          "type": "uint256"
        },
        {
          "indexed": false,
          "internalType": "uint256",
          "name": "chainId",
          "type": "uint256"
        }
      ],
      "name": "WrappedMint",
      "type": "event"
    },
    {
      "anonymous": false,
      "inputs": [
        {
          "indexed": false,
          "internalType": "address",
          "name": "_addr",
          "type": "address"
        },
        {
          "indexed": false,
          "internalType": "uint256",
          "name": "_amount",
          "type": "uint256"
        },
        {
          "indexed": false,
          "internalType": "string",
          "name": "_paymentType",
          "type": "string"
        }
      ],
      "name": "buyHistory",
      "type": "event"
    },
    {
      "inputs": [],
      "name": "admin",
      "outputs": [
        {
          "internalType": "address",
          "name": "",
          "type": "address"
        }
      ],
      "stateMutability": "view",
      "type": "function"
    },
    {
      "inputs": [
        {
          "internalType": "address",
          "name": "_from",
          "type": "address"
        },
        {
          "internalType": "address",
          "name": "_to",
          "type": "address"
        },
        {
          "internalType": "uint256",
          "name": "_amount",
          "type": "uint256"
        },
        {
          "internalType": "uint256",
          "name": "_chainId",
          "type": "uint256"
        }
      ],
      "name": "burn",
      "outputs": [],
      "stateMutability": "nonpayable",
      "type": "function"
    },
    {
      "inputs": [
        {
          "internalType": "address",
          "name": "_to",
          "type": "address"
        },
        {
          "internalType": "uint256",
          "name": "_amount",
          "type": "uint256"
        }
      ],
      "name": "buyWithETH",
      "outputs": [
        {
          "internalType": "bool",
          "name": "",
          "type": "bool"
        }
      ],
      "stateMutability": "payable",
      "type": "function"
    },
    {
      "inputs": [
        {
          "internalType": "address",
          "name": "_to",
          "type": "address"
        },
        {
          "internalType": "uint256",
          "name": "_buyToken",
          "type": "uint256"
        },
        {
          "internalType": "bool",
          "name": "isUsdt",
          "type": "bool"
        }
      ],
      "name": "buyWithUSDT",
      "outputs": [
        {
          "internalType": "bool",
          "name": "",
          "type": "bool"
        }
      ],
      "stateMutability": "nonpayable",
      "type": "function"
    },
    {
      "inputs": [
        {
          "internalType": "uint256",
          "name": "_priceInUSDT",
          "type": "uint256"
        }
      ],
      "name": "changeSalePrice",
      "outputs": [],
      "stateMutability": "nonpayable",
      "type": "function"
    },
    {
      "inputs": [],
      "name": "getLatestUSDTPrice",
      "outputs": [
        {
          "internalType": "uint256",
          "name": "",
          "type": "uint256"
        }
      ],
      "stateMutability": "view",
      "type": "function"
    },
    {
      "inputs": [
        {
          "internalType": "address",
          "name": "_to",
          "type": "address"
        },
        {
          "internalType": "uint256",
          "name": "_amount",
          "type": "uint256"
        },
        {
          "internalType": "uint256",
          "name": "_nonce",
          "type": "uint256"
        },
        {
          "internalType": "uint256",
          "name": "_chainId",
          "type": "uint256"
        }
      ],
      "name": "mint",
      "outputs": [],
      "stateMutability": "nonpayable",
      "type": "function"
    },
    {
      "inputs": [],
      "name": "nonce",
      "outputs": [
        {
          "internalType": "uint256",
          "name": "",
          "type": "uint256"
        }
      ],
      "stateMutability": "view",
      "type": "function"
    },
    {
      "inputs": [],
      "name": "owner",
      "outputs": [
        {
          "internalType": "address",
          "name": "",
          "type": "address"
        }
      ],
      "stateMutability": "view",
      "type": "function"
    },
    {
      "inputs": [
        {
          "internalType": "uint256",
          "name": "",
          "type": "uint256"
        },
        {
          "internalType": "uint256",
          "name": "",
          "type": "uint256"
        }
      ],
      "name": "processedNonces",
      "outputs": [
        {
          "internalType": "bool",
          "name": "",
          "type": "bool"
        }
      ],
      "stateMutability": "view",
      "type": "function"
    },
    {
      "inputs": [],
      "name": "raisedAmount",
      "outputs": [
        {
          "internalType": "uint256",
          "name": "",
          "type": "uint256"
        }
      ],
      "stateMutability": "view",
      "type": "function"
    },
    {
      "inputs": [],
      "name": "renounceOwnership",
      "outputs": [],
      "stateMutability": "nonpayable",
      "type": "function"
    },
    {
      "inputs": [],
      "name": "salePrice",
      "outputs": [
        {
          "internalType": "uint256",
          "name": "",
          "type": "uint256"
        }
      ],
      "stateMutability": "view",
      "type": "function"
    },
    {
      "inputs": [
        {
          "internalType": "uint256",
          "name": "_amount",
          "type": "uint256"
        },
        {
          "internalType": "uint256",
          "name": "_roundPrice",
          "type": "uint256"
        }
      ],
      "name": "sellTokenInETHPrice",
      "outputs": [
        {
          "internalType": "uint256",
          "name": "",
          "type": "uint256"
        }
      ],
      "stateMutability": "view",
      "type": "function"
    },
    {
      "inputs": [
        {
          "internalType": "uint256",
          "name": "_amount",
          "type": "uint256"
        },
        {
          "internalType": "uint256",
          "name": "_roundPrice",
          "type": "uint256"
        }
      ],
      "name": "sellTokenInUDSTPrice",
      "outputs": [
        {
          "internalType": "uint256",
          "name": "",
          "type": "uint256"
        }
      ],
      "stateMutability": "view",
      "type": "function"
    },
    {
      "inputs": [],
      "name": "token",
      "outputs": [
        {
          "internalType": "contract IToken",
          "name": "",
          "type": "address"
        }
      ],
      "stateMutability": "view",
      "type": "function"
    },
    {
      "inputs": [
        {
          "internalType": "address",
          "name": "newOwner",
          "type": "address"
        }
      ],
      "name": "transferOwnership",
      "outputs": [],
      "stateMutability": "nonpayable",
      "type": "function"
    },
    {
      "inputs": [
        {
          "internalType": "address",
          "name": "_newToken",
          "type": "address"
        }
      ],
      "name": "updateToken",
      "outputs": [],
      "stateMutability": "nonpayable",
      "type": "function"
    }
  ],
  "bytecode": "0x608060405264e8d4a510006008553480156200001a57600080fd5b5060405162002057380380620020578339818101604052810190620000409190620002ac565b62000060620000546200017660201b60201c565b6200017e60201b60201c565b33600160006101000a81548173ffffffffffffffffffffffffffffffffffffffff021916908373ffffffffffffffffffffffffffffffffffffffff16021790555080600260006101000a81548173ffffffffffffffffffffffffffffffffffffffff021916908373ffffffffffffffffffffffffffffffffffffffff16021790555082600660006101000a81548173ffffffffffffffffffffffffffffffffffffffff021916908373ffffffffffffffffffffffffffffffffffffffff16021790555081600760006101000a81548173ffffffffffffffffffffffffffffffffffffffff021916908373ffffffffffffffffffffffffffffffffffffffff16021790555061753060048190555050505062000308565b600033905090565b60008060009054906101000a900473ffffffffffffffffffffffffffffffffffffffff169050816000806101000a81548173ffffffffffffffffffffffffffffffffffffffff021916908373ffffffffffffffffffffffffffffffffffffffff1602179055508173ffffffffffffffffffffffffffffffffffffffff168173ffffffffffffffffffffffffffffffffffffffff167f8be0079c531659141344cd1fd0a4f28419497f9722a3daafe3b4186f6b6457e060405160405180910390a35050565b600080fd5b600073ffffffffffffffffffffffffffffffffffffffff82169050919050565b6000620002748262000247565b9050919050565b620002868162000267565b81146200029257600080fd5b50565b600081519050620002a6816200027b565b92915050565b600080600060608486031215620002c857620002c762000242565b5b6000620002d88682870162000295565b9350506020620002eb8682870162000295565b9250506040620002fe8682870162000295565b9150509250925092565b611d3f80620003186000396000f3fe6080604052600436106101095760003560e01c8063b562089611610095578063d7020d0a11610064578063d7020d0a14610370578063f2fde38b14610399578063f51f96dd146103c2578063f851a440146103ed578063fc0c546a1461041857610109565b8063b5620896146102a2578063ba0dc0cd146102cb578063c59ee1dc14610308578063d3838ba01461033357610109565b806395a51669116100dc57806395a51669146101b657806398dd36bf146101e65780639d6e1cca14610211578063a647e8ec1461024e578063affed0e01461027757610109565b80634184bcce1461010e578063715018a61461014b5780637ad3def2146101625780638da5cb5b1461018b575b600080fd5b34801561011a57600080fd5b50610135600480360381019061013091906112da565b610443565b6040516101429190611329565b60405180910390f35b34801561015757600080fd5b50610160610494565b005b34801561016e57600080fd5b50610189600480360381019061018491906113a2565b6104a8565b005b34801561019757600080fd5b506101a06104f4565b6040516101ad91906113de565b60405180910390f35b6101d060048036038101906101cb91906113f9565b61051d565b6040516101dd9190611454565b60405180910390f35b3480156101f257600080fd5b506101fb6106fe565b6040516102089190611329565b60405180910390f35b34801561021d57600080fd5b506102386004803603810190610233919061149b565b61070d565b6040516102459190611454565b60405180910390f35b34801561025a57600080fd5b50610275600480360381019061027091906114ee565b610c56565b005b34801561028357600080fd5b5061028c610e71565b6040516102999190611329565b60405180910390f35b3480156102ae57600080fd5b506102c960048036038101906102c49190611555565b610e77565b005b3480156102d757600080fd5b506102f260048036038101906102ed91906112da565b610ecc565b6040516102ff9190611329565b60405180910390f35b34801561031457600080fd5b5061031d610f5b565b60405161032a9190611329565b60405180910390f35b34801561033f57600080fd5b5061035a600480360381019061035591906112da565b610f61565b6040516103679190611454565b60405180910390f35b34801561037c57600080fd5b5061039760048036038101906103929190611582565b610f90565b005b3480156103a557600080fd5b506103c060048036038101906103bb91906113a2565b611080565b005b3480156103ce57600080fd5b506103d7611103565b6040516103e49190611329565b60405180910390f35b3480156103f957600080fd5b50610402611109565b60405161040f91906113de565b60405180910390f35b34801561042457600080fd5b5061042d61112f565b60405161043a9190611648565b60405180910390f35b600080600854836104549190611692565b9050600064e8d4a51000670de0b6b3a764000086846104739190611692565b61047d9190611703565b6104879190611703565b9050809250505092915050565b61049c611155565b6104a660006111d3565b565b6104b0611155565b80600260006101000a81548173ffffffffffffffffffffffffffffffffffffffff021916908373ffffffffffffffffffffffffffffffffffffffff16021790555050565b60008060009054906101000a900473ffffffffffffffffffffffffffffffffffffffff16905090565b60008061052c83600454610443565b9050620f4240811080610542575063b2d05e0081115b15610579576040517f35debf6d00000000000000000000000000000000000000000000000000000000815260040160405180910390fd5b600061058784600454610ecc565b9050803410156105c3576040517f8bbdc31c00000000000000000000000000000000000000000000000000000000815260040160405180910390fd5b6105cb6104f4565b73ffffffffffffffffffffffffffffffffffffffff166108fc349081150290604051600060405180830381858888f19350505050158015610610573d6000803e3d6000fd5b50600260009054906101000a900473ffffffffffffffffffffffffffffffffffffffff1673ffffffffffffffffffffffffffffffffffffffff166340c10f1986866040518363ffffffff1660e01b815260040161066e929190611734565b600060405180830381600087803b15801561068857600080fd5b505af115801561069c573d6000803e3d6000fd5b5050505081600560008282546106b2919061175d565b925050819055507f0371644b355388a624a6177b002ed35bc804509fdde155c58472d42bd1ce3d0833856040516106ea9291906117ee565b60405180910390a160019250505092915050565b60006601522203f9df2e905090565b60008061071c84600454610443565b9050620f4240811080610732575063b2d05e0081115b15610769576040517f35debf6d00000000000000000000000000000000000000000000000000000000815260040160405180910390fd5b82156109e1576000600660009054906101000a900473ffffffffffffffffffffffffffffffffffffffff1673ffffffffffffffffffffffffffffffffffffffff1663dd62ed3e33306040518363ffffffff1660e01b81526004016107ce92919061182a565b602060405180830381865afa1580156107eb573d6000803e3d6000fd5b505050506040513d601f19601f8201168201806040525081019061080f9190611868565b90508082101561084b576040517f8bbdc31c00000000000000000000000000000000000000000000000000000000815260040160405180910390fd5b600660009054906101000a900473ffffffffffffffffffffffffffffffffffffffff1673ffffffffffffffffffffffffffffffffffffffff166323b872dd336108926104f4565b856040518463ffffffff1660e01b81526004016108b193929190611895565b6020604051808303816000875af11580156108d0573d6000803e3d6000fd5b505050506040513d601f19601f820116820180604052508101906108f491906118e1565b50600260009054906101000a900473ffffffffffffffffffffffffffffffffffffffff1673ffffffffffffffffffffffffffffffffffffffff166340c10f1987876040518363ffffffff1660e01b8152600401610952929190611734565b600060405180830381600087803b15801561096c57600080fd5b505af1158015610980573d6000803e3d6000fd5b505050508160056000828254610996919061175d565b925050819055507f0371644b355388a624a6177b002ed35bc804509fdde155c58472d42bd1ce3d0833866040516109ce92919061195a565b60405180910390a1600192505050610c4f565b6000600760009054906101000a900473ffffffffffffffffffffffffffffffffffffffff1673ffffffffffffffffffffffffffffffffffffffff1663dd62ed3e33306040518363ffffffff1660e01b8152600401610a4092919061182a565b602060405180830381865afa158015610a5d573d6000803e3d6000fd5b505050506040513d601f19601f82011682018060405250810190610a819190611868565b905080821015610abd576040517f8bbdc31c00000000000000000000000000000000000000000000000000000000815260040160405180910390fd5b600760009054906101000a900473ffffffffffffffffffffffffffffffffffffffff1673ffffffffffffffffffffffffffffffffffffffff166323b872dd33610b046104f4565b856040518463ffffffff1660e01b8152600401610b2393929190611895565b6020604051808303816000875af1158015610b42573d6000803e3d6000fd5b505050506040513d601f19601f82011682018060405250810190610b6691906118e1565b50600260009054906101000a900473ffffffffffffffffffffffffffffffffffffffff1673ffffffffffffffffffffffffffffffffffffffff166340c10f1987876040518363ffffffff1660e01b8152600401610bc4929190611734565b600060405180830381600087803b158015610bde57600080fd5b505af1158015610bf2573d6000803e3d6000fd5b505050508160056000828254610c08919061175d565b925050819055507f0371644b355388a624a6177b002ed35bc804509fdde155c58472d42bd1ce3d083386604051610c409291906119e2565b60405180910390a16001925050505b9392505050565b600160009054906101000a900473ffffffffffffffffffffffffffffffffffffffff1673ffffffffffffffffffffffffffffffffffffffff163373ffffffffffffffffffffffffffffffffffffffff1614610ce6576040517f08c379a0000000000000000000000000000000000000000000000000000000008152600401610cdd90611a6a565b60405180910390fd5b6000151560096000838152602001908152602001600020600084815260200190815260200160002060009054906101000a900460ff16151514610d5e576040517f08c379a0000000000000000000000000000000000000000000000000000000008152600401610d5590611ad6565b60405180910390fd5b600160096000838152602001908152602001600020600084815260200190815260200160002060006101000a81548160ff021916908315150217905550600260009054906101000a900473ffffffffffffffffffffffffffffffffffffffff1673ffffffffffffffffffffffffffffffffffffffff166340c10f1985856040518363ffffffff1660e01b8152600401610df8929190611734565b600060405180830381600087803b158015610e1257600080fd5b505af1158015610e26573d6000803e3d6000fd5b505050507f21983e74886774514c2f52363af856c8f21656819f27c8d5fc28dfcc47c4ceb9338585428686604051610e6396959493929190611af6565b60405180910390a150505050565b60035481565b610e7f611155565b60008111610ec2576040517f08c379a0000000000000000000000000000000000000000000000000000000008152600401610eb990611ba3565b60405180910390fd5b8060048190555050565b60008060085483610edd9190611692565b9050600064e8d4a51000670de0b6b3a76400008684610efc9190611692565b610f069190611703565b610f109190611703565b9050600060085482610f229190611692565b90506000670de0b6b3a764000082610f386106fe565b610f429190611692565b610f4c9190611703565b90508094505050505092915050565b60055481565b60096020528160005260406000206020528060005260406000206000915091509054906101000a900460ff1681565b600260009054906101000a900473ffffffffffffffffffffffffffffffffffffffff1673ffffffffffffffffffffffffffffffffffffffff16639dc29fac85846040518363ffffffff1660e01b8152600401610fed929190611734565b600060405180830381600087803b15801561100757600080fd5b505af115801561101b573d6000803e3d6000fd5b505050507fc56ba3c1c5b3710c52c20106d58f70110a7e83dc4e51178987eb8919adc384df848484426003548660405161105a96959493929190611af6565b60405180910390a16003600081548092919061107590611bc3565b919050555050505050565b611088611155565b600073ffffffffffffffffffffffffffffffffffffffff168173ffffffffffffffffffffffffffffffffffffffff16036110f7576040517f08c379a00000000000000000000000000000000000000000000000000000000081526004016110ee90611c7d565b60405180910390fd5b611100816111d3565b50565b60045481565b600160009054906101000a900473ffffffffffffffffffffffffffffffffffffffff1681565b600260009054906101000a900473ffffffffffffffffffffffffffffffffffffffff1681565b61115d611297565b73ffffffffffffffffffffffffffffffffffffffff1661117b6104f4565b73ffffffffffffffffffffffffffffffffffffffff16146111d1576040517f08c379a00000000000000000000000000000000000000000000000000000000081526004016111c890611ce9565b60405180910390fd5b565b60008060009054906101000a900473ffffffffffffffffffffffffffffffffffffffff169050816000806101000a81548173ffffffffffffffffffffffffffffffffffffffff021916908373ffffffffffffffffffffffffffffffffffffffff1602179055508173ffffffffffffffffffffffffffffffffffffffff168173ffffffffffffffffffffffffffffffffffffffff167f8be0079c531659141344cd1fd0a4f28419497f9722a3daafe3b4186f6b6457e060405160405180910390a35050565b600033905090565b600080fd5b6000819050919050565b6112b7816112a4565b81146112c257600080fd5b50565b6000813590506112d4816112ae565b92915050565b600080604083850312156112f1576112f061129f565b5b60006112ff858286016112c5565b9250506020611310858286016112c5565b9150509250929050565b611323816112a4565b82525050565b600060208201905061133e600083018461131a565b92915050565b600073ffffffffffffffffffffffffffffffffffffffff82169050919050565b600061136f82611344565b9050919050565b61137f81611364565b811461138a57600080fd5b50565b60008135905061139c81611376565b92915050565b6000602082840312156113b8576113b761129f565b5b60006113c68482850161138d565b91505092915050565b6113d881611364565b82525050565b60006020820190506113f360008301846113cf565b92915050565b600080604083850312156114105761140f61129f565b5b600061141e8582860161138d565b925050602061142f858286016112c5565b9150509250929050565b60008115159050919050565b61144e81611439565b82525050565b60006020820190506114696000830184611445565b92915050565b61147881611439565b811461148357600080fd5b50565b6000813590506114958161146f565b92915050565b6000806000606084860312156114b4576114b361129f565b5b60006114c28682870161138d565b93505060206114d3868287016112c5565b92505060406114e486828701611486565b9150509250925092565b600080600080608085870312156115085761150761129f565b5b60006115168782880161138d565b9450506020611527878288016112c5565b9350506040611538878288016112c5565b9250506060611549878288016112c5565b91505092959194509250565b60006020828403121561156b5761156a61129f565b5b6000611579848285016112c5565b91505092915050565b6000806000806080858703121561159c5761159b61129f565b5b60006115aa8782880161138d565b94505060206115bb8782880161138d565b93505060406115cc878288016112c5565b92505060606115dd878288016112c5565b91505092959194509250565b6000819050919050565b600061160e61160961160484611344565b6115e9565b611344565b9050919050565b6000611620826115f3565b9050919050565b600061163282611615565b9050919050565b61164281611627565b82525050565b600060208201905061165d6000830184611639565b92915050565b7f4e487b7100000000000000000000000000000000000000000000000000000000600052601160045260246000fd5b600061169d826112a4565b91506116a8836112a4565b92508282026116b6816112a4565b915082820484148315176116cd576116cc611663565b5b5092915050565b7f4e487b7100000000000000000000000000000000000000000000000000000000600052601260045260246000fd5b600061170e826112a4565b9150611719836112a4565b925082611729576117286116d4565b5b828204905092915050565b600060408201905061174960008301856113cf565b611756602083018461131a565b9392505050565b6000611768826112a4565b9150611773836112a4565b925082820190508082111561178b5761178a611663565b5b92915050565b600082825260208201905092915050565b7f4554480000000000000000000000000000000000000000000000000000000000600082015250565b60006117d8600383611791565b91506117e3826117a2565b602082019050919050565b600060608201905061180360008301856113cf565b611810602083018461131a565b8181036040830152611821816117cb565b90509392505050565b600060408201905061183f60008301856113cf565b61184c60208301846113cf565b9392505050565b600081519050611862816112ae565b92915050565b60006020828403121561187e5761187d61129f565b5b600061188c84828501611853565b91505092915050565b60006060820190506118aa60008301866113cf565b6118b760208301856113cf565b6118c4604083018461131a565b949350505050565b6000815190506118db8161146f565b92915050565b6000602082840312156118f7576118f661129f565b5b6000611905848285016118cc565b91505092915050565b7f5553445400000000000000000000000000000000000000000000000000000000600082015250565b6000611944600483611791565b915061194f8261190e565b602082019050919050565b600060608201905061196f60008301856113cf565b61197c602083018461131a565b818103604083015261198d81611937565b90509392505050565b7f5553444300000000000000000000000000000000000000000000000000000000600082015250565b60006119cc600483611791565b91506119d782611996565b602082019050919050565b60006060820190506119f760008301856113cf565b611a04602083018461131a565b8181036040830152611a15816119bf565b90509392505050565b7f6f6e6c792061646d696e00000000000000000000000000000000000000000000600082015250565b6000611a54600a83611791565b9150611a5f82611a1e565b602082019050919050565b60006020820190508181036000830152611a8381611a47565b9050919050565b7f7472616e7366657220616c72656164792070726f636573736564000000000000600082015250565b6000611ac0601a83611791565b9150611acb82611a8a565b602082019050919050565b60006020820190508181036000830152611aef81611ab3565b9050919050565b600060c082019050611b0b60008301896113cf565b611b1860208301886113cf565b611b25604083018761131a565b611b32606083018661131a565b611b3f608083018561131a565b611b4c60a083018461131a565b979650505050505050565b7f5072696365206d7573742062652067726561746572207468616e205a65726f00600082015250565b6000611b8d601f83611791565b9150611b9882611b57565b602082019050919050565b60006020820190508181036000830152611bbc81611b80565b9050919050565b6000611bce826112a4565b91507fffffffffffffffffffffffffffffffffffffffffffffffffffffffffffffffff8203611c0057611bff611663565b5b600182019050919050565b7f4f776e61626c653a206e6577206f776e657220697320746865207a65726f206160008201527f6464726573730000000000000000000000000000000000000000000000000000602082015250565b6000611c67602683611791565b9150611c7282611c0b565b604082019050919050565b60006020820190508181036000830152611c9681611c5a565b9050919050565b7f4f776e61626c653a2063616c6c6572206973206e6f7420746865206f776e6572600082015250565b6000611cd3602083611791565b9150611cde82611c9d565b602082019050919050565b60006020820190508181036000830152611d0281611cc6565b905091905056fea2646970667358221220789282b9ad0bcf5a6fd0f6b748c405bd38db68a0df2b64c312149a72d832910664736f6c63430008140033",
  "linkReferences": {},
  "deployedLinkReferences": {}
}